{
  "contractName": "AnchoringContract",
  "abi": [
    {
      "constant": false,
      "inputs": [
        {
          "name": "_to",
          "type": "address"
        }
      ],
      "name": "approveAll",
      "outputs": [],
      "payable": false,
      "stateMutability": "nonpayable",
      "type": "function"
    },
    {
      "constant": true,
      "inputs": [],
      "name": "name",
      "outputs": [
        {
          "name": "",
          "type": "string"
        }
      ],
      "payable": false,
      "stateMutability": "view",
      "type": "function"
    },
    {
      "constant": false,
      "inputs": [
        {
          "name": "_to",
          "type": "address"
        },
        {
          "name": "_tokenId",
          "type": "uint256"
        }
      ],
      "name": "approve",
      "outputs": [],
      "payable": false,
      "stateMutability": "nonpayable",
      "type": "function"
    },
    {
      "constant": true,
      "inputs": [],
      "name": "totalSupply",
      "outputs": [
        {
          "name": "",
          "type": "uint256"
        }
      ],
      "payable": false,
      "stateMutability": "view",
      "type": "function"
    },
    {
      "constant": false,
      "inputs": [
        {
          "name": "_from",
          "type": "address"
        },
        {
          "name": "_to",
          "type": "address"
        },
        {
          "name": "_tokenId",
          "type": "uint256"
        }
      ],
      "name": "transferFrom",
      "outputs": [],
      "payable": false,
      "stateMutability": "nonpayable",
      "type": "function"
    },
    {
      "constant": true,
      "inputs": [
        {
          "name": "_owner",
          "type": "address"
        },
        {
          "name": "_index",
          "type": "uint256"
        }
      ],
      "name": "tokenOfOwnerByIndex",
      "outputs": [
        {
          "name": "",
          "type": "uint256"
        }
      ],
      "payable": false,
      "stateMutability": "view",
      "type": "function"
    },
    {
      "constant": true,
      "inputs": [
        {
          "name": "_index",
          "type": "uint256"
        }
      ],
      "name": "tokenByIndex",
      "outputs": [
        {
          "name": "",
          "type": "uint256"
        }
      ],
      "payable": false,
      "stateMutability": "view",
      "type": "function"
    },
    {
      "constant": false,
      "inputs": [
        {
          "name": "_to",
          "type": "address"
        }
      ],
      "name": "disapproveAll",
      "outputs": [],
      "payable": false,
      "stateMutability": "nonpayable",
      "type": "function"
    },
    {
      "constant": true,
      "inputs": [
        {
          "name": "_owner",
          "type": "address"
        }
      ],
      "name": "tokensOf",
      "outputs": [
        {
          "name": "",
          "type": "uint256[]"
        }
      ],
      "payable": false,
      "stateMutability": "view",
      "type": "function"
    },
    {
      "constant": true,
      "inputs": [
        {
          "name": "_tokenId",
          "type": "uint256"
        }
      ],
      "name": "ownerOf",
      "outputs": [
        {
          "name": "",
          "type": "address"
        }
      ],
      "payable": false,
      "stateMutability": "view",
      "type": "function"
    },
    {
      "constant": true,
      "inputs": [
        {
          "name": "_owner",
          "type": "address"
        }
      ],
      "name": "balanceOf",
      "outputs": [
        {
          "name": "",
          "type": "uint256"
        }
      ],
      "payable": false,
      "stateMutability": "view",
      "type": "function"
    },
    {
      "constant": false,
      "inputs": [],
      "name": "acceptOwnership",
      "outputs": [],
      "payable": false,
      "stateMutability": "nonpayable",
      "type": "function"
    },
    {
      "constant": true,
      "inputs": [],
      "name": "getTokenSaleAddress",
      "outputs": [
        {
          "name": "",
          "type": "address"
        }
      ],
      "payable": false,
      "stateMutability": "view",
      "type": "function"
    },
    {
      "constant": true,
      "inputs": [],
      "name": "owner",
      "outputs": [
        {
          "name": "",
          "type": "address"
        }
      ],
      "payable": false,
      "stateMutability": "view",
      "type": "function"
    },
    {
      "constant": true,
      "inputs": [],
      "name": "symbol",
      "outputs": [
        {
          "name": "",
          "type": "string"
        }
      ],
      "payable": false,
      "stateMutability": "view",
      "type": "function"
    },
    {
      "constant": false,
      "inputs": [
        {
          "name": "_to",
          "type": "address"
        },
        {
          "name": "_approved",
          "type": "bool"
        }
      ],
      "name": "setApprovalForAll",
      "outputs": [],
      "payable": false,
      "stateMutability": "nonpayable",
      "type": "function"
    },
    {
      "constant": false,
      "inputs": [
        {
          "name": "_to",
          "type": "address"
        },
        {
          "name": "_tokenId",
          "type": "uint256"
        }
      ],
      "name": "transfer",
      "outputs": [],
      "payable": false,
      "stateMutability": "nonpayable",
      "type": "function"
    },
    {
      "constant": false,
      "inputs": [
        {
          "name": "_tokenId",
          "type": "uint256"
        }
      ],
      "name": "takeOwnership",
      "outputs": [],
      "payable": false,
      "stateMutability": "nonpayable",
      "type": "function"
    },
    {
      "constant": true,
      "inputs": [],
      "name": "newOwner",
      "outputs": [
        {
          "name": "",
          "type": "address"
        }
      ],
      "payable": false,
      "stateMutability": "view",
      "type": "function"
    },
    {
      "constant": true,
      "inputs": [
        {
          "name": "_owner",
          "type": "address"
        },
        {
          "name": "_operator",
          "type": "address"
        }
      ],
      "name": "isApprovedForAll",
      "outputs": [
        {
          "name": "",
          "type": "bool"
        }
      ],
      "payable": false,
      "stateMutability": "view",
      "type": "function"
    },
    {
      "constant": true,
      "inputs": [
        {
          "name": "_tokenId",
          "type": "uint256"
        }
      ],
      "name": "getApprovedAddress",
      "outputs": [
        {
          "name": "",
          "type": "address"
        }
      ],
      "payable": false,
      "stateMutability": "view",
      "type": "function"
    },
    {
      "constant": false,
      "inputs": [
        {
          "name": "_newOwner",
          "type": "address"
        }
      ],
      "name": "transferOwnership",
      "outputs": [],
      "payable": false,
      "stateMutability": "nonpayable",
      "type": "function"
    },
    {
      "inputs": [
        {
          "name": "_name",
          "type": "string"
        },
        {
          "name": "_symbol",
          "type": "string"
        }
      ],
      "payable": false,
      "stateMutability": "nonpayable",
      "type": "constructor"
    },
    {
      "anonymous": false,
      "inputs": [
        {
          "indexed": true,
          "name": "referenceId",
          "type": "bytes32"
        },
        {
          "indexed": true,
          "name": "documentId",
          "type": "uint256"
        },
        {
          "indexed": true,
          "name": "versionId",
          "type": "uint256"
        },
        {
          "indexed": false,
          "name": "hash",
          "type": "string"
        }
      ],
      "name": "DocumentSaved",
      "type": "event"
    },
    {
      "anonymous": false,
      "inputs": [
        {
          "indexed": true,
          "name": "_from",
          "type": "address"
        },
        {
          "indexed": true,
          "name": "_to",
          "type": "address"
        },
        {
          "indexed": false,
          "name": "_tokenId",
          "type": "uint256"
        }
      ],
      "name": "Transfer",
      "type": "event"
    },
    {
      "anonymous": false,
      "inputs": [
        {
          "indexed": true,
          "name": "_owner",
          "type": "address"
        },
        {
          "indexed": true,
          "name": "_approved",
          "type": "address"
        },
        {
          "indexed": false,
          "name": "_tokenId",
          "type": "uint256"
        }
      ],
      "name": "Approval",
      "type": "event"
    },
    {
      "anonymous": false,
      "inputs": [
        {
          "indexed": true,
          "name": "_owner",
          "type": "address"
        },
        {
          "indexed": true,
          "name": "_operator",
          "type": "address"
        },
        {
          "indexed": false,
          "name": "_approved",
          "type": "bool"
        }
      ],
      "name": "ApprovalForAll",
      "type": "event"
    },
    {
      "anonymous": false,
      "inputs": [
        {
          "indexed": true,
          "name": "_from",
          "type": "address"
        },
        {
          "indexed": true,
          "name": "_to",
          "type": "address"
        }
      ],
      "name": "OwnershipTransferred",
      "type": "event"
    },
    {
      "constant": false,
      "inputs": [
        {
          "name": "hash",
          "type": "string"
        },
        {
          "name": "description",
          "type": "string"
        }
      ],
      "name": "createDocument",
      "outputs": [
        {
          "name": "",
          "type": "bytes32"
        }
      ],
      "payable": false,
      "stateMutability": "nonpayable",
      "type": "function"
    },
    {
      "constant": false,
      "inputs": [
        {
          "name": "referenceId",
          "type": "bytes32"
        },
        {
          "name": "hash",
          "type": "string"
        },
        {
          "name": "description",
          "type": "string"
        }
      ],
      "name": "updateDocument",
      "outputs": [
        {
          "name": "",
          "type": "bytes32"
        }
      ],
      "payable": false,
      "stateMutability": "nonpayable",
      "type": "function"
    },
    {
      "constant": true,
      "inputs": [
        {
          "name": "hash",
          "type": "string"
        }
      ],
      "name": "getAllByHash",
      "outputs": [
        {
          "name": "",
          "type": "string[]"
        }
      ],
      "payable": false,
      "stateMutability": "view",
      "type": "function"
    },
    {
      "constant": true,
      "inputs": [
        {
          "name": "referenceId",
          "type": "bytes32"
        }
      ],
      "name": "getHashByReferenceId",
      "outputs": [
        {
          "name": "",
          "type": "string"
        }
      ],
      "payable": false,
      "stateMutability": "view",
      "type": "function"
    },
    {
      "constant": true,
      "inputs": [
        {
          "name": "referenceId",
          "type": "bytes32"
        }
      ],
      "name": "getByReferenceId",
      "outputs": [
        {
          "name": "",
          "type": "string"
        },
        {
          "name": "",
          "type": "string"
        }
      ],
      "payable": false,
      "stateMutability": "view",
      "type": "function"
    },
    {
      "constant": true,
      "inputs": [
        {
          "name": "hash",
          "type": "string"
        }
      ],
      "name": "hashExists",
      "outputs": [
        {
          "name": "",
          "type": "bool"
        }
      ],
      "payable": false,
      "stateMutability": "view",
      "type": "function"
    },
    {
      "constant": false,
      "inputs": [
        {
          "name": "referenceId",
          "type": "bytes32"
        }
      ],
      "name": "isReferenceExists",
      "outputs": [
        {
          "name": "",
          "type": "bool"
        }
      ],
      "payable": false,
      "stateMutability": "nonpayable",
      "type": "function"
    },
    {
      "constant": true,
      "inputs": [
        {
          "name": "referenceId",
          "type": "bytes32"
        }
      ],
      "name": "getAllByReferenceId",
      "outputs": [
        {
          "name": "",
          "type": "string[]"
        }
      ],
      "payable": false,
      "stateMutability": "view",
      "type": "function"
    }
  ],
  "bytecode": "0x60806040526000600b553480156200001657600080fd5b50604051620032e1380380620032e183398101806040526200003c9190810190620001c7565b8181336000806101000a81548173ffffffffffffffffffffffffffffffffffffffff021916908373ffffffffffffffffffffffffffffffffffffffff160217905550816008908051906020019062000096929190620000ba565b508060099080519060200190620000af929190620000ba565b5050505050620002cb565b828054600181600116156101000203166002900490600052602060002090601f016020900481019282601f10620000fd57805160ff19168380011785556200012e565b828001600101855582156200012e579182015b828111156200012d57825182559160200191906001019062000110565b5b5090506200013d919062000141565b5090565b6200016691905b808211156200016257600081600090555060010162000148565b5090565b90565b600082601f83011215156200017d57600080fd5b8151620001946200018e8262000268565b6200023a565b91508082526020830160208301858383011115620001b157600080fd5b620001be83828462000295565b50505092915050565b60008060408385031215620001db57600080fd5b600083015167ffffffffffffffff811115620001f657600080fd5b620002048582860162000169565b925050602083015167ffffffffffffffff8111156200022257600080fd5b620002308582860162000169565b9150509250929050565b6000604051905081810181811067ffffffffffffffff821117156200025e57600080fd5b8060405250919050565b600067ffffffffffffffff8211156200028057600080fd5b601f19601f8301169050602081019050919050565b60005b83811015620002b557808201518184015260208101905062000298565b83811115620002c5576000848401525b50505050565b61300680620002db6000396000f300608060405260043610610180576000357c0100000000000000000000000000000000000000000000000000000000900463ffffffff1680630621472c1461018557806306fdde03146101ae578063095ea7b3146101d957806318160ddd1461020257806320251cab1461022d57806323b872dd1461026a57806324eb4cd0146102935780632f745c59146102d05780634638c34c1461030d5780634f6ccce71461034a57806351dabd45146103875780635a3f2672146103b05780636352211e146103ed578063702f3dae1461042a57806370a082311461046757806379ba5097146104a457806379fb97e8146104bb5780638da5cb5b146104e657806393ebc4c81461051157806395d89b411461054e5780639871e51014610579578063a22cb465146105b6578063a9059cbb146105df578063b2e6ceeb14610608578063c1dd473914610631578063d4ee1d901461066e578063df25c02714610699578063e985e9c5146106d7578063eca4742a14610714578063f2fde38b14610751575b600080fd5b34801561019157600080fd5b506101ac60048036036101a7919081019061296d565b61077a565b005b3480156101ba57600080fd5b506101c36108ef565b6040516101d09190612e34565b60405180910390f35b3480156101e557600080fd5b5061020060048036036101fb9190810190612a5d565b610991565b005b34801561020e57600080fd5b50610217610b24565b6040516102249190612e8d565b60405180910390f35b34801561023957600080fd5b50610254600480360361024f9190810190612a99565b610b31565b6040516102619190612dba565b60405180910390f35b34801561027657600080fd5b50610291600480360361028c91908101906129d2565b610cbc565b005b34801561029f57600080fd5b506102ba60048036036102b59190810190612a99565b610d2a565b6040516102c79190612dfe565b60405180910390f35b3480156102dc57600080fd5b506102f760048036036102f29190810190612a5d565b610d3c565b6040516103049190612e8d565b60405180910390f35b34801561031957600080fd5b50610334600480360361032f9190810190612a99565b610db3565b6040516103419190612e34565b60405180910390f35b34801561035657600080fd5b50610371600480360361036c9190810190612c05565b610dc9565b60405161037e9190612e8d565b60405180910390f35b34801561039357600080fd5b506103ae60048036036103a9919081019061296d565b610de8565b005b3480156103bc57600080fd5b506103d760048036036103d2919081019061296d565b610f18565b6040516103e49190612ddc565b60405180910390f35b3480156103f957600080fd5b50610414600480360361040f9190810190612c05565b610feb565b6040516104219190612d9f565b60405180910390f35b34801561043657600080fd5b50610451600480360361044c9190810190612ac2565b611069565b60405161045e9190612e19565b60405180910390f35b34801561047357600080fd5b5061048e6004803603610489919081019061296d565b611163565b60405161049b9190612e8d565b60405180910390f35b3480156104b057600080fd5b506104b96111ea565b005b3480156104c757600080fd5b506104d0611389565b6040516104dd9190612d9f565b60405180910390f35b3480156104f257600080fd5b506104fb6113b3565b6040516105089190612d9f565b60405180910390f35b34801561051d57600080fd5b5061053860048036036105339190810190612b90565b6113d8565b6040516105459190612e19565b60405180910390f35b34801561055a57600080fd5b506105636114cd565b6040516105709190612e34565b60405180910390f35b34801561058557600080fd5b506105a0600480360361059b9190810190612b4b565b61156f565b6040516105ad9190612dfe565b60405180910390f35b3480156105c257600080fd5b506105dd60048036036105d89190810190612a21565b6115b4565b005b3480156105eb57600080fd5b5061060660048036036106019190810190612a5d565b6115d6565b005b34801561061457600080fd5b5061062f600480360361062a9190810190612c05565b611629565b005b34801561063d57600080fd5b5061065860048036036106539190810190612b4b565b611653565b6040516106659190612dba565b60405180910390f35b34801561067a57600080fd5b5061068361173a565b6040516106909190612d9f565b60405180910390f35b3480156106a557600080fd5b506106c060048036036106bb9190810190612a99565b611760565b6040516106ce929190612e56565b60405180910390f35b3480156106e357600080fd5b506106fe60048036036106f99190810190612996565b6117a4565b60405161070b9190612dfe565b60405180910390f35b34801561072057600080fd5b5061073b60048036036107369190810190612c05565b611838565b6040516107489190612d9f565b60405180910390f35b34801561075d57600080fd5b506107786004803603610773919081019061296d565b611875565b005b3373ffffffffffffffffffffffffffffffffffffffff168173ffffffffffffffffffffffffffffffffffffffff16141515156107b557600080fd5b600073ffffffffffffffffffffffffffffffffffffffff168173ffffffffffffffffffffffffffffffffffffffff16141515156107f157600080fd5b6001600460003373ffffffffffffffffffffffffffffffffffffffff1673ffffffffffffffffffffffffffffffffffffffff16815260200190815260200160002060008373ffffffffffffffffffffffffffffffffffffffff1673ffffffffffffffffffffffffffffffffffffffff16815260200190815260200160002060006101000a81548160ff0219169083151502179055508073ffffffffffffffffffffffffffffffffffffffff163373ffffffffffffffffffffffffffffffffffffffff167f17307eab39ab6107e8899845ad3d59bd9653f200f220920489ca2b5937696c3160016040516108e49190612dfe565b60405180910390a350565b606060088054600181600116156101000203166002900480601f0160208091040260200160405190810160405280929190818152602001828054600181600116156101000203166002900480156109875780601f1061095c57610100808354040283529160200191610987565b820191906000526020600020905b81548152906001019060200180831161096a57829003601f168201915b5050505050905090565b6000813373ffffffffffffffffffffffffffffffffffffffff166109b482610feb565b73ffffffffffffffffffffffffffffffffffffffff161415156109d657600080fd5b6109df83610feb565b91508173ffffffffffffffffffffffffffffffffffffffff168473ffffffffffffffffffffffffffffffffffffffff1614151515610a1c57600080fd5b6000610a2784611838565b73ffffffffffffffffffffffffffffffffffffffff16141580610a61575060008473ffffffffffffffffffffffffffffffffffffffff1614155b15610b1e57836003600085815260200190815260200160002060006101000a81548173ffffffffffffffffffffffffffffffffffffffff021916908373ffffffffffffffffffffffffffffffffffffffff1602179055508373ffffffffffffffffffffffffffffffffffffffff168273ffffffffffffffffffffffffffffffffffffffff167f8c5be1e5ebec7d5bd14f71427d1e84f3dd0314c0f7b2291e5b200ac8c7c3b92585604051610b159190612e8d565b60405180910390a35b50505050565b6000600780549050905090565b606060008060606000610b4386611914565b1515610b4e57600080fd5b600d600087600019166000191681526020019081526020016000209350600c60008560000154815260200190815260200160002092508280549050604051908082528060200260200182016040528015610bbc57816020015b6060815260200190600190039081610ba75790505b509150600090505b8280549050811015610cb0578281815481101515610bde57fe5b90600052602060002090600202016000018054600181600116156101000203166002900480601f016020809104026020016040519081016040528092919081815260200182805460018160011615610100020316600290048015610c835780601f10610c5857610100808354040283529160200191610c83565b820191906000526020600020905b815481529060010190602001808311610c6657829003601f168201915b50505050508282815181101515610c9657fe5b906020019060200201819052508080600101915050610bc4565b81945050505050919050565b610cc581611945565b1515610cd057600080fd5b8273ffffffffffffffffffffffffffffffffffffffff16610cf082610feb565b73ffffffffffffffffffffffffffffffffffffffff16141515610d1257600080fd5b610d25610d1e82610feb565b83836119af565b505050565b6000610d3582611914565b9050919050565b6000610d4783611163565b82101515610d5457600080fd5b600560008473ffffffffffffffffffffffffffffffffffffffff1673ffffffffffffffffffffffffffffffffffffffff16815260200190815260200160002082815481101515610da057fe5b9060005260206000200154905092915050565b6060610dbe82611af8565b600001519050919050565b6000610dd3610b24565b82101515610de057600080fd5b819050919050565b3373ffffffffffffffffffffffffffffffffffffffff168173ffffffffffffffffffffffffffffffffffffffff1614151515610e2357600080fd5b600460003373ffffffffffffffffffffffffffffffffffffffff1673ffffffffffffffffffffffffffffffffffffffff16815260200190815260200160002060008273ffffffffffffffffffffffffffffffffffffffff1673ffffffffffffffffffffffffffffffffffffffff16815260200190815260200160002060006101000a81549060ff02191690558073ffffffffffffffffffffffffffffffffffffffff163373ffffffffffffffffffffffffffffffffffffffff167f17307eab39ab6107e8899845ad3d59bd9653f200f220920489ca2b5937696c316000604051610f0d9190612dfe565b60405180910390a350565b6060600073ffffffffffffffffffffffffffffffffffffffff168273ffffffffffffffffffffffffffffffffffffffff1614151515610f5657600080fd5b600560008373ffffffffffffffffffffffffffffffffffffffff1673ffffffffffffffffffffffffffffffffffffffff168152602001908152602001600020805480602002602001604051908101604052809291908181526020018280548015610fdf57602002820191906000526020600020905b815481526020019060010190808311610fcb575b50505050509050919050565b6000806002600084815260200190815260200160002060009054906101000a900473ffffffffffffffffffffffffffffffffffffffff169050600073ffffffffffffffffffffffffffffffffffffffff168173ffffffffffffffffffffffffffffffffffffffff161415151561106057600080fd5b80915050919050565b6000806000809054906101000a900473ffffffffffffffffffffffffffffffffffffffff1673ffffffffffffffffffffffffffffffffffffffff163373ffffffffffffffffffffffffffffffffffffffff161415156110c757600080fd5b600d600088600019166000191681526020019081526020016000206000015490506111578187878080601f01602080910402602001604051908101604052809392919081815260200183838082843782019150505050505086868080601f016020809104026020016040519081016040528093929190818152602001838380828437820191505050505050611ccb565b91505095945050505050565b60008073ffffffffffffffffffffffffffffffffffffffff168273ffffffffffffffffffffffffffffffffffffffff16141515156111a057600080fd5b600560008373ffffffffffffffffffffffffffffffffffffffff1673ffffffffffffffffffffffffffffffffffffffff168152602001908152602001600020805490509050919050565b600160009054906101000a900473ffffffffffffffffffffffffffffffffffffffff1673ffffffffffffffffffffffffffffffffffffffff163373ffffffffffffffffffffffffffffffffffffffff1614151561124657600080fd5b600160009054906101000a900473ffffffffffffffffffffffffffffffffffffffff1673ffffffffffffffffffffffffffffffffffffffff166000809054906101000a900473ffffffffffffffffffffffffffffffffffffffff1673ffffffffffffffffffffffffffffffffffffffff167f8be0079c531659141344cd1fd0a4f28419497f9722a3daafe3b4186f6b6457e060405160405180910390a3600160009054906101000a900473ffffffffffffffffffffffffffffffffffffffff166000806101000a81548173ffffffffffffffffffffffffffffffffffffffff021916908373ffffffffffffffffffffffffffffffffffffffff1602179055506000600160006101000a81548173ffffffffffffffffffffffffffffffffffffffff021916908373ffffffffffffffffffffffffffffffffffffffff160217905550565b6000600a60009054906101000a900473ffffffffffffffffffffffffffffffffffffffff16905090565b6000809054906101000a900473ffffffffffffffffffffffffffffffffffffffff1681565b6000806000809054906101000a900473ffffffffffffffffffffffffffffffffffffffff1673ffffffffffffffffffffffffffffffffffffffff163373ffffffffffffffffffffffffffffffffffffffff1614151561143657600080fd5b6114a7600b5487878080601f01602080910402602001604051908101604052809392919081815260200183838082843782019150505050505086868080601f016020809104026020016040519081016040528093929190818152602001838380828437820191505050505050611ccb565b90506114b533600b54611f47565b6001600b5401600b8190555080915050949350505050565b606060098054600181600116156101000203166002900480601f0160208091040260200160405190810160405280929190818152602001828054600181600116156101000203166002900480156115655780601f1061153a57610100808354040283529160200191611565565b820191906000526020600020905b81548152906001019060200180831161154857829003601f168201915b5050505050905090565b60006115ac83838080601f016020809104026020016040519081016040528093929190818152602001838380828437820191505050505050611fe1565b905092915050565b80156115c8576115c38261077a565b6115d2565b6115d182610de8565b5b5050565b803373ffffffffffffffffffffffffffffffffffffffff166115f782610feb565b73ffffffffffffffffffffffffffffffffffffffff1614151561161957600080fd5b6116243384846119af565b505050565b61163281611945565b151561163d57600080fd5b61165061164982610feb565b33836119af565b50565b6060600061169284848080601f016020809104026020016040519081016040528093929190818152602001838380828437820191505050505050611fe1565b151561169d57600080fd5b8383604051602001808383808284378201915050925050506040516020818303038152906040526040518082805190602001908083835b6020831015156116f957805182526020820191506020810190506020830392506116d4565b6001836020036101000a0380198251168184511680821785525050505050509050019150506040518091039020905061173181610b31565b91505092915050565b600160009054906101000a900473ffffffffffffffffffffffffffffffffffffffff1681565b60608061176b61260e565b61177484611914565b151561177f57600080fd5b61178884611af8565b9050806000015181602001518191508090509250925050915091565b6000600460008473ffffffffffffffffffffffffffffffffffffffff1673ffffffffffffffffffffffffffffffffffffffff16815260200190815260200160002060008373ffffffffffffffffffffffffffffffffffffffff1673ffffffffffffffffffffffffffffffffffffffff16815260200190815260200160002060009054906101000a900460ff16905092915050565b60006003600083815260200190815260200160002060009054906101000a900473ffffffffffffffffffffffffffffffffffffffff169050919050565b6000809054906101000a900473ffffffffffffffffffffffffffffffffffffffff1673ffffffffffffffffffffffffffffffffffffffff163373ffffffffffffffffffffffffffffffffffffffff161415156118d057600080fd5b80600160006101000a81548173ffffffffffffffffffffffffffffffffffffffff021916908373ffffffffffffffffffffffffffffffffffffffff16021790555050565b600080600d600084600019166000191681526020019081526020016000209050600081600201541415915050919050565b60003373ffffffffffffffffffffffffffffffffffffffff1661196783610feb565b73ffffffffffffffffffffffffffffffffffffffff16148061198f575061198e33836120e6565b5b806119a857506119a76119a183610feb565b336117a4565b5b9050919050565b600073ffffffffffffffffffffffffffffffffffffffff168273ffffffffffffffffffffffffffffffffffffffff16141515156119eb57600080fd5b6119f481610feb565b73ffffffffffffffffffffffffffffffffffffffff168273ffffffffffffffffffffffffffffffffffffffff1614151515611a2e57600080fd5b8273ffffffffffffffffffffffffffffffffffffffff16611a4e82610feb565b73ffffffffffffffffffffffffffffffffffffffff16141515611a7057600080fd5b611a7a8382612127565b611a848382612210565b611a8e8282612463565b8173ffffffffffffffffffffffffffffffffffffffff168373ffffffffffffffffffffffffffffffffffffffff167fddf252ad1be2c89b69c2b068fc378daa952ba7f163c4a11628f55a4df523b3ef83604051611aeb9190612e8d565b60405180910390a3505050565b611b0061260e565b6000806000611b0e85611914565b1515611b1957600080fd5b600d600086600019166000191681526020019081526020016000209250600c6000846000015481526020019081526020016000209150818360010154815481101515611b6157fe5b9060005260206000209060020201905080604080519081016040529081600082018054600181600116156101000203166002900480601f016020809104026020016040519081016040528092919081815260200182805460018160011615610100020316600290048015611c165780601f10611beb57610100808354040283529160200191611c16565b820191906000526020600020905b815481529060010190602001808311611bf957829003601f168201915b50505050508152602001600182018054600181600116156101000203166002900480601f016020809104026020016040519081016040528092919081815260200182805460018160011615610100020316600290048015611cb85780601f10611c8d57610100808354040283529160200191611cb8565b820191906000526020600020905b815481529060010190602001808311611c9b57829003601f168201915b5050505050815250509350505050919050565b6000611cd561260e565b600080600080611ce3612628565b611cec896125e1565b151515611cf857600080fd5b611d0189611fe1565b151515611d0d57600080fd5b60408051908101604052808a8152602001898152509550600c60008b815260200190815260200160002094508486908060018154018082558091505090600182039060005260206000209060020201600090919290919091506000820151816000019080519060200190611d8292919061264a565b506020820151816001019080519060200190611d9f92919061264a565b505050935060018403925084600c60008c8152602001908152602001600020908054611dcc9291906126ca565b50886040516020018082805190602001908083835b602083101515611e065780518252602082019150602081019050602083039250611de1565b6001836020036101000a0380198251168184511680821785525050505050509050019150506040516020818303038152906040526040518082805190602001908083835b602083101515611e6f5780518252602082019150602081019050602083039250611e4a565b6001836020036101000a038019825116818451168082178552505050505050905001915050604051809103902091506060604051908101604052808b815260200184815260200142815250905080600d60008460001916600019168152602001908152602001600020600082015181600001556020820151816001015560408201518160020155905050828a83600019167f1da7f4ef2e091b3f6bfdc7914d581d5bb58927f1ef1419a33b68b701f51fbfcf8c604051611f2f9190612e34565b60405180910390a48196505050505050509392505050565b600073ffffffffffffffffffffffffffffffffffffffff168273ffffffffffffffffffffffffffffffffffffffff1614151515611f8357600080fd5b611f8d8282612463565b8173ffffffffffffffffffffffffffffffffffffffff1660007fddf252ad1be2c89b69c2b068fc378daa952ba7f163c4a11628f55a4df523b3ef83604051611fd59190612e8d565b60405180910390a35050565b6000806000836040516020018082805190602001908083835b60208310151561201f5780518252602082019150602081019050602083039250611ffa565b6001836020036101000a0380198251168184511680821785525050505050509050019150506040516020818303038152906040526040518082805190602001908083835b6020831015156120885780518252602082019150602081019050602083039250612063565b6001836020036101000a03801982511681845116808217855250505050505090500191505060405180910390209150600d60008360001916600019168152602001908152602001600020905060008160020154141592505050919050565b60008273ffffffffffffffffffffffffffffffffffffffff1661210883611838565b73ffffffffffffffffffffffffffffffffffffffff1614905092915050565b8173ffffffffffffffffffffffffffffffffffffffff1661214782610feb565b73ffffffffffffffffffffffffffffffffffffffff1614151561216957600080fd5b60006003600083815260200190815260200160002060006101000a81548173ffffffffffffffffffffffffffffffffffffffff021916908373ffffffffffffffffffffffffffffffffffffffff16021790555060008273ffffffffffffffffffffffffffffffffffffffff167f8c5be1e5ebec7d5bd14f71427d1e84f3dd0314c0f7b2291e5b200ac8c7c3b925836040516122049190612e8d565b60405180910390a35050565b600080600060066000858152602001908152602001600020549250612247600161223987611163565b6125f590919063ffffffff16565b9150600560008673ffffffffffffffffffffffffffffffffffffffff1673ffffffffffffffffffffffffffffffffffffffff1681526020019081526020016000208281548110151561229557fe5b9060005260206000200154905060006002600086815260200190815260200160002060006101000a81548173ffffffffffffffffffffffffffffffffffffffff021916908373ffffffffffffffffffffffffffffffffffffffff16021790555080600560008773ffffffffffffffffffffffffffffffffffffffff1673ffffffffffffffffffffffffffffffffffffffff1681526020019081526020016000208481548110151561234257fe5b90600052602060002001819055506000600560008773ffffffffffffffffffffffffffffffffffffffff1673ffffffffffffffffffffffffffffffffffffffff1681526020019081526020016000208381548110151561239e57fe5b9060005260206000200181905550600560008673ffffffffffffffffffffffffffffffffffffffff1673ffffffffffffffffffffffffffffffffffffffff1681526020019081526020016000208054809190600190036123fe9190612772565b506000600660008681526020019081526020016000208190555082600660008381526020019081526020016000208190555060078490806001815401808255809150509060018203906000526020600020016000909192909190915055505050505050565b60008073ffffffffffffffffffffffffffffffffffffffff166002600084815260200190815260200160002060009054906101000a900473ffffffffffffffffffffffffffffffffffffffff1673ffffffffffffffffffffffffffffffffffffffff161415156124d257600080fd5b826002600084815260200190815260200160002060006101000a81548173ffffffffffffffffffffffffffffffffffffffff021916908373ffffffffffffffffffffffffffffffffffffffff16021790555061252d83611163565b9050600560008473ffffffffffffffffffffffffffffffffffffffff1673ffffffffffffffffffffffffffffffffffffffff1681526020019081526020016000208290806001815401808255809150509060018203906000526020600020016000909192909190915055508060066000848152602001908152602001600020819055506007829080600181540180825580915050906001820390600052602060002001600090919290919091505550505050565b600060608290506000815114915050919050565b600082821115151561260357fe5b818303905092915050565b604080519081016040528060608152602001606081525090565b6060604051908101604052806000815260200160008152602001600081525090565b828054600181600116156101000203166002900490600052602060002090601f016020900481019282601f1061268b57805160ff19168380011785556126b9565b828001600101855582156126b9579182015b828111156126b857825182559160200191906001019061269d565b5b5090506126c6919061279e565b5090565b8280548282559060005260206000209060020281019282156127615760005260206000209160020282015b82811115612760578282600082018160000190805460018160011615610100020316600290046127269291906127c3565b506001820181600101908054600181600116156101000203166002900461274e9291906127c3565b505050916002019190600201906126f5565b5b50905061276e919061284a565b5090565b81548183558181111561279957818360005260206000209182019101612798919061279e565b5b505050565b6127c091905b808211156127bc5760008160009055506001016127a4565b5090565b90565b828054600181600116156101000203166002900490600052602060002090601f016020900481019282601f106127fc5780548555612839565b8280016001018555821561283957600052602060002091601f016020900482015b8281111561283857825482559160010191906001019061281d565b5b509050612846919061279e565b5090565b61288691905b8082111561288257600080820160006128699190612889565b6001820160006128799190612889565b50600201612850565b5090565b90565b50805460018160011615610100020316600290046000825580601f106128af57506128ce565b601f0160209004906000526020600020908101906128cd919061279e565b5b50565b60006128dd8235612f48565b905092915050565b60006128f18235612f68565b905092915050565b60006129058235612f74565b905092915050565b60008083601f840112151561292157600080fd5b8235905067ffffffffffffffff81111561293a57600080fd5b60208301915083600182028301111561295257600080fd5b9250929050565b60006129658235612f7e565b905092915050565b60006020828403121561297f57600080fd5b600061298d848285016128d1565b91505092915050565b600080604083850312156129a957600080fd5b60006129b7858286016128d1565b92505060206129c8858286016128d1565b9150509250929050565b6000806000606084860312156129e757600080fd5b60006129f5868287016128d1565b9350506020612a06868287016128d1565b9250506040612a1786828701612959565b9150509250925092565b60008060408385031215612a3457600080fd5b6000612a42858286016128d1565b9250506020612a53858286016128e5565b9150509250929050565b60008060408385031215612a7057600080fd5b6000612a7e858286016128d1565b9250506020612a8f85828601612959565b9150509250929050565b600060208284031215612aab57600080fd5b6000612ab9848285016128f9565b91505092915050565b600080600080600060608688031215612ada57600080fd5b6000612ae8888289016128f9565b955050602086013567ffffffffffffffff811115612b0557600080fd5b612b118882890161290d565b9450945050604086013567ffffffffffffffff811115612b3057600080fd5b612b3c8882890161290d565b92509250509295509295909350565b60008060208385031215612b5e57600080fd5b600083013567ffffffffffffffff811115612b7857600080fd5b612b848582860161290d565b92509250509250929050565b60008060008060408587031215612ba657600080fd5b600085013567ffffffffffffffff811115612bc057600080fd5b612bcc8782880161290d565b9450945050602085013567ffffffffffffffff811115612beb57600080fd5b612bf78782880161290d565b925092505092959194509250565b600060208284031215612c1757600080fd5b6000612c2584828501612959565b91505092915050565b612c3781612f08565b82525050565b6000612c4882612ec2565b80845260208401935083602082028501612c6185612ea8565b60005b84811015612c9a578383038852612c7c838351612d5a565b9250612c8782612eee565b9150602088019750600181019050612c64565b508196508694505050505092915050565b6000612cb682612ecd565b808452602084019350612cc883612eb5565b60005b82811015612cfa57612cde868351612d90565b612ce782612efb565b9150602086019550600181019050612ccb565b50849250505092915050565b612d0f81612f28565b82525050565b612d1e81612f34565b82525050565b6000612d2f82612ee3565b808452612d43816020860160208601612f88565b612d4c81612fbb565b602085010191505092915050565b6000612d6582612ed8565b808452612d79816020860160208601612f88565b612d8281612fbb565b602085010191505092915050565b612d9981612f3e565b82525050565b6000602082019050612db46000830184612c2e565b92915050565b60006020820190508181036000830152612dd48184612c3d565b905092915050565b60006020820190508181036000830152612df68184612cab565b905092915050565b6000602082019050612e136000830184612d06565b92915050565b6000602082019050612e2e6000830184612d15565b92915050565b60006020820190508181036000830152612e4e8184612d24565b905092915050565b60006040820190508181036000830152612e708185612d24565b90508181036020830152612e848184612d24565b90509392505050565b6000602082019050612ea26000830184612d90565b92915050565b6000602082019050919050565b6000602082019050919050565b600081519050919050565b600081519050919050565b600081519050919050565b600081519050919050565b6000602082019050919050565b6000602082019050919050565b600073ffffffffffffffffffffffffffffffffffffffff82169050919050565b60008115159050919050565b6000819050919050565b6000819050919050565b600073ffffffffffffffffffffffffffffffffffffffff82169050919050565b60008115159050919050565b6000819050919050565b6000819050919050565b60005b83811015612fa6578082015181840152602081019050612f8b565b83811115612fb5576000848401525b50505050565b6000601f19601f83011690509190505600a265627a7a7230582000cc3b408cecc3733794bc0727ca64e228a36a0476b06a0872144e6093c71d626c6578706572696d656e74616cf50037",
  "source": "pragma solidity ^0.4.24;\npragma experimental ABIEncoderV2;\n\nimport './helpers/SafeMath.sol';\nimport \"./ERC721BasicToken.sol\";\nimport \"./Ownable.sol\";\n\ncontract AnchoringContract is Ownable, ERC721BasicTokenContract {\n    using SafeMath for uint256;\n    \n    struct Version {\n        string hash;\n        string description;\n    }\n    \n    struct DocumentReference {\n        uint256 documentId;\n        uint256 versionId;\n        uint256 createdAt;\n    }\n    \n    \n    uint256 docRefCounter = 0; // This will be used as unique auto incremented documentId \n    mapping(uint256 => Version[]) versionOf; // mapping(documentId => Version[])\n    mapping(bytes32 => DocumentReference) documentReference; // mapping(referenceId => DocumentReference)\n    \n    event DocumentSaved (\n        bytes32 indexed referenceId,\n        uint256 indexed documentId,\n        uint256 indexed versionId,\n        string hash\n    );\n\n    constructor(string _name, string _symbol) ERC721BasicTokenContract(_name, _symbol) public {\n            \n    }\n    /*\n        To save documnet in both create and update\n    */\n    function _save(uint256 documentId, string hash, string description) internal returns(bytes32) {\n        require(!_emptyString(hash));\n        require(!_hashExists(hash)); // throw error if hash already exists\n        \n        Version memory version = Version(hash, description);\n        Version[] storage versions = versionOf[documentId];\n        uint256 versionsLength = versions.push(version);\n        uint256 versionId = versionsLength - 1;\n        versionOf[documentId] = versions;\n        \n        //Convert hash of document into solidty-compatible bytes32 hash. This will be used as a transactionId (referenceId) for the document.\n        bytes32 referenceId = keccak256(abi.encodePacked(hash)); \n        DocumentReference memory reference = DocumentReference(documentId, versionId, now);\n        documentReference[referenceId] = reference;\n        emit DocumentSaved(referenceId, documentId, versionId, hash);\n        \n        return referenceId;\n    }\n\n    /*\n        Double check hash does not already exists. \n    */\n    function _hashExists(string hash) internal returns(bool) {\n        bytes32 referenceId = keccak256(abi.encodePacked(hash));\n        DocumentReference storage targetDocumentReference = documentReference[referenceId];\n        return targetDocumentReference.createdAt != 0;\n    }\n    \n    /*\n        Check given referenceId in query methods exists.\n        Just to check document track exists or not.\n    */\n    function _isReferenceExists(bytes32 referenceId) internal returns (bool) {\n        DocumentReference storage targetDocumentReference = documentReference[referenceId];\n        return targetDocumentReference.createdAt != 0;\n    }\n    \n    function _emptyString(string input) internal returns(bool) {\n        bytes memory tempEmptyStringTest = bytes(input); // Uses memory\n        return tempEmptyStringTest.length == 0;\n    }\n    \n    /*\n        Get version details(hash, description) by referenceId of that version.\n    */\n    function _getByReferenceId(bytes32 referenceId) internal view returns(Version) {\n        require(_isReferenceExists(referenceId));\n        \n        DocumentReference storage targetDocumentReference = documentReference[referenceId];\n        Version[] storage versions = versionOf[targetDocumentReference.documentId];\n        Version storage targetVersion = versions[targetDocumentReference.versionId];\n        \n        return targetVersion;\n    }\n    \n    /*\n        Create a track of new document and return referenceId which can be used to check track of that document.\n    */\n    function createDocument(string hash, string description) external onlyOwner returns(bytes32) {\n        bytes32 referenceId = _save(docRefCounter, hash, description);\n        _mint(msg.sender, docRefCounter);\n        docRefCounter = docRefCounter + 1;\n\n        return referenceId;\n    }\n\n    /*\n        Accept referenceId of any previous track of a document and save the new version of that document using given data.\n    */\n    function updateDocument(bytes32 referenceId, string hash, string description) external onlyOwner returns(bytes32) {\n        uint256 documentId = documentReference[referenceId].documentId;\n        return _save(documentId, hash, description);\n    }\n    \n    /*\n        Accept a hash of any version of a document and return a list of hashes containing all versions hashes of that document.\n    */\n    function getAllByHash(string hash) external view returns(string[]) {\n        require(_hashExists(hash));\n        \n        //Convert hash of document into solidty-compatible bytes32 hash. This will be used as a transactionId (referenceId) for the document.\n        bytes32 referenceId =  keccak256(abi.encodePacked(hash));\n        \n        return getAllByReferenceId(referenceId);\n    }\n    \n    /*\n        Accept a referenceId of any version of a document and return hash of that version.\n        * referenceId get in response of create/update document.\n    */\n    function getHashByReferenceId(bytes32 referenceId) external view returns(string) {\n        return _getByReferenceId(referenceId).hash;\n    }\n    \n    /*\n        Accept a referenceId of any version of a document and return hash and description of that version. \n        * referenceId get in response of create/update document.\n    */\n    function getByReferenceId(bytes32 referenceId) external view returns(string, string) {\n        require(_isReferenceExists(referenceId));\n        \n        Version memory targetVersion = _getByReferenceId(referenceId);\n        \n        return (targetVersion.hash, targetVersion.description);\n    }\n    \n    /*\n        Double check hash does not already exists for error handling.\n    */\n    \n    function hashExists(string hash) external view returns(bool) {\n        return _hashExists(hash);\n    }\n    \n    /*\n        Check given referenceId in query methods exists.\n        Just to check document track exists or not.\n    */\n    function isReferenceExists(bytes32 referenceId) external returns (bool) {\n        return _isReferenceExists(referenceId);\n    }\n    \n    /*\n        Accept a referenceId of any version of a document and return a list of hashes containing all versions hashes of that document.\n        * referenceId get in response of create/update document.\n    */\n    function getAllByReferenceId(bytes32 referenceId) public view returns(string[]) {\n        require(_isReferenceExists(referenceId));\n        \n        DocumentReference storage targetDocumentReference = documentReference[referenceId];\n        Version[] storage versions = versionOf[targetDocumentReference.documentId];\n        string[] memory hashList = new string[](versions.length);\n        for(uint256 i = 0; i < versions.length; i++) {\n            hashList[i] = versions[i].hash;\n        }\n        \n        return hashList;\n    }\n    \n}",
  "sourcePath": "/home/ubuntu/contracts/contracts/Anchoring.sol",
  "compiler": {
    "name": "solc",
    "version": "0.4.26+commit.4563c3fc.Emscripten.clang"
  },
  "schemaVersion": "2.0.3",
  "updatedAt": "2020-09-18T10:48:53.275Z"
}