{
  "contractName": "BAMBillOfLadingContract",
  "abi": [
    {
      "constant": true,
      "inputs": [
        {
          "name": "_billId",
          "type": "uint256"
        }
      ],
      "name": "getBillCompanyId",
      "outputs": [
        {
          "name": "companyId",
          "type": "string"
        }
      ],
      "payable": false,
      "stateMutability": "view",
      "type": "function"
    },
    {
      "constant": false,
      "inputs": [
        {
          "name": "_to",
          "type": "address"
        }
      ],
      "name": "approveAll",
      "outputs": [],
      "payable": false,
      "stateMutability": "nonpayable",
      "type": "function"
    },
    {
      "constant": true,
      "inputs": [],
      "name": "name",
      "outputs": [
        {
          "name": "",
          "type": "string"
        }
      ],
      "payable": false,
      "stateMutability": "view",
      "type": "function"
    },
    {
      "constant": false,
      "inputs": [
        {
          "name": "_to",
          "type": "address"
        },
        {
          "name": "_tokenId",
          "type": "uint256"
        }
      ],
      "name": "approve",
      "outputs": [],
      "payable": false,
      "stateMutability": "nonpayable",
      "type": "function"
    },
    {
      "constant": true,
      "inputs": [],
      "name": "assetToken",
      "outputs": [
        {
          "name": "",
          "type": "address"
        }
      ],
      "payable": false,
      "stateMutability": "view",
      "type": "function"
    },
    {
      "constant": true,
      "inputs": [],
      "name": "totalSupply",
      "outputs": [
        {
          "name": "",
          "type": "uint256"
        }
      ],
      "payable": false,
      "stateMutability": "view",
      "type": "function"
    },
    {
      "constant": false,
      "inputs": [
        {
          "name": "_from",
          "type": "address"
        },
        {
          "name": "_to",
          "type": "address"
        },
        {
          "name": "_tokenId",
          "type": "uint256"
        }
      ],
      "name": "transferFrom",
      "outputs": [],
      "payable": false,
      "stateMutability": "nonpayable",
      "type": "function"
    },
    {
      "constant": true,
      "inputs": [
        {
          "name": "",
          "type": "uint256"
        }
      ],
      "name": "bills",
      "outputs": [
        {
          "name": "carrier_address",
          "type": "address"
        },
        {
          "name": "companyId",
          "type": "string"
        },
        {
          "name": "quoteId",
          "type": "string"
        }
      ],
      "payable": false,
      "stateMutability": "view",
      "type": "function"
    },
    {
      "constant": true,
      "inputs": [
        {
          "name": "_owner",
          "type": "address"
        },
        {
          "name": "_index",
          "type": "uint256"
        }
      ],
      "name": "tokenOfOwnerByIndex",
      "outputs": [
        {
          "name": "",
          "type": "uint256"
        }
      ],
      "payable": false,
      "stateMutability": "view",
      "type": "function"
    },
    {
      "constant": true,
      "inputs": [
        {
          "name": "_billId",
          "type": "uint256"
        }
      ],
      "name": "getBillQuoteId",
      "outputs": [
        {
          "name": "quoteId",
          "type": "string"
        }
      ],
      "payable": false,
      "stateMutability": "view",
      "type": "function"
    },
    {
      "constant": true,
      "inputs": [
        {
          "name": "_billId",
          "type": "uint256"
        }
      ],
      "name": "getBillCarrierAddress",
      "outputs": [
        {
          "name": "carrier_address",
          "type": "address"
        }
      ],
      "payable": false,
      "stateMutability": "view",
      "type": "function"
    },
    {
      "constant": true,
      "inputs": [
        {
          "name": "_index",
          "type": "uint256"
        }
      ],
      "name": "tokenByIndex",
      "outputs": [
        {
          "name": "",
          "type": "uint256"
        }
      ],
      "payable": false,
      "stateMutability": "view",
      "type": "function"
    },
    {
      "constant": false,
      "inputs": [
        {
          "name": "_to",
          "type": "address"
        }
      ],
      "name": "disapproveAll",
      "outputs": [],
      "payable": false,
      "stateMutability": "nonpayable",
      "type": "function"
    },
    {
      "constant": true,
      "inputs": [
        {
          "name": "_billId",
          "type": "uint256"
        }
      ],
      "name": "getBillInfo",
      "outputs": [
        {
          "name": "quoteId",
          "type": "string"
        },
        {
          "name": "carrier_address",
          "type": "address"
        },
        {
          "components": [
            {
              "name": "id",
              "type": "uint256"
            },
            {
              "name": "quantity",
              "type": "uint256"
            },
            {
              "name": "price",
              "type": "uint256"
            },
            {
              "name": "weight",
              "type": "uint256"
            },
            {
              "name": "detail",
              "type": "string"
            }
          ],
          "name": "items",
          "type": "tuple[]"
        }
      ],
      "payable": false,
      "stateMutability": "view",
      "type": "function"
    },
    {
      "constant": true,
      "inputs": [
        {
          "name": "_owner",
          "type": "address"
        }
      ],
      "name": "tokensOf",
      "outputs": [
        {
          "name": "",
          "type": "uint256[]"
        }
      ],
      "payable": false,
      "stateMutability": "view",
      "type": "function"
    },
    {
      "constant": true,
      "inputs": [
        {
          "name": "_tokenId",
          "type": "uint256"
        }
      ],
      "name": "ownerOf",
      "outputs": [
        {
          "name": "",
          "type": "address"
        }
      ],
      "payable": false,
      "stateMutability": "view",
      "type": "function"
    },
    {
      "constant": true,
      "inputs": [
        {
          "name": "_owner",
          "type": "address"
        }
      ],
      "name": "balanceOf",
      "outputs": [
        {
          "name": "",
          "type": "uint256"
        }
      ],
      "payable": false,
      "stateMutability": "view",
      "type": "function"
    },
    {
      "constant": false,
      "inputs": [],
      "name": "acceptOwnership",
      "outputs": [],
      "payable": false,
      "stateMutability": "nonpayable",
      "type": "function"
    },
    {
      "constant": true,
      "inputs": [],
      "name": "getTokenSaleAddress",
      "outputs": [
        {
          "name": "",
          "type": "address"
        }
      ],
      "payable": false,
      "stateMutability": "view",
      "type": "function"
    },
    {
      "constant": true,
      "inputs": [],
      "name": "owner",
      "outputs": [
        {
          "name": "",
          "type": "address"
        }
      ],
      "payable": false,
      "stateMutability": "view",
      "type": "function"
    },
    {
      "constant": true,
      "inputs": [],
      "name": "symbol",
      "outputs": [
        {
          "name": "",
          "type": "string"
        }
      ],
      "payable": false,
      "stateMutability": "view",
      "type": "function"
    },
    {
      "constant": false,
      "inputs": [
        {
          "name": "_to",
          "type": "address"
        },
        {
          "name": "_approved",
          "type": "bool"
        }
      ],
      "name": "setApprovalForAll",
      "outputs": [],
      "payable": false,
      "stateMutability": "nonpayable",
      "type": "function"
    },
    {
      "constant": false,
      "inputs": [
        {
          "name": "_to",
          "type": "address"
        },
        {
          "name": "_tokenId",
          "type": "uint256"
        }
      ],
      "name": "transfer",
      "outputs": [],
      "payable": false,
      "stateMutability": "nonpayable",
      "type": "function"
    },
    {
      "constant": false,
      "inputs": [
        {
          "name": "_tokenId",
          "type": "uint256"
        }
      ],
      "name": "takeOwnership",
      "outputs": [],
      "payable": false,
      "stateMutability": "nonpayable",
      "type": "function"
    },
    {
      "constant": true,
      "inputs": [],
      "name": "newOwner",
      "outputs": [
        {
          "name": "",
          "type": "address"
        }
      ],
      "payable": false,
      "stateMutability": "view",
      "type": "function"
    },
    {
      "constant": true,
      "inputs": [
        {
          "name": "_billId",
          "type": "uint256"
        }
      ],
      "name": "getBillItems",
      "outputs": [
        {
          "components": [
            {
              "name": "id",
              "type": "uint256"
            },
            {
              "name": "quantity",
              "type": "uint256"
            },
            {
              "name": "price",
              "type": "uint256"
            },
            {
              "name": "weight",
              "type": "uint256"
            },
            {
              "name": "detail",
              "type": "string"
            }
          ],
          "name": "",
          "type": "tuple[]"
        }
      ],
      "payable": false,
      "stateMutability": "view",
      "type": "function"
    },
    {
      "constant": true,
      "inputs": [
        {
          "name": "_owner",
          "type": "address"
        },
        {
          "name": "_operator",
          "type": "address"
        }
      ],
      "name": "isApprovedForAll",
      "outputs": [
        {
          "name": "",
          "type": "bool"
        }
      ],
      "payable": false,
      "stateMutability": "view",
      "type": "function"
    },
    {
      "constant": true,
      "inputs": [
        {
          "name": "_tokenId",
          "type": "uint256"
        }
      ],
      "name": "getApprovedAddress",
      "outputs": [
        {
          "name": "",
          "type": "address"
        }
      ],
      "payable": false,
      "stateMutability": "view",
      "type": "function"
    },
    {
      "constant": false,
      "inputs": [
        {
          "name": "_newOwner",
          "type": "address"
        }
      ],
      "name": "transferOwnership",
      "outputs": [],
      "payable": false,
      "stateMutability": "nonpayable",
      "type": "function"
    },
    {
      "inputs": [
        {
          "name": "_name",
          "type": "string"
        },
        {
          "name": "_symbol",
          "type": "string"
        },
        {
          "name": "_tokenAddress",
          "type": "address"
        }
      ],
      "payable": false,
      "stateMutability": "nonpayable",
      "type": "constructor"
    },
    {
      "anonymous": false,
      "inputs": [
        {
          "indexed": true,
          "name": "_from",
          "type": "address"
        },
        {
          "indexed": true,
          "name": "_to",
          "type": "address"
        },
        {
          "indexed": false,
          "name": "_tokenId",
          "type": "uint256"
        }
      ],
      "name": "Transfer",
      "type": "event"
    },
    {
      "anonymous": false,
      "inputs": [
        {
          "indexed": true,
          "name": "_owner",
          "type": "address"
        },
        {
          "indexed": true,
          "name": "_approved",
          "type": "address"
        },
        {
          "indexed": false,
          "name": "_tokenId",
          "type": "uint256"
        }
      ],
      "name": "Approval",
      "type": "event"
    },
    {
      "anonymous": false,
      "inputs": [
        {
          "indexed": true,
          "name": "_owner",
          "type": "address"
        },
        {
          "indexed": true,
          "name": "_operator",
          "type": "address"
        },
        {
          "indexed": false,
          "name": "_approved",
          "type": "bool"
        }
      ],
      "name": "ApprovalForAll",
      "type": "event"
    },
    {
      "anonymous": false,
      "inputs": [
        {
          "indexed": true,
          "name": "carrier_address",
          "type": "address"
        },
        {
          "indexed": false,
          "name": "tokenId",
          "type": "uint256"
        },
        {
          "indexed": false,
          "name": "quoteId",
          "type": "string"
        }
      ],
      "name": "BillCreated",
      "type": "event"
    },
    {
      "anonymous": false,
      "inputs": [
        {
          "indexed": true,
          "name": "_from",
          "type": "address"
        },
        {
          "indexed": true,
          "name": "_to",
          "type": "address"
        }
      ],
      "name": "OwnershipTransferred",
      "type": "event"
    },
    {
      "constant": true,
      "inputs": [
        {
          "name": "_comapnyId",
          "type": "string"
        }
      ],
      "name": "hasBAMAccess",
      "outputs": [
        {
          "name": "",
          "type": "bool"
        }
      ],
      "payable": false,
      "stateMutability": "view",
      "type": "function"
    },
    {
      "constant": false,
      "inputs": [
        {
          "name": "_tokenAddress",
          "type": "address"
        }
      ],
      "name": "setTokenAddress",
      "outputs": [
        {
          "name": "",
          "type": "address"
        }
      ],
      "payable": false,
      "stateMutability": "nonpayable",
      "type": "function"
    },
    {
      "constant": true,
      "inputs": [],
      "name": "getTokenAddress",
      "outputs": [
        {
          "name": "",
          "type": "address"
        }
      ],
      "payable": false,
      "stateMutability": "view",
      "type": "function"
    },
    {
      "constant": false,
      "inputs": [
        {
          "name": "quoteId",
          "type": "string"
        },
        {
          "name": "_companyId",
          "type": "string"
        }
      ],
      "name": "createBill",
      "outputs": [
        {
          "name": "_tokenId",
          "type": "uint256"
        }
      ],
      "payable": false,
      "stateMutability": "nonpayable",
      "type": "function"
    },
    {
      "constant": false,
      "inputs": [
        {
          "name": "_billId",
          "type": "uint256"
        },
        {
          "components": [
            {
              "name": "id",
              "type": "uint256"
            },
            {
              "name": "quantity",
              "type": "uint256"
            },
            {
              "name": "price",
              "type": "uint256"
            },
            {
              "name": "weight",
              "type": "uint256"
            },
            {
              "name": "detail",
              "type": "string"
            }
          ],
          "name": "item",
          "type": "tuple"
        }
      ],
      "name": "addItem",
      "outputs": [
        {
          "components": [
            {
              "name": "id",
              "type": "uint256"
            },
            {
              "name": "quantity",
              "type": "uint256"
            },
            {
              "name": "price",
              "type": "uint256"
            },
            {
              "name": "weight",
              "type": "uint256"
            },
            {
              "name": "detail",
              "type": "string"
            }
          ],
          "name": "",
          "type": "tuple[]"
        }
      ],
      "payable": false,
      "stateMutability": "nonpayable",
      "type": "function"
    }
  ],
  "bytecode": "0x60806040523480156200001157600080fd5b50604051620038ea380380620038ea83398101806040526200003791908101906200021a565b8282336000806101000a81548173ffffffffffffffffffffffffffffffffffffffff021916908373ffffffffffffffffffffffffffffffffffffffff160217905550816009908051906020019062000091929190620000f7565b5080600a9080519060200190620000aa929190620000f7565b50505080600c60006101000a81548173ffffffffffffffffffffffffffffffffffffffff021916908373ffffffffffffffffffffffffffffffffffffffff16021790555050505062000367565b828054600181600116156101000203166002900490600052602060002090601f016020900481019282601f106200013a57805160ff19168380011785556200016b565b828001600101855582156200016b579182015b828111156200016a5782518255916020019190600101906200014d565b5b5090506200017a91906200017e565b5090565b620001a391905b808211156200019f57600081600090555060010162000185565b5090565b90565b6000620001b482516200031d565b905092915050565b600082601f8301121515620001d057600080fd5b8151620001e7620001e182620002d0565b620002a2565b915080825260208301602083018583830111156200020457600080fd5b6200021183828462000331565b50505092915050565b6000806000606084860312156200023057600080fd5b600084015167ffffffffffffffff8111156200024b57600080fd5b6200025986828701620001bc565b935050602084015167ffffffffffffffff8111156200027757600080fd5b6200028586828701620001bc565b92505060406200029886828701620001a6565b9150509250925092565b6000604051905081810181811067ffffffffffffffff82111715620002c657600080fd5b8060405250919050565b600067ffffffffffffffff821115620002e857600080fd5b601f19601f8301169050602081019050919050565b600073ffffffffffffffffffffffffffffffffffffffff82169050919050565b60006200032a82620002fd565b9050919050565b60005b838110156200035157808201518184015260208101905062000334565b8381111562000361576000848401525b50505050565b61357380620003776000396000f3006080604052600436106101ac576000357c0100000000000000000000000000000000000000000000000000000000900463ffffffff16806302039b47146101b15780630621472c146101ee57806306fdde0314610217578063095ea7b3146102425780631083f7611461026b57806310fe9ae81461029657806318160ddd146102c157806323b872dd146102ec57806326a4e8d21461031557806328bdcde8146103525780632f745c59146103915780632ff7dbc3146103ce57806339e5a3141461040b5780634f6ccce71461044857806351dabd451461048557806352f61b05146104ae5780635a3f2672146104ed5780636352211e1461052a57806370a082311461056757806379ba5097146105a457806379fb97e8146105bb5780638da5cb5b146105e657806395d89b41146106115780639e701b561461063c578063a22cb46514610679578063a9059cbb146106a2578063af5530b5146106cb578063b2e6ceeb14610708578063d2f7cccc14610731578063d4ee1d901461076e578063df5ef88d14610799578063e985e9c5146107d6578063eca4742a14610813578063f2fde38b14610850575b600080fd5b3480156101bd57600080fd5b506101d860048036036101d39190810190612f51565b610879565b6040516101e591906132bf565b60405180910390f35b3480156101fa57600080fd5b5061021560048036036102109190810190612d26565b61093b565b005b34801561022357600080fd5b5061022c610ab0565b60405161023991906132bf565b60405180910390f35b34801561024e57600080fd5b5061026960048036036102649190810190612e16565b610b52565b005b34801561027757600080fd5b50610280610ce5565b60405161028d91906132a4565b60405180910390f35b3480156102a257600080fd5b506102ab610d0b565b6040516102b891906132a4565b60405180910390f35b3480156102cd57600080fd5b506102d6610d35565b6040516102e39190613326565b60405180910390f35b3480156102f857600080fd5b50610313600480360361030e9190810190612d8b565b610d42565b005b34801561032157600080fd5b5061033c60048036036103379190810190612e7b565b610db0565b60405161034991906131b5565b60405180910390f35b34801561035e57600080fd5b5061037960048036036103749190810190612f51565b610eb4565b60405161038893929190613200565b60405180910390f35b34801561039d57600080fd5b506103b860048036036103b39190810190612e16565b61103d565b6040516103c59190613326565b60405180910390f35b3480156103da57600080fd5b506103f560048036036103f09190810190612f51565b6110b4565b60405161040291906132bf565b60405180910390f35b34801561041757600080fd5b50610432600480360361042d9190810190612f51565b611176565b60405161043f91906131b5565b60405180910390f35b34801561045457600080fd5b5061046f600480360361046a9190810190612f51565b6111c0565b60405161047c9190613326565b60405180910390f35b34801561049157600080fd5b506104ac60048036036104a79190810190612d26565b6111df565b005b3480156104ba57600080fd5b506104d560048036036104d09190810190612f51565b61130f565b6040516104e4939291906132e1565b60405180910390f35b3480156104f957600080fd5b50610514600480360361050f9190810190612d26565b611563565b6040516105219190613267565b60405180910390f35b34801561053657600080fd5b50610551600480360361054c9190810190612f51565b611636565b60405161055e91906131b5565b60405180910390f35b34801561057357600080fd5b5061058e60048036036105899190810190612d26565b6116b4565b60405161059b9190613326565b60405180910390f35b3480156105b057600080fd5b506105b961173b565b005b3480156105c757600080fd5b506105d06118da565b6040516105dd91906131b5565b60405180910390f35b3480156105f257600080fd5b506105fb611904565b60405161060891906131b5565b60405180910390f35b34801561061d57600080fd5b50610626611929565b60405161063391906132bf565b60405180910390f35b34801561064857600080fd5b50610663600480360361065e9190810190612ee5565b6119cb565b6040516106709190613326565b60405180910390f35b34801561068557600080fd5b506106a0600480360361069b9190810190612dda565b611b01565b005b3480156106ae57600080fd5b506106c960048036036106c49190810190612e16565b611b23565b005b3480156106d757600080fd5b506106f260048036036106ed9190810190612f7a565b611b76565b6040516106ff9190613245565b60405180910390f35b34801561071457600080fd5b5061072f600480360361072a9190810190612f51565b611d83565b005b34801561073d57600080fd5b5061075860048036036107539190810190612ea4565b611dad565b6040516107659190613289565b60405180910390f35b34801561077a57600080fd5b50610783611e81565b60405161079091906131b5565b60405180910390f35b3480156107a557600080fd5b506107c060048036036107bb9190810190612f51565b611ea7565b6040516107cd9190613245565b60405180910390f35b3480156107e257600080fd5b506107fd60048036036107f89190810190612d4f565b611ff1565b60405161080a9190613289565b60405180910390f35b34801561081f57600080fd5b5061083a60048036036108359190810190612f51565b612085565b60405161084791906131b5565b60405180910390f35b34801561085c57600080fd5b5061087760048036036108729190810190612d26565b6120c2565b005b606060028281548110151561088a57fe5b90600052602060002090600402016002018054600181600116156101000203166002900480601f01602080910402602001604051908101604052809291908181526020018280546001816001161561010002031660029004801561092f5780601f106109045761010080835404028352916020019161092f565b820191906000526020600020905b81548152906001019060200180831161091257829003601f168201915b50505050509050919050565b3373ffffffffffffffffffffffffffffffffffffffff168173ffffffffffffffffffffffffffffffffffffffff161415151561097657600080fd5b600073ffffffffffffffffffffffffffffffffffffffff168173ffffffffffffffffffffffffffffffffffffffff16141515156109b257600080fd5b6001600560003373ffffffffffffffffffffffffffffffffffffffff1673ffffffffffffffffffffffffffffffffffffffff16815260200190815260200160002060008373ffffffffffffffffffffffffffffffffffffffff1673ffffffffffffffffffffffffffffffffffffffff16815260200190815260200160002060006101000a81548160ff0219169083151502179055508073ffffffffffffffffffffffffffffffffffffffff163373ffffffffffffffffffffffffffffffffffffffff167f17307eab39ab6107e8899845ad3d59bd9653f200f220920489ca2b5937696c316001604051610aa59190613289565b60405180910390a350565b606060098054600181600116156101000203166002900480601f016020809104026020016040519081016040528092919081815260200182805460018160011615610100020316600290048015610b485780601f10610b1d57610100808354040283529160200191610b48565b820191906000526020600020905b815481529060010190602001808311610b2b57829003601f168201915b5050505050905090565b6000813373ffffffffffffffffffffffffffffffffffffffff16610b7582611636565b73ffffffffffffffffffffffffffffffffffffffff16141515610b9757600080fd5b610ba083611636565b91508173ffffffffffffffffffffffffffffffffffffffff168473ffffffffffffffffffffffffffffffffffffffff1614151515610bdd57600080fd5b6000610be884612085565b73ffffffffffffffffffffffffffffffffffffffff16141580610c22575060008473ffffffffffffffffffffffffffffffffffffffff1614155b15610cdf57836004600085815260200190815260200160002060006101000a81548173ffffffffffffffffffffffffffffffffffffffff021916908373ffffffffffffffffffffffffffffffffffffffff1602179055508373ffffffffffffffffffffffffffffffffffffffff168273ffffffffffffffffffffffffffffffffffffffff167f8c5be1e5ebec7d5bd14f71427d1e84f3dd0314c0f7b2291e5b200ac8c7c3b92585604051610cd69190613326565b60405180910390a35b50505050565b600c60009054906101000a900473ffffffffffffffffffffffffffffffffffffffff1681565b6000600c60009054906101000a900473ffffffffffffffffffffffffffffffffffffffff16905090565b6000600880549050905090565b610d4b81612161565b1515610d5657600080fd5b8273ffffffffffffffffffffffffffffffffffffffff16610d7682611636565b73ffffffffffffffffffffffffffffffffffffffff16141515610d9857600080fd5b610dab610da482611636565b83836121cb565b505050565b60008060009054906101000a900473ffffffffffffffffffffffffffffffffffffffff1673ffffffffffffffffffffffffffffffffffffffff163373ffffffffffffffffffffffffffffffffffffffff16141515610e0d57600080fd5b600073ffffffffffffffffffffffffffffffffffffffff168273ffffffffffffffffffffffffffffffffffffffff1614151515610e4957600080fd5b81600c60006101000a81548173ffffffffffffffffffffffffffffffffffffffff021916908373ffffffffffffffffffffffffffffffffffffffff160217905550600c60009054906101000a900473ffffffffffffffffffffffffffffffffffffffff169050919050565b600281815481101515610ec357fe5b90600052602060002090600402016000915090508060010160009054906101000a900473ffffffffffffffffffffffffffffffffffffffff1690806002018054600181600116156101000203166002900480601f016020809104026020016040519081016040528092919081815260200182805460018160011615610100020316600290048015610f955780601f10610f6a57610100808354040283529160200191610f95565b820191906000526020600020905b815481529060010190602001808311610f7857829003601f168201915b505050505090806003018054600181600116156101000203166002900480601f0160208091040260200160405190810160405280929190818152602001828054600181600116156101000203166002900480156110335780601f1061100857610100808354040283529160200191611033565b820191906000526020600020905b81548152906001019060200180831161101657829003601f168201915b5050505050905083565b6000611048836116b4565b8210151561105557600080fd5b600660008473ffffffffffffffffffffffffffffffffffffffff1673ffffffffffffffffffffffffffffffffffffffff168152602001908152602001600020828154811015156110a157fe5b9060005260206000200154905092915050565b60606002828154811015156110c557fe5b90600052602060002090600402016003018054600181600116156101000203166002900480601f01602080910402602001604051908101604052809291908181526020018280546001816001161561010002031660029004801561116a5780601f1061113f5761010080835404028352916020019161116a565b820191906000526020600020905b81548152906001019060200180831161114d57829003601f168201915b50505050509050919050565b600060028281548110151561118757fe5b906000526020600020906004020160010160009054906101000a900473ffffffffffffffffffffffffffffffffffffffff169050919050565b60006111ca610d35565b821015156111d757600080fd5b819050919050565b3373ffffffffffffffffffffffffffffffffffffffff168173ffffffffffffffffffffffffffffffffffffffff161415151561121a57600080fd5b600560003373ffffffffffffffffffffffffffffffffffffffff1673ffffffffffffffffffffffffffffffffffffffff16815260200190815260200160002060008273ffffffffffffffffffffffffffffffffffffffff1673ffffffffffffffffffffffffffffffffffffffff16815260200190815260200160002060006101000a81549060ff02191690558073ffffffffffffffffffffffffffffffffffffffff163373ffffffffffffffffffffffffffffffffffffffff167f17307eab39ab6107e8899845ad3d59bd9653f200f220920489ca2b5937696c3160006040516113049190613289565b60405180910390a350565b60606000606060028481548110151561132457fe5b906000526020600020906004020160030160028581548110151561134457fe5b906000526020600020906004020160010160009054906101000a900473ffffffffffffffffffffffffffffffffffffffff1660028681548110151561138557fe5b9060005260206000209060040201600001828054600181600116156101000203166002900480601f01602080910402602001604051908101604052809291908181526020018280546001816001161561010002031660029004801561142b5780601f106114005761010080835404028352916020019161142b565b820191906000526020600020905b81548152906001019060200180831161140e57829003601f168201915b5050505050925080805480602002602001604051908101604052809291908181526020016000905b82821015611550578382906000526020600020906005020160a0604051908101604052908160008201548152602001600182015481526020016002820154815260200160038201548152602001600482018054600181600116156101000203166002900480601f0160208091040260200160405190810160405280929190818152602001828054600181600116156101000203166002900480156115385780601f1061150d57610100808354040283529160200191611538565b820191906000526020600020905b81548152906001019060200180831161151b57829003601f168201915b50505050508152505081526020019060010190611453565b5050505090509250925092509193909250565b6060600073ffffffffffffffffffffffffffffffffffffffff168273ffffffffffffffffffffffffffffffffffffffff16141515156115a157600080fd5b600660008373ffffffffffffffffffffffffffffffffffffffff1673ffffffffffffffffffffffffffffffffffffffff16815260200190815260200160002080548060200260200160405190810160405280929190818152602001828054801561162a57602002820191906000526020600020905b815481526020019060010190808311611616575b50505050509050919050565b6000806003600084815260200190815260200160002060009054906101000a900473ffffffffffffffffffffffffffffffffffffffff169050600073ffffffffffffffffffffffffffffffffffffffff168173ffffffffffffffffffffffffffffffffffffffff16141515156116ab57600080fd5b80915050919050565b60008073ffffffffffffffffffffffffffffffffffffffff168273ffffffffffffffffffffffffffffffffffffffff16141515156116f157600080fd5b600660008373ffffffffffffffffffffffffffffffffffffffff1673ffffffffffffffffffffffffffffffffffffffff168152602001908152602001600020805490509050919050565b600160009054906101000a900473ffffffffffffffffffffffffffffffffffffffff1673ffffffffffffffffffffffffffffffffffffffff163373ffffffffffffffffffffffffffffffffffffffff1614151561179757600080fd5b600160009054906101000a900473ffffffffffffffffffffffffffffffffffffffff1673ffffffffffffffffffffffffffffffffffffffff166000809054906101000a900473ffffffffffffffffffffffffffffffffffffffff1673ffffffffffffffffffffffffffffffffffffffff167f8be0079c531659141344cd1fd0a4f28419497f9722a3daafe3b4186f6b6457e060405160405180910390a3600160009054906101000a900473ffffffffffffffffffffffffffffffffffffffff166000806101000a81548173ffffffffffffffffffffffffffffffffffffffff021916908373ffffffffffffffffffffffffffffffffffffffff1602179055506000600160006101000a81548173ffffffffffffffffffffffffffffffffffffffff021916908373ffffffffffffffffffffffffffffffffffffffff160217905550565b6000600b60009054906101000a900473ffffffffffffffffffffffffffffffffffffffff16905090565b6000809054906101000a900473ffffffffffffffffffffffffffffffffffffffff1681565b6060600a8054600181600116156101000203166002900480601f0160208091040260200160405190810160405280929190818152602001828054600181600116156101000203166002900480156119c15780601f10611996576101008083540402835291602001916119c1565b820191906000526020600020905b8154815290600101906020018083116119a457829003601f168201915b5050505050905090565b600080826119d881611dad565b15156119e357600080fd5b600280548091906001016119f791906128c2565b506002600160028054905003815481101515611a0f57fe5b9060005260206000209060040201915084826003019080519060200190611a379291906128f4565b50338260010160006101000a81548173ffffffffffffffffffffffffffffffffffffffff021916908373ffffffffffffffffffffffffffffffffffffffff16021790555083826002019080519060200190611a939291906128f4565b506001600280549050039250611aa93384612314565b3373ffffffffffffffffffffffffffffffffffffffff167f05ce6eeabf9b04559d622b91fdeb1361f32164145d1842d1f2ddbe86536762d28487604051611af1929190613341565b60405180910390a2505092915050565b8015611b1557611b108261093b565b611b1f565b611b1e826111df565b5b5050565b803373ffffffffffffffffffffffffffffffffffffffff16611b4482611636565b73ffffffffffffffffffffffffffffffffffffffff16141515611b6657600080fd5b611b713384846121cb565b505050565b60606000833373ffffffffffffffffffffffffffffffffffffffff16611b9b82611636565b73ffffffffffffffffffffffffffffffffffffffff16141515611bbd57600080fd5b600285815481101515611bcc57fe5b90600052602060002090600402019150816000018490806001815401808255809150509060018203906000526020600020906005020160009091929091909150600082015181600001556020820151816001015560408201518160020155606082015181600301556080820151816004019080519060200190611c50929190612974565b5050505081600001805480602002602001604051908101604052809291908181526020016000905b82821015611d75578382906000526020600020906005020160a0604051908101604052908160008201548152602001600182015481526020016002820154815260200160038201548152602001600482018054600181600116156101000203166002900480601f016020809104026020016040519081016040528092919081815260200182805460018160011615610100020316600290048015611d5d5780601f10611d3257610100808354040283529160200191611d5d565b820191906000526020600020905b815481529060010190602001808311611d4057829003601f168201915b50505050508152505081526020019060010190611c78565b505050509250505092915050565b611d8c81612161565b1515611d9757600080fd5b611daa611da382611636565b33836121cb565b50565b6000600c60009054906101000a900473ffffffffffffffffffffffffffffffffffffffff1673ffffffffffffffffffffffffffffffffffffffff16630a3f5b6e33846040518363ffffffff167c0100000000000000000000000000000000000000000000000000000000028152600401611e289291906131d0565b602060405180830381600087803b158015611e4257600080fd5b505af1158015611e56573d6000803e3d6000fd5b505050506040513d601f19601f82011682018060405250611e7a9190810190612e52565b9050919050565b600160009054906101000a900473ffffffffffffffffffffffffffffffffffffffff1681565b6060600282815481101515611eb857fe5b9060005260206000209060040201600001805480602002602001604051908101604052809291908181526020016000905b82821015611fe6578382906000526020600020906005020160a0604051908101604052908160008201548152602001600182015481526020016002820154815260200160038201548152602001600482018054600181600116156101000203166002900480601f016020809104026020016040519081016040528092919081815260200182805460018160011615610100020316600290048015611fce5780601f10611fa357610100808354040283529160200191611fce565b820191906000526020600020905b815481529060010190602001808311611fb157829003601f168201915b50505050508152505081526020019060010190611ee9565b505050509050919050565b6000600560008473ffffffffffffffffffffffffffffffffffffffff1673ffffffffffffffffffffffffffffffffffffffff16815260200190815260200160002060008373ffffffffffffffffffffffffffffffffffffffff1673ffffffffffffffffffffffffffffffffffffffff16815260200190815260200160002060009054906101000a900460ff16905092915050565b60006004600083815260200190815260200160002060009054906101000a900473ffffffffffffffffffffffffffffffffffffffff169050919050565b6000809054906101000a900473ffffffffffffffffffffffffffffffffffffffff1673ffffffffffffffffffffffffffffffffffffffff163373ffffffffffffffffffffffffffffffffffffffff1614151561211d57600080fd5b80600160006101000a81548173ffffffffffffffffffffffffffffffffffffffff021916908373ffffffffffffffffffffffffffffffffffffffff16021790555050565b60003373ffffffffffffffffffffffffffffffffffffffff1661218383611636565b73ffffffffffffffffffffffffffffffffffffffff1614806121ab57506121aa33836123ae565b5b806121c457506121c36121bd83611636565b33611ff1565b5b9050919050565b600073ffffffffffffffffffffffffffffffffffffffff168273ffffffffffffffffffffffffffffffffffffffff161415151561220757600080fd5b61221081611636565b73ffffffffffffffffffffffffffffffffffffffff168273ffffffffffffffffffffffffffffffffffffffff161415151561224a57600080fd5b8273ffffffffffffffffffffffffffffffffffffffff1661226a82611636565b73ffffffffffffffffffffffffffffffffffffffff1614151561228c57600080fd5b61229683826123ef565b6122a083826124d8565b6122aa828261272b565b8173ffffffffffffffffffffffffffffffffffffffff168373ffffffffffffffffffffffffffffffffffffffff167fddf252ad1be2c89b69c2b068fc378daa952ba7f163c4a11628f55a4df523b3ef836040516123079190613326565b60405180910390a3505050565b600073ffffffffffffffffffffffffffffffffffffffff168273ffffffffffffffffffffffffffffffffffffffff161415151561235057600080fd5b61235a828261272b565b8173ffffffffffffffffffffffffffffffffffffffff1660007fddf252ad1be2c89b69c2b068fc378daa952ba7f163c4a11628f55a4df523b3ef836040516123a29190613326565b60405180910390a35050565b60008273ffffffffffffffffffffffffffffffffffffffff166123d083612085565b73ffffffffffffffffffffffffffffffffffffffff1614905092915050565b8173ffffffffffffffffffffffffffffffffffffffff1661240f82611636565b73ffffffffffffffffffffffffffffffffffffffff1614151561243157600080fd5b60006004600083815260200190815260200160002060006101000a81548173ffffffffffffffffffffffffffffffffffffffff021916908373ffffffffffffffffffffffffffffffffffffffff16021790555060008273ffffffffffffffffffffffffffffffffffffffff167f8c5be1e5ebec7d5bd14f71427d1e84f3dd0314c0f7b2291e5b200ac8c7c3b925836040516124cc9190613326565b60405180910390a35050565b60008060006007600085815260200190815260200160002054925061250f6001612501876116b4565b6128a990919063ffffffff16565b9150600660008673ffffffffffffffffffffffffffffffffffffffff1673ffffffffffffffffffffffffffffffffffffffff1681526020019081526020016000208281548110151561255d57fe5b9060005260206000200154905060006003600086815260200190815260200160002060006101000a81548173ffffffffffffffffffffffffffffffffffffffff021916908373ffffffffffffffffffffffffffffffffffffffff16021790555080600660008773ffffffffffffffffffffffffffffffffffffffff1673ffffffffffffffffffffffffffffffffffffffff1681526020019081526020016000208481548110151561260a57fe5b90600052602060002001819055506000600660008773ffffffffffffffffffffffffffffffffffffffff1673ffffffffffffffffffffffffffffffffffffffff1681526020019081526020016000208381548110151561266657fe5b9060005260206000200181905550600660008673ffffffffffffffffffffffffffffffffffffffff1673ffffffffffffffffffffffffffffffffffffffff1681526020019081526020016000208054809190600190036126c691906129f4565b506000600760008681526020019081526020016000208190555082600760008381526020019081526020016000208190555060088490806001815401808255809150509060018203906000526020600020016000909192909190915055505050505050565b60008073ffffffffffffffffffffffffffffffffffffffff166003600084815260200190815260200160002060009054906101000a900473ffffffffffffffffffffffffffffffffffffffff1673ffffffffffffffffffffffffffffffffffffffff1614151561279a57600080fd5b826003600084815260200190815260200160002060006101000a81548173ffffffffffffffffffffffffffffffffffffffff021916908373ffffffffffffffffffffffffffffffffffffffff1602179055506127f5836116b4565b9050600660008473ffffffffffffffffffffffffffffffffffffffff1673ffffffffffffffffffffffffffffffffffffffff1681526020019081526020016000208290806001815401808255809150509060018203906000526020600020016000909192909190915055508060076000848152602001908152602001600020819055506008829080600181540180825580915050906001820390600052602060002001600090919290919091505550505050565b60008282111515156128b757fe5b818303905092915050565b8154818355818111156128ef576004028160040283600052602060002091820191016128ee9190612a20565b5b505050565b828054600181600116156101000203166002900490600052602060002090601f016020900481019282601f1061293557805160ff1916838001178555612963565b82800160010185558215612963579182015b82811115612962578251825591602001919060010190612947565b5b5090506129709190612a96565b5090565b828054600181600116156101000203166002900490600052602060002090601f016020900481019282601f106129b557805160ff19168380011785556129e3565b828001600101855582156129e3579182015b828111156129e25782518255916020019190600101906129c7565b5b5090506129f09190612a96565b5090565b815481835581811115612a1b57818360005260206000209182019101612a1a9190612a96565b5b505050565b612a9391905b80821115612a8f5760008082016000612a3f9190612abb565b6001820160006101000a81549073ffffffffffffffffffffffffffffffffffffffff0219169055600282016000612a769190612adf565b600382016000612a869190612adf565b50600401612a26565b5090565b90565b612ab891905b80821115612ab4576000816000905550600101612a9c565b5090565b90565b5080546000825560050290600052602060002090810190612adc9190612b27565b50565b50805460018160011615610100020316600290046000825580601f10612b055750612b24565b601f016020900490600052602060002090810190612b239190612a96565b5b50565b612b7391905b80821115612b6f57600080820160009055600182016000905560028201600090556003820160009055600482016000612b669190612adf565b50600501612b2d565b5090565b90565b6000612b82823561348c565b905092915050565b6000612b9682356134ac565b905092915050565b6000612baa82516134ac565b905092915050565b6000612bbe82356134b8565b905092915050565b600082601f8301121515612bd957600080fd5b8135612bec612be78261339e565b613371565b91508082526020830160208301858383011115612c0857600080fd5b612c138382846134e6565b50505092915050565b600082601f8301121515612c2f57600080fd5b8135612c42612c3d826133ca565b613371565b91508082526020830160208301858383011115612c5e57600080fd5b612c698382846134e6565b50505092915050565b600060a08284031215612c8457600080fd5b612c8e60a0613371565b90506000612c9e84828501612d12565b6000830152506020612cb284828501612d12565b6020830152506040612cc684828501612d12565b6040830152506060612cda84828501612d12565b606083015250608082013567ffffffffffffffff811115612cfa57600080fd5b612d0684828501612bc6565b60808301525092915050565b6000612d1e82356134ca565b905092915050565b600060208284031215612d3857600080fd5b6000612d4684828501612b76565b91505092915050565b60008060408385031215612d6257600080fd5b6000612d7085828601612b76565b9250506020612d8185828601612b76565b9150509250929050565b600080600060608486031215612da057600080fd5b6000612dae86828701612b76565b9350506020612dbf86828701612b76565b9250506040612dd086828701612d12565b9150509250925092565b60008060408385031215612ded57600080fd5b6000612dfb85828601612b76565b9250506020612e0c85828601612b8a565b9150509250929050565b60008060408385031215612e2957600080fd5b6000612e3785828601612b76565b9250506020612e4885828601612d12565b9150509250929050565b600060208284031215612e6457600080fd5b6000612e7284828501612b9e565b91505092915050565b600060208284031215612e8d57600080fd5b6000612e9b84828501612bb2565b91505092915050565b600060208284031215612eb657600080fd5b600082013567ffffffffffffffff811115612ed057600080fd5b612edc84828501612c1c565b91505092915050565b60008060408385031215612ef857600080fd5b600083013567ffffffffffffffff811115612f1257600080fd5b612f1e85828601612c1c565b925050602083013567ffffffffffffffff811115612f3b57600080fd5b612f4785828601612c1c565b9150509250929050565b600060208284031215612f6357600080fd5b6000612f7184828501612d12565b91505092915050565b60008060408385031215612f8d57600080fd5b6000612f9b85828601612d12565b925050602083013567ffffffffffffffff811115612fb857600080fd5b612fc485828601612c72565b9150509250929050565b612fd781613456565b82525050565b6000612fe882613410565b80845260208401935083602082028501613001856133f6565b60005b8481101561303a57838303885261301c838351613130565b92506130278261343c565b9150602088019750600181019050613004565b508196508694505050505092915050565b60006130568261341b565b80845260208401935061306883613403565b60005b8281101561309a5761307e8683516131a6565b61308782613449565b915060208601955060018101905061306b565b50849250505092915050565b6130af81613476565b82525050565b6130be816134d4565b82525050565b60006130cf82613431565b8084526130e38160208601602086016134f5565b6130ec81613528565b602085010191505092915050565b600061310582613426565b8084526131198160208601602086016134f5565b61312281613528565b602085010191505092915050565b600060a08301600083015161314860008601826131a6565b50602083015161315b60208601826131a6565b50604083015161316e60408601826131a6565b50606083015161318160608601826131a6565b506080830151848203608086015261319982826130fa565b9150508091505092915050565b6131af81613482565b82525050565b60006020820190506131ca6000830184612fce565b92915050565b60006040820190506131e56000830185612fce565b81810360208301526131f781846130c4565b90509392505050565b60006060820190506132156000830186612fce565b818103602083015261322781856130fa565b9050818103604083015261323b81846130fa565b9050949350505050565b6000602082019050818103600083015261325f8184612fdd565b905092915050565b60006020820190508181036000830152613281818461304b565b905092915050565b600060208201905061329e60008301846130a6565b92915050565b60006020820190506132b960008301846130b5565b92915050565b600060208201905081810360008301526132d981846130c4565b905092915050565b600060608201905081810360008301526132fb81866130c4565b905061330a6020830185612fce565b818103604083015261331c8184612fdd565b9050949350505050565b600060208201905061333b60008301846131a6565b92915050565b600060408201905061335660008301856131a6565b818103602083015261336881846130c4565b90509392505050565b6000604051905081810181811067ffffffffffffffff8211171561339457600080fd5b8060405250919050565b600067ffffffffffffffff8211156133b557600080fd5b601f19601f8301169050602081019050919050565b600067ffffffffffffffff8211156133e157600080fd5b601f19601f8301169050602081019050919050565b6000602082019050919050565b6000602082019050919050565b600081519050919050565b600081519050919050565b600081519050919050565b600081519050919050565b6000602082019050919050565b6000602082019050919050565b600073ffffffffffffffffffffffffffffffffffffffff82169050919050565b60008115159050919050565b6000819050919050565b600073ffffffffffffffffffffffffffffffffffffffff82169050919050565b60008115159050919050565b60006134c382613456565b9050919050565b6000819050919050565b60006134df82613456565b9050919050565b82818337600083830152505050565b60005b838110156135135780820151818401526020810190506134f8565b83811115613522576000848401525b50505050565b6000601f19601f83011690509190505600a265627a7a72305820b7e1f530c11de1a41565e95e2913c05c5268e9b84092109bec2d5881d7fd68f46c6578706572696d656e74616cf50037",
  "source": "pragma solidity ^0.4.24;\npragma experimental ABIEncoderV2;\n\nimport \"./helpers/SafeMath.sol\";\nimport \"./ERC721BasicToken.sol\";\nimport \"./Bill.sol\";\nimport \"./BAMToken.sol\";\n\ncontract BAMTokenContractInterface {\n    function hasBAMAccess (address _whitelistedAddress, string _companyId) public view returns (bool);\n}\n\ncontract BAMBillOfLadingContract is BillContract, ERC721BasicTokenContract{\n    using SafeMath for uint256;\n    BAMTokenContractInterface public assetToken; \n    \n    modifier onlyWithAccess (string _comapnyId) {\n        require(hasBAMAccess(_comapnyId));\n        _;    \n    }\n    \n    constructor(string _name, string _symbol, BAMTokenContractInterface _tokenAddress) ERC721BasicTokenContract(_name, _symbol) public {\n        assetToken = _tokenAddress;\n    }\n    \n    function hasBAMAccess (string _comapnyId) public view returns (bool){\n        return assetToken.hasBAMAccess(msg.sender, _comapnyId);\n    }\n    \n    function setTokenAddress (BAMTokenContractInterface _tokenAddress) public onlyOwner returns (address){\n        require(_tokenAddress != address(0));\n        assetToken = _tokenAddress;\n        return assetToken;\n    }\n    \n    function getTokenAddress () public view returns (BAMTokenContractInterface) {\n        return assetToken;\n    }\n    \n    function createBill(string quoteId, string _companyId) onlyWithAccess(_companyId) public returns (uint256 _tokenId){\n        bills.length++;\n        Bill storage bill = bills[bills.length - 1];\n        bill.quoteId = quoteId;\n        bill.carrier_address = msg.sender;\n        bill.companyId = _companyId;\n        \n        // for (uint i = 0; i < items.length; i++){\n        //     bill.items.push(items[i]);\n        // }\n        \n        _tokenId = bills.length - 1;\n        _mint(msg.sender, _tokenId);\n        emit BillCreated(msg.sender, _tokenId, quoteId);\n    }\n    \n    function addItem(uint256 _billId, Item item) onlyOwnerOf(_billId) public returns (Item[]) {\n        Bill storage bill = bills[_billId];\n        bill.items.push(item);\n        return bill.items;\n    }\n}",
  "sourcePath": "/home/ubuntu/contracts/contracts/BAMBillOfLading.sol",
  "compiler": {
    "name": "solc",
    "version": "0.4.26+commit.4563c3fc.Emscripten.clang"
  },
  "schemaVersion": "2.0.3",
  "updatedAt": "2020-09-18T10:48:53.147Z"
}