{
  "contractName": "BAMSaleContract",
  "abi": [
    {
      "constant": true,
      "inputs": [],
      "name": "assetToken",
      "outputs": [
        {
          "name": "",
          "type": "address"
        }
      ],
      "payable": false,
      "stateMutability": "view",
      "type": "function"
    },
    {
      "constant": false,
      "inputs": [],
      "name": "acceptOwnership",
      "outputs": [],
      "payable": false,
      "stateMutability": "nonpayable",
      "type": "function"
    },
    {
      "constant": true,
      "inputs": [],
      "name": "owner",
      "outputs": [
        {
          "name": "",
          "type": "address"
        }
      ],
      "payable": false,
      "stateMutability": "view",
      "type": "function"
    },
    {
      "constant": true,
      "inputs": [],
      "name": "aryToken",
      "outputs": [
        {
          "name": "",
          "type": "address"
        }
      ],
      "payable": false,
      "stateMutability": "view",
      "type": "function"
    },
    {
      "constant": true,
      "inputs": [],
      "name": "newOwner",
      "outputs": [
        {
          "name": "",
          "type": "address"
        }
      ],
      "payable": false,
      "stateMutability": "view",
      "type": "function"
    },
    {
      "constant": true,
      "inputs": [],
      "name": "beneficiaryAddress",
      "outputs": [
        {
          "name": "",
          "type": "address"
        }
      ],
      "payable": false,
      "stateMutability": "view",
      "type": "function"
    },
    {
      "constant": false,
      "inputs": [
        {
          "name": "_newOwner",
          "type": "address"
        }
      ],
      "name": "transferOwnership",
      "outputs": [],
      "payable": false,
      "stateMutability": "nonpayable",
      "type": "function"
    },
    {
      "inputs": [
        {
          "name": "_assetTokenAddress",
          "type": "address"
        },
        {
          "name": "_aryToken",
          "type": "address"
        },
        {
          "name": "_beneficiary",
          "type": "address"
        }
      ],
      "payable": false,
      "stateMutability": "nonpayable",
      "type": "constructor"
    },
    {
      "anonymous": false,
      "inputs": [
        {
          "indexed": true,
          "name": "_from",
          "type": "address"
        },
        {
          "indexed": true,
          "name": "_to",
          "type": "address"
        }
      ],
      "name": "OwnershipTransferred",
      "type": "event"
    },
    {
      "constant": false,
      "inputs": [
        {
          "name": "_beneficiary",
          "type": "address"
        }
      ],
      "name": "setBeneficiaryAddress",
      "outputs": [
        {
          "name": "",
          "type": "address"
        }
      ],
      "payable": false,
      "stateMutability": "nonpayable",
      "type": "function"
    },
    {
      "constant": true,
      "inputs": [],
      "name": "getBeneficiaryAddress",
      "outputs": [
        {
          "name": "",
          "type": "address"
        }
      ],
      "payable": false,
      "stateMutability": "view",
      "type": "function"
    },
    {
      "constant": false,
      "inputs": [
        {
          "name": "_aryAddress",
          "type": "address"
        }
      ],
      "name": "setARYTokenAddress",
      "outputs": [
        {
          "name": "",
          "type": "address"
        }
      ],
      "payable": false,
      "stateMutability": "nonpayable",
      "type": "function"
    },
    {
      "constant": true,
      "inputs": [],
      "name": "getARYAddress",
      "outputs": [
        {
          "name": "",
          "type": "address"
        }
      ],
      "payable": false,
      "stateMutability": "view",
      "type": "function"
    },
    {
      "constant": false,
      "inputs": [
        {
          "name": "_tokenAddress",
          "type": "address"
        }
      ],
      "name": "setTokenAddress",
      "outputs": [
        {
          "name": "",
          "type": "address"
        }
      ],
      "payable": false,
      "stateMutability": "nonpayable",
      "type": "function"
    },
    {
      "constant": true,
      "inputs": [],
      "name": "getTokenAddress",
      "outputs": [
        {
          "name": "",
          "type": "address"
        }
      ],
      "payable": false,
      "stateMutability": "view",
      "type": "function"
    },
    {
      "constant": false,
      "inputs": [
        {
          "name": "_aryPerToken",
          "type": "uint256"
        }
      ],
      "name": "setARYPerToken",
      "outputs": [
        {
          "name": "",
          "type": "uint256"
        }
      ],
      "payable": false,
      "stateMutability": "nonpayable",
      "type": "function"
    },
    {
      "constant": true,
      "inputs": [],
      "name": "getARYPerToken",
      "outputs": [
        {
          "name": "",
          "type": "uint256"
        }
      ],
      "payable": false,
      "stateMutability": "view",
      "type": "function"
    },
    {
      "constant": false,
      "inputs": [
        {
          "name": "_companyId",
          "type": "string"
        },
        {
          "name": "_whitelistedAddresses",
          "type": "address[]"
        },
        {
          "name": "_assignee",
          "type": "address"
        }
      ],
      "name": "purchase",
      "outputs": [
        {
          "name": "",
          "type": "uint256"
        }
      ],
      "payable": false,
      "stateMutability": "nonpayable",
      "type": "function"
    },
    {
      "constant": false,
      "inputs": [
        {
          "name": "_licenseId",
          "type": "uint256"
        },
        {
          "name": "_whitelistedAddress",
          "type": "address"
        }
      ],
      "name": "addLicenseWhitelistedAddress",
      "outputs": [
        {
          "name": "",
          "type": "address[]"
        }
      ],
      "payable": false,
      "stateMutability": "nonpayable",
      "type": "function"
    },
    {
      "constant": false,
      "inputs": [
        {
          "name": "_licenseId",
          "type": "uint256"
        },
        {
          "name": "_whitelistedAddresses",
          "type": "address[]"
        }
      ],
      "name": "addLicenseWhitelistedAddressBulk",
      "outputs": [
        {
          "name": "",
          "type": "address[]"
        }
      ],
      "payable": false,
      "stateMutability": "nonpayable",
      "type": "function"
    },
    {
      "constant": false,
      "inputs": [
        {
          "name": "_licenseId",
          "type": "uint256"
        },
        {
          "name": "_whitelistedAddress",
          "type": "address"
        }
      ],
      "name": "removeLicenseWhitelistedAddress",
      "outputs": [
        {
          "name": "",
          "type": "address[]"
        }
      ],
      "payable": false,
      "stateMutability": "nonpayable",
      "type": "function"
    },
    {
      "constant": false,
      "inputs": [
        {
          "name": "_licenseId",
          "type": "uint256"
        },
        {
          "name": "_whitelistedAddresses",
          "type": "address[]"
        }
      ],
      "name": "removeLicenseWhitelistedAddressBulk",
      "outputs": [
        {
          "name": "",
          "type": "address[]"
        }
      ],
      "payable": false,
      "stateMutability": "nonpayable",
      "type": "function"
    },
    {
      "constant": false,
      "inputs": [
        {
          "name": "_licenseId",
          "type": "uint256"
        }
      ],
      "name": "renew",
      "outputs": [
        {
          "name": "",
          "type": "bool"
        }
      ],
      "payable": false,
      "stateMutability": "nonpayable",
      "type": "function"
    }
  ],
  "bytecode": "0x6080604052670de0b6b3a764000060055534801561001c57600080fd5b50604051606080612c35833981018060405281019080805190602001909291908051906020019092919080519060200190929190505050336000806101000a81548173ffffffffffffffffffffffffffffffffffffffff021916908373ffffffffffffffffffffffffffffffffffffffff16021790555082600260006101000a81548173ffffffffffffffffffffffffffffffffffffffff021916908373ffffffffffffffffffffffffffffffffffffffff16021790555081600360006101000a81548173ffffffffffffffffffffffffffffffffffffffff021916908373ffffffffffffffffffffffffffffffffffffffff16021790555080600460006101000a81548173ffffffffffffffffffffffffffffffffffffffff021916908373ffffffffffffffffffffffffffffffffffffffff160217905550505050612acd806101686000396000f30060806040526004361061011d576000357c0100000000000000000000000000000000000000000000000000000000900463ffffffff1680631083f7611461012257806310fe9ae81461017957806311abf7a3146101d057806326a4e8d2146102535780632a2b425e146102d6578063312976c11461035d57806338df9b36146103885780635baa75091461042a5780636e142e201461046f57806372685fa1146104b05780637940df841461050757806379ba5097146105cc5780638da5cb5b146105e3578063b7f4ffcc1461063a578063d1eff89514610691578063d4ee1d90146106e8578063d9c4870e1461073f578063d9f772a914610796578063ec6be06e1461085b578063f2fde38b146108de578063f7a07d4114610921575b600080fd5b34801561012e57600080fd5b506101376109c3565b604051808273ffffffffffffffffffffffffffffffffffffffff1673ffffffffffffffffffffffffffffffffffffffff16815260200191505060405180910390f35b34801561018557600080fd5b5061018e6109e9565b604051808273ffffffffffffffffffffffffffffffffffffffff1673ffffffffffffffffffffffffffffffffffffffff16815260200191505060405180910390f35b3480156101dc57600080fd5b50610211600480360381019080803573ffffffffffffffffffffffffffffffffffffffff169060200190929190505050610a13565b604051808273ffffffffffffffffffffffffffffffffffffffff1673ffffffffffffffffffffffffffffffffffffffff16815260200191505060405180910390f35b34801561025f57600080fd5b50610294600480360381019080803573ffffffffffffffffffffffffffffffffffffffff169060200190929190505050610b17565b604051808273ffffffffffffffffffffffffffffffffffffffff1673ffffffffffffffffffffffffffffffffffffffff16815260200191505060405180910390f35b3480156102e257600080fd5b50610347600480360381019080803590602001908201803590602001919091929391929390803590602001908201803590602001919091929391929390803573ffffffffffffffffffffffffffffffffffffffff169060200190929190505050610c1b565b6040518082815260200191505060405180910390f35b34801561036957600080fd5b50610372610ef7565b6040518082815260200191505060405180910390f35b34801561039457600080fd5b506103d360048036038101908080359060200190929190803573ffffffffffffffffffffffffffffffffffffffff169060200190929190505050610f01565b6040518080602001828103825283818151815260200191508051906020019060200280838360005b838110156104165780820151818401526020810190506103fb565b505050509050019250505060405180910390f35b34801561043657600080fd5b50610455600480360381019080803590602001909291905050506113c2565b604051808215151515815260200191505060405180910390f35b34801561047b57600080fd5b5061049a600480360381019080803590602001909291905050506116ed565b6040518082815260200191505060405180910390f35b3480156104bc57600080fd5b506104c561176b565b604051808273ffffffffffffffffffffffffffffffffffffffff1673ffffffffffffffffffffffffffffffffffffffff16815260200191505060405180910390f35b34801561051357600080fd5b506105756004803603810190808035906020019092919080359060200190820180359060200190808060200260200160405190810160405280939291908181526020018383602002808284378201915050505050509192919290505050611795565b6040518080602001828103825283818151815260200191508051906020019060200280838360005b838110156105b857808201518184015260208101905061059d565b505050509050019250505060405180910390f35b3480156105d857600080fd5b506105e1611c9d565b005b3480156105ef57600080fd5b506105f8611e3c565b604051808273ffffffffffffffffffffffffffffffffffffffff1673ffffffffffffffffffffffffffffffffffffffff16815260200191505060405180910390f35b34801561064657600080fd5b5061064f611e61565b604051808273ffffffffffffffffffffffffffffffffffffffff1673ffffffffffffffffffffffffffffffffffffffff16815260200191505060405180910390f35b34801561069d57600080fd5b506106a6611e87565b604051808273ffffffffffffffffffffffffffffffffffffffff1673ffffffffffffffffffffffffffffffffffffffff16815260200191505060405180910390f35b3480156106f457600080fd5b506106fd611eb1565b604051808273ffffffffffffffffffffffffffffffffffffffff1673ffffffffffffffffffffffffffffffffffffffff16815260200191505060405180910390f35b34801561074b57600080fd5b50610754611ed7565b604051808273ffffffffffffffffffffffffffffffffffffffff1673ffffffffffffffffffffffffffffffffffffffff16815260200191505060405180910390f35b3480156107a257600080fd5b506108046004803603810190808035906020019092919080359060200190820180359060200190808060200260200160405190810160405280939291908181526020018383602002808284378201915050505050509192919290505050611efd565b6040518080602001828103825283818151815260200191508051906020019060200280838360005b8381101561084757808201518184015260208101905061082c565b505050509050019250505060405180910390f35b34801561086757600080fd5b5061089c600480360381019080803573ffffffffffffffffffffffffffffffffffffffff169060200190929190505050612260565b604051808273ffffffffffffffffffffffffffffffffffffffff1673ffffffffffffffffffffffffffffffffffffffff16815260200191505060405180910390f35b3480156108ea57600080fd5b5061091f600480360381019080803573ffffffffffffffffffffffffffffffffffffffff169060200190929190505050612364565b005b34801561092d57600080fd5b5061096c60048036038101908080359060200190929190803573ffffffffffffffffffffffffffffffffffffffff169060200190929190505050612403565b6040518080602001828103825283818151815260200191508051906020019060200280838360005b838110156109af578082015181840152602081019050610994565b505050509050019250505060405180910390f35b600260009054906101000a900473ffffffffffffffffffffffffffffffffffffffff1681565b6000600260009054906101000a900473ffffffffffffffffffffffffffffffffffffffff16905090565b60008060009054906101000a900473ffffffffffffffffffffffffffffffffffffffff1673ffffffffffffffffffffffffffffffffffffffff163373ffffffffffffffffffffffffffffffffffffffff16141515610a7057600080fd5b600073ffffffffffffffffffffffffffffffffffffffff168273ffffffffffffffffffffffffffffffffffffffff1614151515610aac57600080fd5b81600360006101000a81548173ffffffffffffffffffffffffffffffffffffffff021916908373ffffffffffffffffffffffffffffffffffffffff160217905550600360009054906101000a900473ffffffffffffffffffffffffffffffffffffffff169050919050565b60008060009054906101000a900473ffffffffffffffffffffffffffffffffffffffff1673ffffffffffffffffffffffffffffffffffffffff163373ffffffffffffffffffffffffffffffffffffffff16141515610b7457600080fd5b600073ffffffffffffffffffffffffffffffffffffffff168273ffffffffffffffffffffffffffffffffffffffff1614151515610bb057600080fd5b81600260006101000a81548173ffffffffffffffffffffffffffffffffffffffff021916908373ffffffffffffffffffffffffffffffffffffffff160217905550600260009054906101000a900473ffffffffffffffffffffffffffffffffffffffff169050919050565b600080600554600360009054906101000a900473ffffffffffffffffffffffffffffffffffffffff1673ffffffffffffffffffffffffffffffffffffffff1663dd62ed3e33306040518363ffffffff167c0100000000000000000000000000000000000000000000000000000000028152600401808373ffffffffffffffffffffffffffffffffffffffff1673ffffffffffffffffffffffffffffffffffffffff1681526020018273ffffffffffffffffffffffffffffffffffffffff1673ffffffffffffffffffffffffffffffffffffffff16815260200192505050602060405180830381600087803b158015610d1257600080fd5b505af1158015610d26573d6000803e3d6000fd5b505050506040513d6020811015610d3c57600080fd5b810190808051906020019092919050505010151515610d5a57600080fd5b600073ffffffffffffffffffffffffffffffffffffffff168373ffffffffffffffffffffffffffffffffffffffff1614151515610d9657600080fd5b610d9e6128c5565b1515610da957600080fd5b600260009054906101000a900473ffffffffffffffffffffffffffffffffffffffff1673ffffffffffffffffffffffffffffffffffffffff1663e67e63f484898989896040518663ffffffff167c0100000000000000000000000000000000000000000000000000000000028152600401808673ffffffffffffffffffffffffffffffffffffffff1673ffffffffffffffffffffffffffffffffffffffff16815260200180602001806020018381038352878782818152602001925080828437820191505083810382528585828181526020019250602002808284378201915050975050505050505050602060405180830381600087803b158015610ead57600080fd5b505af1158015610ec1573d6000803e3d6000fd5b505050506040513d6020811015610ed757600080fd5b810190808051906020019092919050505090508091505095945050505050565b6000600554905090565b6060806000843373ffffffffffffffffffffffffffffffffffffffff16600260009054906101000a900473ffffffffffffffffffffffffffffffffffffffff1673ffffffffffffffffffffffffffffffffffffffff16636352211e836040518263ffffffff167c010000000000000000000000000000000000000000000000000000000002815260040180828152602001915050602060405180830381600087803b158015610faf57600080fd5b505af1158015610fc3573d6000803e3d6000fd5b505050506040513d6020811015610fd957600080fd5b810190808051906020019092919050505073ffffffffffffffffffffffffffffffffffffffff1614151561100c57600080fd5b600260009054906101000a900473ffffffffffffffffffffffffffffffffffffffff1673ffffffffffffffffffffffffffffffffffffffff1663c665b9d4876040518263ffffffff167c010000000000000000000000000000000000000000000000000000000002815260040180828152602001915050602060405180830381600087803b15801561109d57600080fd5b505af11580156110b1573d6000803e3d6000fd5b505050506040513d60208110156110c757600080fd5b810190808051906020019092919050505015156110e357600080fd5b600073ffffffffffffffffffffffffffffffffffffffff168573ffffffffffffffffffffffffffffffffffffffff161415151561111f57600080fd5b600260009054906101000a900473ffffffffffffffffffffffffffffffffffffffff1673ffffffffffffffffffffffffffffffffffffffff166381257f42876040518263ffffffff167c010000000000000000000000000000000000000000000000000000000002815260040180828152602001915050600060405180830381600087803b1580156111b057600080fd5b505af11580156111c4573d6000803e3d6000fd5b505050506040513d6000823e3d601f19601f8201168201806040525060208110156111ee57600080fd5b81019080805164010000000081111561120657600080fd5b8281019050602081018481111561121c57600080fd5b815185602082028301116401000000008211171561123957600080fd5b5050929190505050925061124d8386612a24565b91508251821015611260578293506113b9565b600260009054906101000a900473ffffffffffffffffffffffffffffffffffffffff1673ffffffffffffffffffffffffffffffffffffffff166338df9b3687876040518363ffffffff167c0100000000000000000000000000000000000000000000000000000000028152600401808381526020018273ffffffffffffffffffffffffffffffffffffffff1673ffffffffffffffffffffffffffffffffffffffff16815260200192505050600060405180830381600087803b15801561132557600080fd5b505af1158015611339573d6000803e3d6000fd5b505050506040513d6000823e3d601f19601f82011682018060405250602081101561136357600080fd5b81019080805164010000000081111561137b57600080fd5b8281019050602081018481111561139157600080fd5b81518560208202830111640100000000821117156113ae57600080fd5b505092919050505093505b50505092915050565b6000600554600360009054906101000a900473ffffffffffffffffffffffffffffffffffffffff1673ffffffffffffffffffffffffffffffffffffffff1663dd62ed3e33306040518363ffffffff167c0100000000000000000000000000000000000000000000000000000000028152600401808373ffffffffffffffffffffffffffffffffffffffff1673ffffffffffffffffffffffffffffffffffffffff1681526020018273ffffffffffffffffffffffffffffffffffffffff1673ffffffffffffffffffffffffffffffffffffffff16815260200192505050602060405180830381600087803b1580156114b857600080fd5b505af11580156114cc573d6000803e3d6000fd5b505050506040513d60208110156114e257600080fd5b81019080805190602001909291905050501015151561150057600080fd5b813373ffffffffffffffffffffffffffffffffffffffff16600260009054906101000a900473ffffffffffffffffffffffffffffffffffffffff1673ffffffffffffffffffffffffffffffffffffffff16636352211e836040518263ffffffff167c010000000000000000000000000000000000000000000000000000000002815260040180828152602001915050602060405180830381600087803b1580156115a957600080fd5b505af11580156115bd573d6000803e3d6000fd5b505050506040513d60208110156115d357600080fd5b810190808051906020019092919050505073ffffffffffffffffffffffffffffffffffffffff1614151561160657600080fd5b61160e6128c5565b151561161957600080fd5b600260009054906101000a900473ffffffffffffffffffffffffffffffffffffffff1673ffffffffffffffffffffffffffffffffffffffff16635baa7509846040518263ffffffff167c010000000000000000000000000000000000000000000000000000000002815260040180828152602001915050602060405180830381600087803b1580156116aa57600080fd5b505af11580156116be573d6000803e3d6000fd5b505050506040513d60208110156116d457600080fd5b8101908080519060200190929190505050915050919050565b60008060009054906101000a900473ffffffffffffffffffffffffffffffffffffffff1673ffffffffffffffffffffffffffffffffffffffff163373ffffffffffffffffffffffffffffffffffffffff1614151561174a57600080fd5b6001821015151561175a57600080fd5b816005819055506005549050919050565b6000600360009054906101000a900473ffffffffffffffffffffffffffffffffffffffff16905090565b606080600080853373ffffffffffffffffffffffffffffffffffffffff16600260009054906101000a900473ffffffffffffffffffffffffffffffffffffffff1673ffffffffffffffffffffffffffffffffffffffff16636352211e836040518263ffffffff167c010000000000000000000000000000000000000000000000000000000002815260040180828152602001915050602060405180830381600087803b15801561184457600080fd5b505af1158015611858573d6000803e3d6000fd5b505050506040513d602081101561186e57600080fd5b810190808051906020019092919050505073ffffffffffffffffffffffffffffffffffffffff161415156118a157600080fd5b600260009054906101000a900473ffffffffffffffffffffffffffffffffffffffff1673ffffffffffffffffffffffffffffffffffffffff1663c665b9d4886040518263ffffffff167c010000000000000000000000000000000000000000000000000000000002815260040180828152602001915050602060405180830381600087803b15801561193257600080fd5b505af1158015611946573d6000803e3d6000fd5b505050506040513d602081101561195c57600080fd5b8101908080519060200190929190505050151561197857600080fd5b6000865111151561198857600080fd5b600260009054906101000a900473ffffffffffffffffffffffffffffffffffffffff1673ffffffffffffffffffffffffffffffffffffffff166381257f42886040518263ffffffff167c010000000000000000000000000000000000000000000000000000000002815260040180828152602001915050600060405180830381600087803b158015611a1957600080fd5b505af1158015611a2d573d6000803e3d6000fd5b505050506040513d6000823e3d601f19601f820116820180604052506020811015611a5757600080fd5b810190808051640100000000811115611a6f57600080fd5b82810190506020810184811115611a8557600080fd5b8151856020820283011164010000000082111715611aa257600080fd5b50509291905050509350600092505b8551831015611b2657611adb848785815181101515611acc57fe5b90602001906020020151612a24565b91508351821015611b19578582815181101515611af457fe5b906020019060200201600073ffffffffffffffffffffffffffffffffffffffff168152505b8280600101935050611ab1565b600260009054906101000a900473ffffffffffffffffffffffffffffffffffffffff1673ffffffffffffffffffffffffffffffffffffffff16637940df8488886040518363ffffffff167c01000000000000000000000000000000000000000000000000000000000281526004018083815260200180602001828103825283818151815260200191508051906020019060200280838360005b83811015611bda578082015181840152602081019050611bbf565b505050509050019350505050600060405180830381600087803b158015611c0057600080fd5b505af1158015611c14573d6000803e3d6000fd5b505050506040513d6000823e3d601f19601f820116820180604052506020811015611c3e57600080fd5b810190808051640100000000811115611c5657600080fd5b82810190506020810184811115611c6c57600080fd5b8151856020820283011164010000000082111715611c8957600080fd5b505092919050505094505050505092915050565b600160009054906101000a900473ffffffffffffffffffffffffffffffffffffffff1673ffffffffffffffffffffffffffffffffffffffff163373ffffffffffffffffffffffffffffffffffffffff16141515611cf957600080fd5b600160009054906101000a900473ffffffffffffffffffffffffffffffffffffffff1673ffffffffffffffffffffffffffffffffffffffff166000809054906101000a900473ffffffffffffffffffffffffffffffffffffffff1673ffffffffffffffffffffffffffffffffffffffff167f8be0079c531659141344cd1fd0a4f28419497f9722a3daafe3b4186f6b6457e060405160405180910390a3600160009054906101000a900473ffffffffffffffffffffffffffffffffffffffff166000806101000a81548173ffffffffffffffffffffffffffffffffffffffff021916908373ffffffffffffffffffffffffffffffffffffffff1602179055506000600160006101000a81548173ffffffffffffffffffffffffffffffffffffffff021916908373ffffffffffffffffffffffffffffffffffffffff160217905550565b6000809054906101000a900473ffffffffffffffffffffffffffffffffffffffff1681565b600360009054906101000a900473ffffffffffffffffffffffffffffffffffffffff1681565b6000600460009054906101000a900473ffffffffffffffffffffffffffffffffffffffff16905090565b600160009054906101000a900473ffffffffffffffffffffffffffffffffffffffff1681565b600460009054906101000a900473ffffffffffffffffffffffffffffffffffffffff1681565b6060823373ffffffffffffffffffffffffffffffffffffffff16600260009054906101000a900473ffffffffffffffffffffffffffffffffffffffff1673ffffffffffffffffffffffffffffffffffffffff16636352211e836040518263ffffffff167c010000000000000000000000000000000000000000000000000000000002815260040180828152602001915050602060405180830381600087803b158015611fa857600080fd5b505af1158015611fbc573d6000803e3d6000fd5b505050506040513d6020811015611fd257600080fd5b810190808051906020019092919050505073ffffffffffffffffffffffffffffffffffffffff1614151561200557600080fd5b600260009054906101000a900473ffffffffffffffffffffffffffffffffffffffff1673ffffffffffffffffffffffffffffffffffffffff1663c665b9d4856040518263ffffffff167c010000000000000000000000000000000000000000000000000000000002815260040180828152602001915050602060405180830381600087803b15801561209657600080fd5b505af11580156120aa573d6000803e3d6000fd5b505050506040513d60208110156120c057600080fd5b810190808051906020019092919050505015156120dc57600080fd5b600083511115156120ec57600080fd5b600260009054906101000a900473ffffffffffffffffffffffffffffffffffffffff1673ffffffffffffffffffffffffffffffffffffffff1663d9f772a985856040518363ffffffff167c01000000000000000000000000000000000000000000000000000000000281526004018083815260200180602001828103825283818151815260200191508051906020019060200280838360005b838110156121a0578082015181840152602081019050612185565b505050509050019350505050600060405180830381600087803b1580156121c657600080fd5b505af11580156121da573d6000803e3d6000fd5b505050506040513d6000823e3d601f19601f82011682018060405250602081101561220457600080fd5b81019080805164010000000081111561221c57600080fd5b8281019050602081018481111561223257600080fd5b815185602082028301116401000000008211171561224f57600080fd5b505092919050505091505092915050565b60008060009054906101000a900473ffffffffffffffffffffffffffffffffffffffff1673ffffffffffffffffffffffffffffffffffffffff163373ffffffffffffffffffffffffffffffffffffffff161415156122bd57600080fd5b600073ffffffffffffffffffffffffffffffffffffffff168273ffffffffffffffffffffffffffffffffffffffff16141515156122f957600080fd5b81600460006101000a81548173ffffffffffffffffffffffffffffffffffffffff021916908373ffffffffffffffffffffffffffffffffffffffff160217905550600460009054906101000a900473ffffffffffffffffffffffffffffffffffffffff169050919050565b6000809054906101000a900473ffffffffffffffffffffffffffffffffffffffff1673ffffffffffffffffffffffffffffffffffffffff163373ffffffffffffffffffffffffffffffffffffffff161415156123bf57600080fd5b80600160006101000a81548173ffffffffffffffffffffffffffffffffffffffff021916908373ffffffffffffffffffffffffffffffffffffffff16021790555050565b6060806000843373ffffffffffffffffffffffffffffffffffffffff16600260009054906101000a900473ffffffffffffffffffffffffffffffffffffffff1673ffffffffffffffffffffffffffffffffffffffff16636352211e836040518263ffffffff167c010000000000000000000000000000000000000000000000000000000002815260040180828152602001915050602060405180830381600087803b1580156124b157600080fd5b505af11580156124c5573d6000803e3d6000fd5b505050506040513d60208110156124db57600080fd5b810190808051906020019092919050505073ffffffffffffffffffffffffffffffffffffffff1614151561250e57600080fd5b600260009054906101000a900473ffffffffffffffffffffffffffffffffffffffff1673ffffffffffffffffffffffffffffffffffffffff1663c665b9d4876040518263ffffffff167c010000000000000000000000000000000000000000000000000000000002815260040180828152602001915050602060405180830381600087803b15801561259f57600080fd5b505af11580156125b3573d6000803e3d6000fd5b505050506040513d60208110156125c957600080fd5b810190808051906020019092919050505015156125e557600080fd5b600073ffffffffffffffffffffffffffffffffffffffff168573ffffffffffffffffffffffffffffffffffffffff161415151561262157600080fd5b600260009054906101000a900473ffffffffffffffffffffffffffffffffffffffff1673ffffffffffffffffffffffffffffffffffffffff166381257f42876040518263ffffffff167c010000000000000000000000000000000000000000000000000000000002815260040180828152602001915050600060405180830381600087803b1580156126b257600080fd5b505af11580156126c6573d6000803e3d6000fd5b505050506040513d6000823e3d601f19601f8201168201806040525060208110156126f057600080fd5b81019080805164010000000081111561270857600080fd5b8281019050602081018481111561271e57600080fd5b815185602082028301116401000000008211171561273b57600080fd5b5050929190505050925061274f8386612a24565b9150825182101515612763578293506128bc565b600260009054906101000a900473ffffffffffffffffffffffffffffffffffffffff1673ffffffffffffffffffffffffffffffffffffffff1663f7a07d4187876040518363ffffffff167c0100000000000000000000000000000000000000000000000000000000028152600401808381526020018273ffffffffffffffffffffffffffffffffffffffff1673ffffffffffffffffffffffffffffffffffffffff16815260200192505050600060405180830381600087803b15801561282857600080fd5b505af115801561283c573d6000803e3d6000fd5b505050506040513d6000823e3d601f19601f82011682018060405250602081101561286657600080fd5b81019080805164010000000081111561287e57600080fd5b8281019050602081018481111561289457600080fd5b81518560208202830111640100000000821117156128b157600080fd5b505092919050505093505b50505092915050565b6000600360009054906101000a900473ffffffffffffffffffffffffffffffffffffffff1673ffffffffffffffffffffffffffffffffffffffff166323b872dd33600460009054906101000a900473ffffffffffffffffffffffffffffffffffffffff166005546040518463ffffffff167c0100000000000000000000000000000000000000000000000000000000028152600401808473ffffffffffffffffffffffffffffffffffffffff1673ffffffffffffffffffffffffffffffffffffffff1681526020018373ffffffffffffffffffffffffffffffffffffffff1673ffffffffffffffffffffffffffffffffffffffff1681526020018281526020019350505050602060405180830381600087803b1580156129e457600080fd5b505af11580156129f8573d6000803e3d6000fd5b505050506040513d6020811015612a0e57600080fd5b8101908080519060200190929190505050905090565b600080600090505b8351811015612a95578381815181101515612a4357fe5b9060200190602002015173ffffffffffffffffffffffffffffffffffffffff168373ffffffffffffffffffffffffffffffffffffffff161415612a8857809150612a9a565b8080600101915050612a2c565b835191505b50929150505600a165627a7a72305820678600fb31937fce193e1273f6ff4ad198b0dc13fa6da99fdb61a26130ae56090029",
  "source": "pragma solidity ^0.4.24;\n\nimport \"./helpers/SafeMath.sol\";\nimport \"./BAMToken.sol\";\nimport \"./Ownable.sol\";\n\ncontract ARYToken {\n    function allowance(address tokenOwner, address spender) public view returns (uint remaining);\n    function transferFrom(address from, address to, uint tokens) public returns (bool success);\n}\n\ncontract BAMSaleContract is Ownable{\n    BAMTokenContract public assetToken; \n    ARYToken public aryToken;\n    address public beneficiaryAddress;\n    uint256 internal ARYPerToken = 1 * 10 ** 18;\n    \n    modifier hasAllowance () {\n        // Must have set allowance for sale contract\n        require(aryToken.allowance(msg.sender, address(this)) >= ARYPerToken);\n        _;\n    }\n    \n    modifier onlyOwnerOf(uint256 _licenseId) {\n        require(assetToken.ownerOf(_licenseId) == msg.sender);\n        _;\n    }\n    \n    constructor (BAMTokenContract _assetTokenAddress, ARYToken _aryToken, address _beneficiary) public {\n        assetToken = _assetTokenAddress;\n        aryToken = _aryToken;\n        beneficiaryAddress = _beneficiary;\n    }\n    \n    function setBeneficiaryAddress (address _beneficiary) public onlyOwner returns (address){\n        require(_beneficiary != address(0));\n        beneficiaryAddress = _beneficiary;\n        return beneficiaryAddress;\n    }\n    \n    function getBeneficiaryAddress () public view returns (address) {\n        return beneficiaryAddress;\n    }\n\n    function setARYTokenAddress (ARYToken _aryAddress) public onlyOwner returns (address){\n        require(_aryAddress != address(0));\n        aryToken = _aryAddress;\n        return aryToken;\n    }\n    \n    function getARYAddress () public view returns (ARYToken) {\n        return aryToken;\n    }\n\n    function setTokenAddress (BAMTokenContract _tokenAddress) public onlyOwner returns (address){\n        require(_tokenAddress != address(0));\n        assetToken = _tokenAddress;\n        return assetToken;\n    }\n    \n    function getTokenAddress () public view returns (BAMTokenContract) {\n        return assetToken;\n    }\n    \n    function setARYPerToken (uint256 _aryPerToken) public onlyOwner returns (uint256){\n        require(_aryPerToken >= 1);\n        ARYPerToken = _aryPerToken;\n        return ARYPerToken;\n    }\n    \n    function getARYPerToken () public view returns (uint256) {\n        return ARYPerToken;\n    }\n    \n    function makePayment () private returns (bool) {\n        return aryToken.transferFrom(msg.sender, beneficiaryAddress, ARYPerToken);\n    }\n    \n    function purchase(string _companyId, address[] _whitelistedAddresses, address _assignee) external hasAllowance returns (uint) {\n        require(_assignee != address(0));\n        \n        // Transfer ARYTokens from sender account to beneficiaryAddress\n        require(makePayment());\n\n        uint256 assetId = assetToken.mint(_assignee, _companyId, _whitelistedAddresses);\n        return assetId;\n    }\n    \n    function findAddress(address[] haystack, address needle) pure internal returns(uint256){\n        for (uint256 i = 0; i < haystack.length; i++){\n            if (needle == haystack[i]) {\n                return i;\n            }\n        }\n        return haystack.length;\n    }    \n    \n    function addLicenseWhitelistedAddress(uint256 _licenseId, address _whitelistedAddress) public onlyOwnerOf(_licenseId) returns (address[]){\n        require(assetToken.isValidLicense(_licenseId));\n        require(_whitelistedAddress != address(0));\n        \n        address[] memory existingAddress = assetToken.getLicenseWhitelistedAddresses(_licenseId);\n        uint256 addressIndex = findAddress(existingAddress, _whitelistedAddress);\n        \n        if (addressIndex < existingAddress.length) {\n            return existingAddress;\n        }\n        \n        return assetToken.addLicenseWhitelistedAddress(_licenseId, _whitelistedAddress);\n    }\n    \n    function addLicenseWhitelistedAddressBulk(uint256 _licenseId, address[] _whitelistedAddresses) public onlyOwnerOf(_licenseId) returns (address[]){\n        require(assetToken.isValidLicense(_licenseId));\n        require(_whitelistedAddresses.length > 0);\n        \n        address[] memory existingAddresses = assetToken.getLicenseWhitelistedAddresses(_licenseId);\n        for(uint256 i = 0; i < _whitelistedAddresses.length; i++) {\n            uint256 addressIndex = findAddress(existingAddresses, _whitelistedAddresses[i]);\n            if (addressIndex < existingAddresses.length) {\n                delete _whitelistedAddresses[addressIndex];\n            }\n        }\n        \n        return assetToken.addLicenseWhitelistedAddressBulk(_licenseId, _whitelistedAddresses);\n    }\n    \n    function removeLicenseWhitelistedAddress(uint256 _licenseId, address _whitelistedAddress) public onlyOwnerOf(_licenseId) returns (address[]){\n        require(assetToken.isValidLicense(_licenseId));\n        require(_whitelistedAddress != address(0));\n        \n        address[] memory existingAddresses = assetToken.getLicenseWhitelistedAddresses(_licenseId);\n        uint256 addressIndex = findAddress(existingAddresses, _whitelistedAddress);\n        if (addressIndex >= existingAddresses.length) {\n            return existingAddresses;\n        }\n        \n        return assetToken.removeLicenseWhitelistedAddress(_licenseId, _whitelistedAddress);\n    }\n    \n    function removeLicenseWhitelistedAddressBulk(uint256 _licenseId, address[] _whitelistedAddresses) public onlyOwnerOf(_licenseId) returns (address[]){\n        require(assetToken.isValidLicense(_licenseId));\n        require(_whitelistedAddresses.length > 0);\n\n        return assetToken.removeLicenseWhitelistedAddressBulk(_licenseId, _whitelistedAddresses);\n    }\n\n    \n    function renew(uint256 _licenseId) external hasAllowance onlyOwnerOf(_licenseId) returns (bool) {\n        // Transfer ARYTokens from sender account to beneficiaryAddress\n        require(makePayment());\n\n        return assetToken.renew(_licenseId);\n    }\n}",
  "sourcePath": "/home/ubuntu/contracts/contracts/BAMSale.sol",
  "compiler": {
    "name": "solc",
    "version": "0.4.26+commit.4563c3fc.Emscripten.clang"
  },
  "schemaVersion": "2.0.3",
  "updatedAt": "2020-09-18T11:00:37.667Z"
}