{
  "contractName": "BAMTokenContract",
  "abi": [
    {
      "constant": false,
      "inputs": [
        {
          "name": "_to",
          "type": "address"
        }
      ],
      "name": "approveAll",
      "outputs": [],
      "payable": false,
      "stateMutability": "nonpayable",
      "type": "function"
    },
    {
      "constant": true,
      "inputs": [],
      "name": "name",
      "outputs": [
        {
          "name": "",
          "type": "string"
        }
      ],
      "payable": false,
      "stateMutability": "view",
      "type": "function"
    },
    {
      "constant": false,
      "inputs": [
        {
          "name": "_to",
          "type": "address"
        },
        {
          "name": "_tokenId",
          "type": "uint256"
        }
      ],
      "name": "approve",
      "outputs": [],
      "payable": false,
      "stateMutability": "nonpayable",
      "type": "function"
    },
    {
      "constant": true,
      "inputs": [],
      "name": "totalSupply",
      "outputs": [
        {
          "name": "",
          "type": "uint256"
        }
      ],
      "payable": false,
      "stateMutability": "view",
      "type": "function"
    },
    {
      "constant": true,
      "inputs": [
        {
          "name": "_licenseId",
          "type": "uint256"
        }
      ],
      "name": "getLicenseCompanyId",
      "outputs": [
        {
          "name": "",
          "type": "string"
        }
      ],
      "payable": false,
      "stateMutability": "view",
      "type": "function"
    },
    {
      "constant": true,
      "inputs": [
        {
          "name": "_licenseId",
          "type": "uint256"
        }
      ],
      "name": "getLicenseIssuedTime",
      "outputs": [
        {
          "name": "",
          "type": "uint256"
        }
      ],
      "payable": false,
      "stateMutability": "view",
      "type": "function"
    },
    {
      "constant": true,
      "inputs": [
        {
          "name": "_companyId",
          "type": "string"
        }
      ],
      "name": "getLicenseIdByCompanyId",
      "outputs": [
        {
          "name": "",
          "type": "uint256"
        }
      ],
      "payable": false,
      "stateMutability": "view",
      "type": "function"
    },
    {
      "constant": false,
      "inputs": [
        {
          "name": "_from",
          "type": "address"
        },
        {
          "name": "_to",
          "type": "address"
        },
        {
          "name": "_tokenId",
          "type": "uint256"
        }
      ],
      "name": "transferFrom",
      "outputs": [],
      "payable": false,
      "stateMutability": "nonpayable",
      "type": "function"
    },
    {
      "constant": true,
      "inputs": [
        {
          "name": "_whitelistedAddress",
          "type": "address"
        }
      ],
      "name": "getCompanyIdByAddress",
      "outputs": [
        {
          "name": "",
          "type": "string[]"
        }
      ],
      "payable": false,
      "stateMutability": "view",
      "type": "function"
    },
    {
      "constant": true,
      "inputs": [
        {
          "name": "_owner",
          "type": "address"
        },
        {
          "name": "_index",
          "type": "uint256"
        }
      ],
      "name": "tokenOfOwnerByIndex",
      "outputs": [
        {
          "name": "",
          "type": "uint256"
        }
      ],
      "payable": false,
      "stateMutability": "view",
      "type": "function"
    },
    {
      "constant": true,
      "inputs": [
        {
          "name": "_licenseId",
          "type": "uint256"
        }
      ],
      "name": "getLicenseExpiryTime",
      "outputs": [
        {
          "name": "",
          "type": "uint256"
        }
      ],
      "payable": false,
      "stateMutability": "view",
      "type": "function"
    },
    {
      "constant": false,
      "inputs": [
        {
          "name": "_licenseId",
          "type": "uint256"
        }
      ],
      "name": "revokeLicense",
      "outputs": [
        {
          "name": "",
          "type": "bool"
        }
      ],
      "payable": false,
      "stateMutability": "nonpayable",
      "type": "function"
    },
    {
      "constant": true,
      "inputs": [
        {
          "name": "_index",
          "type": "uint256"
        }
      ],
      "name": "tokenByIndex",
      "outputs": [
        {
          "name": "",
          "type": "uint256"
        }
      ],
      "payable": false,
      "stateMutability": "view",
      "type": "function"
    },
    {
      "constant": false,
      "inputs": [
        {
          "name": "_to",
          "type": "address"
        }
      ],
      "name": "disapproveAll",
      "outputs": [],
      "payable": false,
      "stateMutability": "nonpayable",
      "type": "function"
    },
    {
      "constant": true,
      "inputs": [
        {
          "name": "_owner",
          "type": "address"
        }
      ],
      "name": "tokensOf",
      "outputs": [
        {
          "name": "",
          "type": "uint256[]"
        }
      ],
      "payable": false,
      "stateMutability": "view",
      "type": "function"
    },
    {
      "constant": true,
      "inputs": [],
      "name": "getAllowedWhitelistedAddresses",
      "outputs": [
        {
          "name": "",
          "type": "uint256"
        }
      ],
      "payable": false,
      "stateMutability": "view",
      "type": "function"
    },
    {
      "constant": true,
      "inputs": [
        {
          "name": "_tokenId",
          "type": "uint256"
        }
      ],
      "name": "ownerOf",
      "outputs": [
        {
          "name": "",
          "type": "address"
        }
      ],
      "payable": false,
      "stateMutability": "view",
      "type": "function"
    },
    {
      "constant": true,
      "inputs": [
        {
          "name": "_owner",
          "type": "address"
        }
      ],
      "name": "balanceOf",
      "outputs": [
        {
          "name": "",
          "type": "uint256"
        }
      ],
      "payable": false,
      "stateMutability": "view",
      "type": "function"
    },
    {
      "constant": false,
      "inputs": [
        {
          "name": "_licenseExpiryTime",
          "type": "uint256"
        }
      ],
      "name": "setLicenseExpiryTime",
      "outputs": [
        {
          "name": "",
          "type": "uint256"
        }
      ],
      "payable": false,
      "stateMutability": "nonpayable",
      "type": "function"
    },
    {
      "constant": false,
      "inputs": [],
      "name": "acceptOwnership",
      "outputs": [],
      "payable": false,
      "stateMutability": "nonpayable",
      "type": "function"
    },
    {
      "constant": true,
      "inputs": [
        {
          "name": "_licenseId",
          "type": "uint256"
        }
      ],
      "name": "getLicenseWhitelistedAddresses",
      "outputs": [
        {
          "name": "",
          "type": "address[]"
        }
      ],
      "payable": false,
      "stateMutability": "view",
      "type": "function"
    },
    {
      "constant": true,
      "inputs": [],
      "name": "owner",
      "outputs": [
        {
          "name": "",
          "type": "address"
        }
      ],
      "payable": false,
      "stateMutability": "view",
      "type": "function"
    },
    {
      "constant": true,
      "inputs": [],
      "name": "symbol",
      "outputs": [
        {
          "name": "",
          "type": "string"
        }
      ],
      "payable": false,
      "stateMutability": "view",
      "type": "function"
    },
    {
      "constant": false,
      "inputs": [
        {
          "name": "_to",
          "type": "address"
        },
        {
          "name": "_approved",
          "type": "bool"
        }
      ],
      "name": "setApprovalForAll",
      "outputs": [],
      "payable": false,
      "stateMutability": "nonpayable",
      "type": "function"
    },
    {
      "constant": false,
      "inputs": [
        {
          "name": "_to",
          "type": "address"
        },
        {
          "name": "_tokenId",
          "type": "uint256"
        }
      ],
      "name": "transfer",
      "outputs": [],
      "payable": false,
      "stateMutability": "nonpayable",
      "type": "function"
    },
    {
      "constant": false,
      "inputs": [
        {
          "name": "_tokenId",
          "type": "uint256"
        }
      ],
      "name": "takeOwnership",
      "outputs": [],
      "payable": false,
      "stateMutability": "nonpayable",
      "type": "function"
    },
    {
      "constant": false,
      "inputs": [
        {
          "name": "_allowedAddresses",
          "type": "uint256"
        }
      ],
      "name": "setAllowedWhitelistedAddresses",
      "outputs": [
        {
          "name": "",
          "type": "uint256"
        }
      ],
      "payable": false,
      "stateMutability": "nonpayable",
      "type": "function"
    },
    {
      "constant": true,
      "inputs": [
        {
          "name": "",
          "type": "address"
        },
        {
          "name": "",
          "type": "uint256"
        }
      ],
      "name": "companyMembers",
      "outputs": [
        {
          "name": "",
          "type": "string"
        }
      ],
      "payable": false,
      "stateMutability": "view",
      "type": "function"
    },
    {
      "constant": true,
      "inputs": [
        {
          "name": "_licenseId",
          "type": "uint256"
        }
      ],
      "name": "isValidLicense",
      "outputs": [
        {
          "name": "",
          "type": "bool"
        }
      ],
      "payable": false,
      "stateMutability": "view",
      "type": "function"
    },
    {
      "constant": true,
      "inputs": [],
      "name": "newOwner",
      "outputs": [
        {
          "name": "",
          "type": "address"
        }
      ],
      "payable": false,
      "stateMutability": "view",
      "type": "function"
    },
    {
      "constant": true,
      "inputs": [],
      "name": "getLicenseExpiryTime",
      "outputs": [
        {
          "name": "",
          "type": "uint256"
        }
      ],
      "payable": false,
      "stateMutability": "view",
      "type": "function"
    },
    {
      "constant": true,
      "inputs": [
        {
          "name": "_owner",
          "type": "address"
        },
        {
          "name": "_operator",
          "type": "address"
        }
      ],
      "name": "isApprovedForAll",
      "outputs": [
        {
          "name": "",
          "type": "bool"
        }
      ],
      "payable": false,
      "stateMutability": "view",
      "type": "function"
    },
    {
      "constant": true,
      "inputs": [
        {
          "name": "_tokenId",
          "type": "uint256"
        }
      ],
      "name": "getApprovedAddress",
      "outputs": [
        {
          "name": "",
          "type": "address"
        }
      ],
      "payable": false,
      "stateMutability": "view",
      "type": "function"
    },
    {
      "constant": false,
      "inputs": [
        {
          "name": "_newOwner",
          "type": "address"
        }
      ],
      "name": "transferOwnership",
      "outputs": [],
      "payable": false,
      "stateMutability": "nonpayable",
      "type": "function"
    },
    {
      "constant": true,
      "inputs": [
        {
          "name": "_licenseId",
          "type": "uint256"
        }
      ],
      "name": "getLicenseInfo",
      "outputs": [
        {
          "name": "companyId",
          "type": "string"
        },
        {
          "name": "issuedTime",
          "type": "uint256"
        },
        {
          "name": "expiryTime",
          "type": "uint256"
        },
        {
          "name": "whitelistedAddresses",
          "type": "address[]"
        }
      ],
      "payable": false,
      "stateMutability": "view",
      "type": "function"
    },
    {
      "inputs": [
        {
          "name": "_name",
          "type": "string"
        },
        {
          "name": "_symbol",
          "type": "string"
        }
      ],
      "payable": false,
      "stateMutability": "nonpayable",
      "type": "constructor"
    },
    {
      "anonymous": false,
      "inputs": [
        {
          "indexed": true,
          "name": "_from",
          "type": "address"
        },
        {
          "indexed": true,
          "name": "_to",
          "type": "address"
        },
        {
          "indexed": false,
          "name": "_tokenId",
          "type": "uint256"
        }
      ],
      "name": "Transfer",
      "type": "event"
    },
    {
      "anonymous": false,
      "inputs": [
        {
          "indexed": true,
          "name": "_owner",
          "type": "address"
        },
        {
          "indexed": true,
          "name": "_approved",
          "type": "address"
        },
        {
          "indexed": false,
          "name": "_tokenId",
          "type": "uint256"
        }
      ],
      "name": "Approval",
      "type": "event"
    },
    {
      "anonymous": false,
      "inputs": [
        {
          "indexed": true,
          "name": "_owner",
          "type": "address"
        },
        {
          "indexed": true,
          "name": "_operator",
          "type": "address"
        },
        {
          "indexed": false,
          "name": "_approved",
          "type": "bool"
        }
      ],
      "name": "ApprovalForAll",
      "type": "event"
    },
    {
      "anonymous": false,
      "inputs": [
        {
          "indexed": true,
          "name": "owner",
          "type": "address"
        },
        {
          "indexed": false,
          "name": "licenseId",
          "type": "uint256"
        },
        {
          "indexed": false,
          "name": "companyId",
          "type": "string"
        },
        {
          "indexed": false,
          "name": "issuedTime",
          "type": "uint256"
        },
        {
          "indexed": false,
          "name": "expiryTime",
          "type": "uint256"
        }
      ],
      "name": "LicenseIssued",
      "type": "event"
    },
    {
      "anonymous": false,
      "inputs": [
        {
          "indexed": true,
          "name": "_from",
          "type": "address"
        },
        {
          "indexed": true,
          "name": "_to",
          "type": "address"
        }
      ],
      "name": "OwnershipTransferred",
      "type": "event"
    },
    {
      "constant": false,
      "inputs": [
        {
          "name": "_tokenSaleAddress",
          "type": "address"
        }
      ],
      "name": "setTokenSaleAddress",
      "outputs": [],
      "payable": false,
      "stateMutability": "nonpayable",
      "type": "function"
    },
    {
      "constant": true,
      "inputs": [],
      "name": "getTokenSaleAddress",
      "outputs": [
        {
          "name": "",
          "type": "address"
        }
      ],
      "payable": false,
      "stateMutability": "view",
      "type": "function"
    },
    {
      "constant": true,
      "inputs": [
        {
          "name": "_whitelistedAddress",
          "type": "address"
        },
        {
          "name": "_companyId",
          "type": "string"
        }
      ],
      "name": "hasBAMAccess",
      "outputs": [
        {
          "name": "",
          "type": "bool"
        }
      ],
      "payable": false,
      "stateMutability": "view",
      "type": "function"
    },
    {
      "constant": false,
      "inputs": [
        {
          "name": "_to",
          "type": "address"
        },
        {
          "name": "_companyId",
          "type": "string"
        },
        {
          "name": "_whitelistedAddresses",
          "type": "address[]"
        }
      ],
      "name": "mint",
      "outputs": [
        {
          "name": "_tokenId",
          "type": "uint256"
        }
      ],
      "payable": false,
      "stateMutability": "nonpayable",
      "type": "function"
    },
    {
      "constant": false,
      "inputs": [
        {
          "name": "_licenseId",
          "type": "uint256"
        }
      ],
      "name": "renew",
      "outputs": [
        {
          "name": "",
          "type": "bool"
        }
      ],
      "payable": false,
      "stateMutability": "nonpayable",
      "type": "function"
    },
    {
      "constant": false,
      "inputs": [
        {
          "name": "_licenseId",
          "type": "uint256"
        },
        {
          "name": "_whitelistedAddress",
          "type": "address"
        }
      ],
      "name": "addLicenseWhitelistedAddress",
      "outputs": [
        {
          "name": "",
          "type": "address[]"
        }
      ],
      "payable": false,
      "stateMutability": "nonpayable",
      "type": "function"
    },
    {
      "constant": false,
      "inputs": [
        {
          "name": "_licenseId",
          "type": "uint256"
        },
        {
          "name": "_whitelistedAddresses",
          "type": "address[]"
        }
      ],
      "name": "addLicenseWhitelistedAddressBulk",
      "outputs": [
        {
          "name": "",
          "type": "address[]"
        }
      ],
      "payable": false,
      "stateMutability": "nonpayable",
      "type": "function"
    },
    {
      "constant": false,
      "inputs": [
        {
          "name": "_licenseId",
          "type": "uint256"
        },
        {
          "name": "_whitelistedAddress",
          "type": "address"
        }
      ],
      "name": "removeLicenseWhitelistedAddress",
      "outputs": [
        {
          "name": "",
          "type": "address[]"
        }
      ],
      "payable": false,
      "stateMutability": "nonpayable",
      "type": "function"
    },
    {
      "constant": false,
      "inputs": [
        {
          "name": "_licenseId",
          "type": "uint256"
        },
        {
          "name": "_whitelistedAddresses",
          "type": "address[]"
        }
      ],
      "name": "removeLicenseWhitelistedAddressBulk",
      "outputs": [
        {
          "name": "",
          "type": "address[]"
        }
      ],
      "payable": false,
      "stateMutability": "nonpayable",
      "type": "function"
    }
  ],
  "bytecode": "0x608060405260056003556301e133806004553480156200001e57600080fd5b5060405162004fae38038062004fae8339810180604052620000449190810190620001cf565b8181336000806101000a81548173ffffffffffffffffffffffffffffffffffffffff021916908373ffffffffffffffffffffffffffffffffffffffff16021790555081600e90805190602001906200009e929190620000c2565b5080600f9080519060200190620000b7929190620000c2565b5050505050620002d3565b828054600181600116156101000203166002900490600052602060002090601f016020900481019282601f106200010557805160ff191683800117855562000136565b8280016001018555821562000136579182015b828111156200013557825182559160200191906001019062000118565b5b50905062000145919062000149565b5090565b6200016e91905b808211156200016a57600081600090555060010162000150565b5090565b90565b600082601f83011215156200018557600080fd5b81516200019c620001968262000270565b62000242565b91508082526020830160208301858383011115620001b957600080fd5b620001c68382846200029d565b50505092915050565b60008060408385031215620001e357600080fd5b600083015167ffffffffffffffff811115620001fe57600080fd5b6200020c8582860162000171565b925050602083015167ffffffffffffffff8111156200022a57600080fd5b620002388582860162000171565b9150509250929050565b6000604051905081810181811067ffffffffffffffff821117156200026657600080fd5b8060405250919050565b600067ffffffffffffffff8211156200028857600080fd5b601f19601f8301169050602081019050919050565b60005b83811015620002bd578082015181840152602081019050620002a0565b83811115620002cd576000848401525b50505050565b614ccb80620002e36000396000f30060806040526004361061021a576000357c0100000000000000000000000000000000000000000000000000000000900463ffffffff1680630621472c1461021f57806306fdde0314610248578063095ea7b3146102735780630a3f5b6e1461029c57806318160ddd146102d95780631d186aa1146103045780631dabeb5f14610341578063236c397f1461037e57806323b872dd146103bb57806324249136146103e45780632f745c591461042157806338b6f2a71461045e57806338df9b361461049b578063439d4b5c146104d85780634f6ccce71461051557806351dabd45146105525780635a3f26721461057b5780635afe5207146105b85780635baa7509146105e15780635eca6ec01461061e5780636352211e1461064957806370a08231146106865780637353e46b146106c35780637940df841461070057806379ba50971461073d57806379fb97e81461075457806381257f421461077f5780638da5cb5b146107bc57806395d89b41146107e7578063a22cb46514610812578063a9059cbb1461083b578063b2e6ceeb14610864578063b84e57351461088d578063b8bec0de146108ca578063c665b9d414610907578063d4ee1d9014610944578063d9f772a91461096f578063de49455f146109ac578063e67e63f4146109d7578063e985e9c514610a14578063eca4742a14610a51578063f2fde38b14610a8e578063f3c2cf6514610ab7578063f7a07d4114610af7575b600080fd5b34801561022b57600080fd5b506102466004803603610241919081019061446a565b610b34565b005b34801561025457600080fd5b5061025d610ca9565b60405161026a9190614a16565b60405180910390f35b34801561027f57600080fd5b5061029a60048036036102959190810190614637565b610d4b565b005b3480156102a857600080fd5b506102c360048036036102be91908101906145e3565b610ede565b6040516102d091906149d9565b60405180910390f35b3480156102e557600080fd5b506102ee610f46565b6040516102fb9190614a8b565b60405180910390f35b34801561031057600080fd5b5061032b600480360361032691908101906146b4565b610f53565b6040516103389190614a16565b60405180910390f35b34801561034d57600080fd5b50610368600480360361036391908101906146b4565b611015565b6040516103759190614a8b565b60405180910390f35b34801561038a57600080fd5b506103a560048036036103a09190810190614673565b61103f565b6040516103b29190614a8b565b60405180910390f35b3480156103c757600080fd5b506103e260048036036103dd91908101906144cf565b611138565b005b3480156103f057600080fd5b5061040b6004803603610406919081019061446a565b6111a6565b6040516104189190614995565b60405180910390f35b34801561042d57600080fd5b5061044860048036036104439190810190614637565b6112ce565b6040516104559190614a8b565b60405180910390f35b34801561046a57600080fd5b50610485600480360361048091908101906146b4565b611345565b6040516104929190614a8b565b60405180910390f35b3480156104a757600080fd5b506104c260048036036104bd91908101906146dd565b61136f565b6040516104cf9190614973565b60405180910390f35b3480156104e457600080fd5b506104ff60048036036104fa91908101906146b4565b611557565b60405161050c91906149d9565b60405180910390f35b34801561052157600080fd5b5061053c600480360361053791908101906146b4565b6115fb565b6040516105499190614a8b565b60405180910390f35b34801561055e57600080fd5b506105796004803603610574919081019061446a565b61161a565b005b34801561058757600080fd5b506105a2600480360361059d919081019061446a565b61174a565b6040516105af91906149b7565b60405180910390f35b3480156105c457600080fd5b506105df60048036036105da919081019061446a565b61181d565b005b3480156105ed57600080fd5b50610608600480360361060391908101906146b4565b6118f8565b60405161061591906149d9565b60405180910390f35b34801561062a57600080fd5b506106336119bd565b6040516106409190614a8b565b60405180910390f35b34801561065557600080fd5b50610670600480360361066b91908101906146b4565b6119c7565b60405161067d9190614958565b60405180910390f35b34801561069257600080fd5b506106ad60048036036106a8919081019061446a565b611a45565b6040516106ba9190614a8b565b60405180910390f35b3480156106cf57600080fd5b506106ea60048036036106e591908101906146b4565b611acc565b6040516106f79190614a8b565b60405180910390f35b34801561070c57600080fd5b5061072760048036036107229190810190614719565b611b3a565b6040516107349190614973565b60405180910390f35b34801561074957600080fd5b50610752611de5565b005b34801561076057600080fd5b50610769611f84565b6040516107769190614958565b60405180910390f35b34801561078b57600080fd5b506107a660048036036107a191908101906146b4565b611fae565b6040516107b39190614973565b60405180910390f35b3480156107c857600080fd5b506107d161205c565b6040516107de9190614958565b60405180910390f35b3480156107f357600080fd5b506107fc612081565b6040516108099190614a16565b60405180910390f35b34801561081e57600080fd5b506108396004803603610834919081019061451e565b612123565b005b34801561084757600080fd5b50610862600480360361085d9190810190614637565b612145565b005b34801561087057600080fd5b5061088b600480360361088691908101906146b4565b612198565b005b34801561089957600080fd5b506108b460048036036108af91908101906146b4565b6121c2565b6040516108c19190614a8b565b60405180910390f35b3480156108d657600080fd5b506108f160048036036108ec9190810190614637565b612240565b6040516108fe91906149f4565b60405180910390f35b34801561091357600080fd5b5061092e600480360361092991908101906146b4565b612308565b60405161093b91906149d9565b60405180910390f35b34801561095057600080fd5b5061095961231a565b6040516109669190614958565b60405180910390f35b34801561097b57600080fd5b5061099660048036036109919190810190614719565b612340565b6040516109a39190614973565b60405180910390f35b3480156109b857600080fd5b506109c16126c5565b6040516109ce9190614a8b565b60405180910390f35b3480156109e357600080fd5b506109fe60048036036109f9919081019061455a565b6126cf565b604051610a0b9190614a8b565b60405180910390f35b348015610a2057600080fd5b50610a3b6004803603610a369190810190614493565b612a3c565b604051610a4891906149d9565b60405180910390f35b348015610a5d57600080fd5b50610a786004803603610a7391908101906146b4565b612ad0565b604051610a859190614958565b60405180910390f35b348015610a9a57600080fd5b50610ab56004803603610ab0919081019061446a565b612b0d565b005b348015610ac357600080fd5b50610ade6004803603610ad991908101906146b4565b612bac565b604051610aee9493929190614a38565b60405180910390f35b348015610b0357600080fd5b50610b1e6004803603610b1991908101906146dd565b612be6565b604051610b2b9190614973565b60405180910390f35b3373ffffffffffffffffffffffffffffffffffffffff168173ffffffffffffffffffffffffffffffffffffffff1614151515610b6f57600080fd5b600073ffffffffffffffffffffffffffffffffffffffff168173ffffffffffffffffffffffffffffffffffffffff1614151515610bab57600080fd5b6001600a60003373ffffffffffffffffffffffffffffffffffffffff1673ffffffffffffffffffffffffffffffffffffffff16815260200190815260200160002060008373ffffffffffffffffffffffffffffffffffffffff1673ffffffffffffffffffffffffffffffffffffffff16815260200190815260200160002060006101000a81548160ff0219169083151502179055508073ffffffffffffffffffffffffffffffffffffffff163373ffffffffffffffffffffffffffffffffffffffff167f17307eab39ab6107e8899845ad3d59bd9653f200f220920489ca2b5937696c316001604051610c9e91906149d9565b60405180910390a350565b6060600e8054600181600116156101000203166002900480601f016020809104026020016040519081016040528092919081815260200182805460018160011615610100020316600290048015610d415780601f10610d1657610100808354040283529160200191610d41565b820191906000526020600020905b815481529060010190602001808311610d2457829003601f168201915b5050505050905090565b6000813373ffffffffffffffffffffffffffffffffffffffff16610d6e826119c7565b73ffffffffffffffffffffffffffffffffffffffff16141515610d9057600080fd5b610d99836119c7565b91508173ffffffffffffffffffffffffffffffffffffffff168473ffffffffffffffffffffffffffffffffffffffff1614151515610dd657600080fd5b6000610de184612ad0565b73ffffffffffffffffffffffffffffffffffffffff16141580610e1b575060008473ffffffffffffffffffffffffffffffffffffffff1614155b15610ed857836009600085815260200190815260200160002060006101000a81548173ffffffffffffffffffffffffffffffffffffffff021916908373ffffffffffffffffffffffffffffffffffffffff1602179055508373ffffffffffffffffffffffffffffffffffffffff168273ffffffffffffffffffffffffffffffffffffffff167f8c5be1e5ebec7d5bd14f71427d1e84f3dd0314c0f7b2291e5b200ac8c7c3b92585604051610ecf9190614a8b565b60405180910390a35b50505050565b600060606000610eed856111a6565b9150600090505b8151811015610f3957610f1e8282815181101515610f0e57fe5b9060200190602002015185612ef6565b15610f2c5760019250610f3e565b8080600101915050610ef4565b600092505b505092915050565b6000600d80549050905090565b6060600282815481101515610f6457fe5b90600052602060002090600402016000018054600181600116156101000203166002900480601f0160208091040260200160405190810160405280929190818152602001828054600181600116156101000203166002900480156110095780601f10610fde57610100808354040283529160200191611009565b820191906000526020600020905b815481529060010190602001808311610fec57829003601f168201915b50505050509050919050565b600060028281548110151561102657fe5b9060005260206000209060040201600101549050919050565b60006006826040518082805190602001908083835b6020831015156110795780518252602082019150602081019050602083039250611054565b6001836020036101000a038019825116818451168082178552505050505050905001915050908152602001604051809103902060009054906101000a900460ff1615156110c557600080fd5b6005826040518082805190602001908083835b6020831015156110fd57805182526020820191506020810190506020830392506110d8565b6001836020036101000a0380198251168184511680821785525050505050509050019150509081526020016040518091039020549050919050565b61114181612fcf565b151561114c57600080fd5b8273ffffffffffffffffffffffffffffffffffffffff1661116c826119c7565b73ffffffffffffffffffffffffffffffffffffffff1614151561118e57600080fd5b6111a161119a826119c7565b8383613039565b505050565b6060600760008373ffffffffffffffffffffffffffffffffffffffff1673ffffffffffffffffffffffffffffffffffffffff168152602001908152602001600020805480602002602001604051908101604052809291908181526020016000905b828210156112c3578382906000526020600020018054600181600116156101000203166002900480601f0160208091040260200160405190810160405280929190818152602001828054600181600116156101000203166002900480156112af5780601f10611284576101008083540402835291602001916112af565b820191906000526020600020905b81548152906001019060200180831161129257829003601f168201915b505050505081526020019060010190611207565b505050509050919050565b60006112d983611a45565b821015156112e657600080fd5b600b60008473ffffffffffffffffffffffffffffffffffffffff1673ffffffffffffffffffffffffffffffffffffffff1681526020019081526020016000208281548110151561133257fe5b9060005260206000200154905092915050565b600060028281548110151561135657fe5b9060005260206000209060040201600201549050919050565b60606000601160009054906101000a900473ffffffffffffffffffffffffffffffffffffffff1673ffffffffffffffffffffffffffffffffffffffff163373ffffffffffffffffffffffffffffffffffffffff161415156113cf57600080fd5b6113d88461305d565b15156113e357600080fd5b6113ec84613089565b15156113f757600080fd5b600073ffffffffffffffffffffffffffffffffffffffff168373ffffffffffffffffffffffffffffffffffffffff161415151561143357600080fd5b60028481548110151561144257fe5b90600052602060002090600402019050806003018390806001815401808255809150509060018203906000526020600020016000909192909190916101000a81548173ffffffffffffffffffffffffffffffffffffffff021916908373ffffffffffffffffffffffffffffffffffffffff160217905550506114c484846130ba565b508060030180548060200260200160405190810160405280929190818152602001828054801561154957602002820191906000526020600020905b8160009054906101000a900473ffffffffffffffffffffffffffffffffffffffff1673ffffffffffffffffffffffffffffffffffffffff16815260200190600101908083116114ff575b505050505091505092915050565b60008060009054906101000a900473ffffffffffffffffffffffffffffffffffffffff1673ffffffffffffffffffffffffffffffffffffffff163373ffffffffffffffffffffffffffffffffffffffff161415156115b457600080fd5b6115bd8261305d565b15156115c857600080fd5b6201518042036002838154811015156115dd57fe5b90600052602060002090600402016002018190555060019050919050565b6000611605610f46565b8210151561161257600080fd5b819050919050565b3373ffffffffffffffffffffffffffffffffffffffff168173ffffffffffffffffffffffffffffffffffffffff161415151561165557600080fd5b600a60003373ffffffffffffffffffffffffffffffffffffffff1673ffffffffffffffffffffffffffffffffffffffff16815260200190815260200160002060008273ffffffffffffffffffffffffffffffffffffffff1673ffffffffffffffffffffffffffffffffffffffff16815260200190815260200160002060006101000a81549060ff02191690558073ffffffffffffffffffffffffffffffffffffffff163373ffffffffffffffffffffffffffffffffffffffff167f17307eab39ab6107e8899845ad3d59bd9653f200f220920489ca2b5937696c31600060405161173f91906149d9565b60405180910390a350565b6060600073ffffffffffffffffffffffffffffffffffffffff168273ffffffffffffffffffffffffffffffffffffffff161415151561178857600080fd5b600b60008373ffffffffffffffffffffffffffffffffffffffff1673ffffffffffffffffffffffffffffffffffffffff16815260200190815260200160002080548060200260200160405190810160405280929190818152602001828054801561181157602002820191906000526020600020905b8154815260200190600101908083116117fd575b50505050509050919050565b6000809054906101000a900473ffffffffffffffffffffffffffffffffffffffff1673ffffffffffffffffffffffffffffffffffffffff163373ffffffffffffffffffffffffffffffffffffffff1614151561187857600080fd5b600073ffffffffffffffffffffffffffffffffffffffff168173ffffffffffffffffffffffffffffffffffffffff16141515156118b457600080fd5b80601160006101000a81548173ffffffffffffffffffffffffffffffffffffffff021916908373ffffffffffffffffffffffffffffffffffffffff16021790555050565b60008060009054906101000a900473ffffffffffffffffffffffffffffffffffffffff1673ffffffffffffffffffffffffffffffffffffffff163373ffffffffffffffffffffffffffffffffffffffff1614806119a25750601160009054906101000a900473ffffffffffffffffffffffffffffffffffffffff1673ffffffffffffffffffffffffffffffffffffffff163373ffffffffffffffffffffffffffffffffffffffff16145b15156119ad57600080fd5b6119b682613371565b9050919050565b6000600354905090565b6000806008600084815260200190815260200160002060009054906101000a900473ffffffffffffffffffffffffffffffffffffffff169050600073ffffffffffffffffffffffffffffffffffffffff168173ffffffffffffffffffffffffffffffffffffffff1614151515611a3c57600080fd5b80915050919050565b60008073ffffffffffffffffffffffffffffffffffffffff168273ffffffffffffffffffffffffffffffffffffffff1614151515611a8257600080fd5b600b60008373ffffffffffffffffffffffffffffffffffffffff1673ffffffffffffffffffffffffffffffffffffffff168152602001908152602001600020805490509050919050565b60008060009054906101000a900473ffffffffffffffffffffffffffffffffffffffff1673ffffffffffffffffffffffffffffffffffffffff163373ffffffffffffffffffffffffffffffffffffffff16141515611b2957600080fd5b816004819055506004549050919050565b6060600080601160009054906101000a900473ffffffffffffffffffffffffffffffffffffffff1673ffffffffffffffffffffffffffffffffffffffff163373ffffffffffffffffffffffffffffffffffffffff16141515611b9b57600080fd5b611ba48661305d565b1515611baf57600080fd5b600085859050111515611bc157600080fd5b611bca86613089565b1515611bd557600080fd5b611be286868690506133d5565b1515611bed57600080fd5b600286815481101515611bfc57fe5b90600052602060002090600402019150600090505b84849050811015611d5157600073ffffffffffffffffffffffffffffffffffffffff168585838181101515611c4257fe5b9050602002013573ffffffffffffffffffffffffffffffffffffffff1673ffffffffffffffffffffffffffffffffffffffff16141515611d4457816003018585838181101515611c8e57fe5b9050602002013573ffffffffffffffffffffffffffffffffffffffff1690806001815401808255809150509060018203906000526020600020016000909192909190916101000a81548173ffffffffffffffffffffffffffffffffffffffff021916908373ffffffffffffffffffffffffffffffffffffffff16021790555050611d42868686848181101515611d2057fe5b9050602002013573ffffffffffffffffffffffffffffffffffffffff166130ba565b505b8080600101915050611c11565b81600301805480602002602001604051908101604052809291908181526020018280548015611dd557602002820191906000526020600020905b8160009054906101000a900473ffffffffffffffffffffffffffffffffffffffff1673ffffffffffffffffffffffffffffffffffffffff1681526020019060010190808311611d8b575b5050505050925050509392505050565b600160009054906101000a900473ffffffffffffffffffffffffffffffffffffffff1673ffffffffffffffffffffffffffffffffffffffff163373ffffffffffffffffffffffffffffffffffffffff16141515611e4157600080fd5b600160009054906101000a900473ffffffffffffffffffffffffffffffffffffffff1673ffffffffffffffffffffffffffffffffffffffff166000809054906101000a900473ffffffffffffffffffffffffffffffffffffffff1673ffffffffffffffffffffffffffffffffffffffff167f8be0079c531659141344cd1fd0a4f28419497f9722a3daafe3b4186f6b6457e060405160405180910390a3600160009054906101000a900473ffffffffffffffffffffffffffffffffffffffff166000806101000a81548173ffffffffffffffffffffffffffffffffffffffff021916908373ffffffffffffffffffffffffffffffffffffffff1602179055506000600160006101000a81548173ffffffffffffffffffffffffffffffffffffffff021916908373ffffffffffffffffffffffffffffffffffffffff160217905550565b6000601160009054906101000a900473ffffffffffffffffffffffffffffffffffffffff16905090565b6060600282815481101515611fbf57fe5b906000526020600020906004020160030180548060200260200160405190810160405280929190818152602001828054801561205057602002820191906000526020600020905b8160009054906101000a900473ffffffffffffffffffffffffffffffffffffffff1673ffffffffffffffffffffffffffffffffffffffff1681526020019060010190808311612006575b50505050509050919050565b6000809054906101000a900473ffffffffffffffffffffffffffffffffffffffff1681565b6060600f8054600181600116156101000203166002900480601f0160208091040260200160405190810160405280929190818152602001828054600181600116156101000203166002900480156121195780601f106120ee57610100808354040283529160200191612119565b820191906000526020600020905b8154815290600101906020018083116120fc57829003601f168201915b5050505050905090565b80156121375761213282610b34565b612141565b6121408261161a565b5b5050565b803373ffffffffffffffffffffffffffffffffffffffff16612166826119c7565b73ffffffffffffffffffffffffffffffffffffffff1614151561218857600080fd5b612193338484613039565b505050565b6121a181612fcf565b15156121ac57600080fd5b6121bf6121b8826119c7565b3383613039565b50565b60008060009054906101000a900473ffffffffffffffffffffffffffffffffffffffff1673ffffffffffffffffffffffffffffffffffffffff163373ffffffffffffffffffffffffffffffffffffffff1614151561221f57600080fd5b6001821015151561222f57600080fd5b816003819055506003549050919050565b60076020528160005260406000208181548110151561225b57fe5b90600052602060002001600091509150508054600181600116156101000203166002900480601f0160208091040260200160405190810160405280929190818152602001828054600181600116156101000203166002900480156123005780601f106122d557610100808354040283529160200191612300565b820191906000526020600020905b8154815290600101906020018083116122e357829003601f168201915b505050505081565b60006123138261305d565b9050919050565b600160009054906101000a900473ffffffffffffffffffffffffffffffffffffffff1681565b6060600080600080601160009054906101000a900473ffffffffffffffffffffffffffffffffffffffff1673ffffffffffffffffffffffffffffffffffffffff163373ffffffffffffffffffffffffffffffffffffffff161415156123a457600080fd5b6123ad8861305d565b15156123b857600080fd5b6000878790501115156123ca57600080fd5b6002888154811015156123d957fe5b906000526020600020906004020193508360030180549050878790501115151561240257600080fd5b60018460030180549050039250600091505b868690508260ff16101561262f576124e1846003018054806020026020016040519081016040528092919081815260200182805480156124a957602002820191906000526020600020905b8160009054906101000a900473ffffffffffffffffffffffffffffffffffffffff1673ffffffffffffffffffffffffffffffffffffffff168152602001906001019080831161245f575b505050505088888560ff1681811015156124bf57fe5b9050602002013573ffffffffffffffffffffffffffffffffffffffff1661340a565b9050836003018054905081101561262257836003018381548110151561250357fe5b9060005260206000200160009054906101000a900473ffffffffffffffffffffffffffffffffffffffff16846003018281548110151561253f57fe5b9060005260206000200160006101000a81548173ffffffffffffffffffffffffffffffffffffffff021916908373ffffffffffffffffffffffffffffffffffffffff160217905550836003018381548110151561259857fe5b9060005260206000200160006101000a81549073ffffffffffffffffffffffffffffffffffffffff0219169055600184600301805490500384600301816125df9190614026565b508280600190039350506126208888888560ff1681811015156125fe57fe5b9050602002013573ffffffffffffffffffffffffffffffffffffffff16613487565b505b8180600101925050612414565b836003018054806020026020016040519081016040528092919081815260200182805480156126b357602002820191906000526020600020905b8160009054906101000a900473ffffffffffffffffffffffffffffffffffffffff1673ffffffffffffffffffffffffffffffffffffffff1681526020019060010190808311612669575b50505050509450505050509392505050565b6000600454905090565b60006126d9614052565b60008060009054906101000a900473ffffffffffffffffffffffffffffffffffffffff1673ffffffffffffffffffffffffffffffffffffffff163373ffffffffffffffffffffffffffffffffffffffff1614806127835750601160009054906101000a900473ffffffffffffffffffffffffffffffffffffffff1673ffffffffffffffffffffffffffffffffffffffff163373ffffffffffffffffffffffffffffffffffffffff16145b151561278e57600080fd5b600073ffffffffffffffffffffffffffffffffffffffff168873ffffffffffffffffffffffffffffffffffffffff16141515156127ca57600080fd5b600354858590501015156127dd57600080fd5b6006878760405180838380828437820191505092505050908152602001604051809103902060009054906101000a900460ff1615151561281c57600080fd5b61288787878080601f0160208091040260200160405190810160405280939291908181526020018383808284378201915050505050508686808060200260200160405190810160405280939291908181526020018383602002808284378201915050505050506138bf565b915060016002839080600181540180825580915050906001820390600052602060002090600402016000909192909190915060008201518160000190805190602001906128d592919061407b565b50602082015181600101556040820151816002015560608201518160030190805190602001906129069291906140fb565b5050500392506129168884613911565b600090505b848490508110156129685761295a83868684818110151561293857fe5b9050602002013573ffffffffffffffffffffffffffffffffffffffff166130ba565b50808060010191505061291b565b82600588886040518083838082843782019150509250505090815260200160405180910390208190555060016006888860405180838380828437820191505092505050908152602001604051809103902060006101000a81548160ff0219169083151502179055508773ffffffffffffffffffffffffffffffffffffffff167f1057aa736b902da038c306c2c35f7b3cc6051fca53a8e4f6c7c24c22808f356c84898986602001518760400151604051612a26959493929190614aa6565b60405180910390a2829250505095945050505050565b6000600a60008473ffffffffffffffffffffffffffffffffffffffff1673ffffffffffffffffffffffffffffffffffffffff16815260200190815260200160002060008373ffffffffffffffffffffffffffffffffffffffff1673ffffffffffffffffffffffffffffffffffffffff16815260200190815260200160002060009054906101000a900460ff16905092915050565b60006009600083815260200190815260200160002060009054906101000a900473ffffffffffffffffffffffffffffffffffffffff169050919050565b6000809054906101000a900473ffffffffffffffffffffffffffffffffffffffff1673ffffffffffffffffffffffffffffffffffffffff163373ffffffffffffffffffffffffffffffffffffffff16141515612b6857600080fd5b80600160006101000a81548173ffffffffffffffffffffffffffffffffffffffff021916908373ffffffffffffffffffffffffffffffffffffffff16021790555050565b60606000806060612bbc85610f53565b612bc586611015565b612bce87611345565b612bd788611fae565b93509350935093509193509193565b60606000806000601160009054906101000a900473ffffffffffffffffffffffffffffffffffffffff1673ffffffffffffffffffffffffffffffffffffffff163373ffffffffffffffffffffffffffffffffffffffff16141515612c4957600080fd5b612c528661305d565b1515612c5d57600080fd5b600073ffffffffffffffffffffffffffffffffffffffff168573ffffffffffffffffffffffffffffffffffffffff1614151515612c9957600080fd5b600286815481101515612ca857fe5b9060005260206000209060040201925060018360030180549050039150612d5783600301805480602002602001604051908101604052809291908181526020018280548015612d4c57602002820191906000526020600020905b8160009054906101000a900473ffffffffffffffffffffffffffffffffffffffff1673ffffffffffffffffffffffffffffffffffffffff1681526020019060010190808311612d02575b50505050508661340a565b90508260030180549050811015612e62578260030182815481101515612d7957fe5b9060005260206000200160009054906101000a900473ffffffffffffffffffffffffffffffffffffffff168360030182815481101515612db557fe5b9060005260206000200160006101000a81548173ffffffffffffffffffffffffffffffffffffffff021916908373ffffffffffffffffffffffffffffffffffffffff1602179055508260030182815481101515612e0e57fe5b9060005260206000200160006101000a81549073ffffffffffffffffffffffffffffffffffffffff021916905560018360030180549050038360030181612e559190614026565b50612e608686613487565b505b82600301805480602002602001604051908101604052809291908181526020018280548015612ee657602002820191906000526020600020905b8160009054906101000a900473ffffffffffffffffffffffffffffffffffffffff1673ffffffffffffffffffffffffffffffffffffffff1681526020019060010190808311612e9c575b5050505050935050505092915050565b6000816040518082805190602001908083835b602083101515612f2e5780518252602082019150602081019050602083039250612f09565b6001836020036101000a038019825116818451168082178552505050505050905001915050604051809103902060001916836040518082805190602001908083835b602083101515612f955780518252602082019150602081019050602083039250612f70565b6001836020036101000a03801982511681845116808217855250505050505090500191505060405180910390206000191614905092915050565b60003373ffffffffffffffffffffffffffffffffffffffff16612ff1836119c7565b73ffffffffffffffffffffffffffffffffffffffff161480613019575061301833836139ab565b5b80613032575061303161302b836119c7565b33612a3c565b5b9050919050565b6130428161305d565b151561304d57600080fd5b6130588383836139ec565b505050565b60004260028381548110151561306f57fe5b906000526020600020906004020160020154119050919050565b600060035460028381548110151561309d57fe5b906000526020600020906004020160030180549050109050919050565b60008060006002858154811015156130ce57fe5b90600052602060002090600402016000019150600090505b600760008573ffffffffffffffffffffffffffffffffffffffff1673ffffffffffffffffffffffffffffffffffffffff168152602001908152602001600020805490508110156132dc576132c1828054600181600116156101000203166002900480601f0160208091040260200160405190810160405280929190818152602001828054600181600116156101000203166002900480156131c85780601f1061319d576101008083540402835291602001916131c8565b820191906000526020600020905b8154815290600101906020018083116131ab57829003601f168201915b5050505050600760008773ffffffffffffffffffffffffffffffffffffffff1673ffffffffffffffffffffffffffffffffffffffff1681526020019081526020016000208381548110151561321957fe5b906000526020600020018054600181600116156101000203166002900480601f0160208091040260200160405190810160405280929190818152602001828054600181600116156101000203166002900480156132b75780601f1061328c576101008083540402835291602001916132b7565b820191906000526020600020905b81548152906001019060200180831161329a57829003601f168201915b5050505050612ef6565b156132cf5760009250613369565b80806001019150506130e6565b600760008573ffffffffffffffffffffffffffffffffffffffff1673ffffffffffffffffffffffffffffffffffffffff168152602001908152602001600020829080600181540180825580915050906001820390600052602060002001600090919290919091509080546001816001161561010002031660029004613362929190614185565b5050600192505b505092915050565b60006133a860045460028481548110151561338857fe5b906000526020600020906004020160020154613b3590919063ffffffff16565b6002838154811015156133b757fe5b90600052602060002090600402016002018190555060019050919050565b6000600354826002858154811015156133ea57fe5b906000526020600020906004020160030180549050011115905092915050565b600080600090505b835181101561347b57838181518110151561342957fe5b9060200190602002015173ffffffffffffffffffffffffffffffffffffffff168373ffffffffffffffffffffffffffffffffffffffff16141561346e57809150613480565b8080600101915050613412565b835191505b5092915050565b60008060008060028681548110151561349c57fe5b906000526020600020906004020160000192506001600760008773ffffffffffffffffffffffffffffffffffffffff1673ffffffffffffffffffffffffffffffffffffffff16815260200190815260200160002080549050039150600090505b600760008673ffffffffffffffffffffffffffffffffffffffff1673ffffffffffffffffffffffffffffffffffffffff168152602001908152602001600020805490508110156138b1576136d7838054600181600116156101000203166002900480601f0160208091040260200160405190810160405280929190818152602001828054600181600116156101000203166002900480156135de5780601f106135b3576101008083540402835291602001916135de565b820191906000526020600020905b8154815290600101906020018083116135c157829003601f168201915b5050505050600760008873ffffffffffffffffffffffffffffffffffffffff1673ffffffffffffffffffffffffffffffffffffffff1681526020019081526020016000208381548110151561362f57fe5b906000526020600020018054600181600116156101000203166002900480601f0160208091040260200160405190810160405280929190818152602001828054600181600116156101000203166002900480156136cd5780601f106136a2576101008083540402835291602001916136cd565b820191906000526020600020905b8154815290600101906020018083116136b057829003601f168201915b5050505050612ef6565b156138a457600760008673ffffffffffffffffffffffffffffffffffffffff1673ffffffffffffffffffffffffffffffffffffffff1681526020019081526020016000208281548110151561372857fe5b90600052602060002001600760008773ffffffffffffffffffffffffffffffffffffffff1673ffffffffffffffffffffffffffffffffffffffff1681526020019081526020016000208281548110151561377e57fe5b9060005260206000200190805460018160011615610100020316600290046137a7929190614185565b50600760008673ffffffffffffffffffffffffffffffffffffffff1673ffffffffffffffffffffffffffffffffffffffff168152602001908152602001600020828154811015156137f457fe5b90600052602060002001600061380a919061420c565b6001600760008773ffffffffffffffffffffffffffffffffffffffff1673ffffffffffffffffffffffffffffffffffffffff1681526020019081526020016000208054905003600760008773ffffffffffffffffffffffffffffffffffffffff1673ffffffffffffffffffffffffffffffffffffffff1681526020019081526020016000208161389a9190614254565b50600193506138b6565b80806001019150506134fc565b600093505b50505092915050565b6138c7614052565b6138cf614052565b6080604051908101604052808581526020014281526020016138fc60045442613b3590919063ffffffff16565b81526020018481525090508091505092915050565b600073ffffffffffffffffffffffffffffffffffffffff168273ffffffffffffffffffffffffffffffffffffffff161415151561394d57600080fd5b6139578282613b53565b8173ffffffffffffffffffffffffffffffffffffffff1660007fddf252ad1be2c89b69c2b068fc378daa952ba7f163c4a11628f55a4df523b3ef8360405161399f9190614a8b565b60405180910390a35050565b60008273ffffffffffffffffffffffffffffffffffffffff166139cd83612ad0565b73ffffffffffffffffffffffffffffffffffffffff1614905092915050565b600073ffffffffffffffffffffffffffffffffffffffff168273ffffffffffffffffffffffffffffffffffffffff1614151515613a2857600080fd5b613a31816119c7565b73ffffffffffffffffffffffffffffffffffffffff168273ffffffffffffffffffffffffffffffffffffffff1614151515613a6b57600080fd5b8273ffffffffffffffffffffffffffffffffffffffff16613a8b826119c7565b73ffffffffffffffffffffffffffffffffffffffff16141515613aad57600080fd5b613ab78382613cd1565b613ac18382613dba565b613acb8282613b53565b8173ffffffffffffffffffffffffffffffffffffffff168373ffffffffffffffffffffffffffffffffffffffff167fddf252ad1be2c89b69c2b068fc378daa952ba7f163c4a11628f55a4df523b3ef83604051613b289190614a8b565b60405180910390a3505050565b6000808284019050838110151515613b4957fe5b8091505092915050565b60008073ffffffffffffffffffffffffffffffffffffffff166008600084815260200190815260200160002060009054906101000a900473ffffffffffffffffffffffffffffffffffffffff1673ffffffffffffffffffffffffffffffffffffffff16141515613bc257600080fd5b826008600084815260200190815260200160002060006101000a81548173ffffffffffffffffffffffffffffffffffffffff021916908373ffffffffffffffffffffffffffffffffffffffff160217905550613c1d83611a45565b9050600b60008473ffffffffffffffffffffffffffffffffffffffff1673ffffffffffffffffffffffffffffffffffffffff16815260200190815260200160002082908060018154018082558091505090600182039060005260206000200160009091929091909150555080600c600084815260200190815260200160002081905550600d829080600181540180825580915050906001820390600052602060002001600090919290919091505550505050565b8173ffffffffffffffffffffffffffffffffffffffff16613cf1826119c7565b73ffffffffffffffffffffffffffffffffffffffff16141515613d1357600080fd5b60006009600083815260200190815260200160002060006101000a81548173ffffffffffffffffffffffffffffffffffffffff021916908373ffffffffffffffffffffffffffffffffffffffff16021790555060008273ffffffffffffffffffffffffffffffffffffffff167f8c5be1e5ebec7d5bd14f71427d1e84f3dd0314c0f7b2291e5b200ac8c7c3b92583604051613dae9190614a8b565b60405180910390a35050565b6000806000600c6000858152602001908152602001600020549250613df16001613de387611a45565b61400d90919063ffffffff16565b9150600b60008673ffffffffffffffffffffffffffffffffffffffff1673ffffffffffffffffffffffffffffffffffffffff16815260200190815260200160002082815481101515613e3f57fe5b9060005260206000200154905060006008600086815260200190815260200160002060006101000a81548173ffffffffffffffffffffffffffffffffffffffff021916908373ffffffffffffffffffffffffffffffffffffffff16021790555080600b60008773ffffffffffffffffffffffffffffffffffffffff1673ffffffffffffffffffffffffffffffffffffffff16815260200190815260200160002084815481101515613eec57fe5b90600052602060002001819055506000600b60008773ffffffffffffffffffffffffffffffffffffffff1673ffffffffffffffffffffffffffffffffffffffff16815260200190815260200160002083815481101515613f4857fe5b9060005260206000200181905550600b60008673ffffffffffffffffffffffffffffffffffffffff1673ffffffffffffffffffffffffffffffffffffffff168152602001908152602001600020805480919060019003613fa89190614280565b506000600c60008681526020019081526020016000208190555082600c600083815260200190815260200160002081905550600d8490806001815401808255809150509060018203906000526020600020016000909192909190915055505050505050565b600082821115151561401b57fe5b818303905092915050565b81548183558181111561404d5781836000526020600020918201910161404c91906142ac565b5b505050565b608060405190810160405280606081526020016000815260200160008152602001606081525090565b828054600181600116156101000203166002900490600052602060002090601f016020900481019282601f106140bc57805160ff19168380011785556140ea565b828001600101855582156140ea579182015b828111156140e95782518255916020019190600101906140ce565b5b5090506140f791906142ac565b5090565b828054828255906000526020600020908101928215614174579160200282015b828111156141735782518260006101000a81548173ffffffffffffffffffffffffffffffffffffffff021916908373ffffffffffffffffffffffffffffffffffffffff1602179055509160200191906001019061411b565b5b50905061418191906142d1565b5090565b828054600181600116156101000203166002900490600052602060002090601f016020900481019282601f106141be57805485556141fb565b828001600101855582156141fb57600052602060002091601f016020900482015b828111156141fa5782548255916001019190600101906141df565b5b50905061420891906142ac565b5090565b50805460018160011615610100020316600290046000825580601f106142325750614251565b601f01602090049060005260206000209081019061425091906142ac565b5b50565b81548183558181111561427b5781836000526020600020918201910161427a9190614314565b5b505050565b8154818355818111156142a7578183600052602060002091820191016142a691906142ac565b5b505050565b6142ce91905b808211156142ca5760008160009055506001016142b2565b5090565b90565b61431191905b8082111561430d57600081816101000a81549073ffffffffffffffffffffffffffffffffffffffff0219169055506001016142d7565b5090565b90565b61433d91905b808211156143395760008181614330919061420c565b5060010161431a565b5090565b90565b600061434c8235614c08565b905092915050565b60008083601f840112151561436857600080fd5b8235905067ffffffffffffffff81111561438157600080fd5b60208301915083602082028301111561439957600080fd5b9250929050565b60006143ac8235614c28565b905092915050565b60008083601f84011215156143c857600080fd5b8235905067ffffffffffffffff8111156143e157600080fd5b6020830191508360018202830111156143f957600080fd5b9250929050565b600082601f830112151561441357600080fd5b813561442661442182614b21565b614af4565b9150808252602083016020830185838301111561444257600080fd5b61444d838284614c3e565b50505092915050565b60006144628235614c34565b905092915050565b60006020828403121561447c57600080fd5b600061448a84828501614340565b91505092915050565b600080604083850312156144a657600080fd5b60006144b485828601614340565b92505060206144c585828601614340565b9150509250929050565b6000806000606084860312156144e457600080fd5b60006144f286828701614340565b935050602061450386828701614340565b925050604061451486828701614456565b9150509250925092565b6000806040838503121561453157600080fd5b600061453f85828601614340565b9250506020614550858286016143a0565b9150509250929050565b60008060008060006060868803121561457257600080fd5b600061458088828901614340565b955050602086013567ffffffffffffffff81111561459d57600080fd5b6145a9888289016143b4565b9450945050604086013567ffffffffffffffff8111156145c857600080fd5b6145d488828901614354565b92509250509295509295909350565b600080604083850312156145f657600080fd5b600061460485828601614340565b925050602083013567ffffffffffffffff81111561462157600080fd5b61462d85828601614400565b9150509250929050565b6000806040838503121561464a57600080fd5b600061465885828601614340565b925050602061466985828601614456565b9150509250929050565b60006020828403121561468557600080fd5b600082013567ffffffffffffffff81111561469f57600080fd5b6146ab84828501614400565b91505092915050565b6000602082840312156146c657600080fd5b60006146d484828501614456565b91505092915050565b600080604083850312156146f057600080fd5b60006146fe85828601614456565b925050602061470f85828601614340565b9150509250929050565b60008060006040848603121561472e57600080fd5b600061473c86828701614456565b935050602084013567ffffffffffffffff81111561475957600080fd5b61476586828701614354565b92509250509250925092565b61477a81614bd2565b82525050565b600061478b82614b74565b80845260208401935061479d83614b4d565b60005b828110156147cf576147b3868351614771565b6147bc82614bab565b91506020860195506001810190506147a0565b50849250505092915050565b60006147e682614b7f565b808452602084019350836020820285016147ff85614b5a565b60005b8481101561483857838303885261481a838351614913565b925061482582614bb8565b9150602088019750600181019050614802565b508196508694505050505092915050565b600061485482614b8a565b80845260208401935061486683614b67565b60005b828110156148985761487c868351614949565b61488582614bc5565b9150602086019550600181019050614869565b50849250505092915050565b6148ad81614bf2565b82525050565b60008284526020840193506148c9838584614c3e565b6148d283614c80565b840190509392505050565b60006148e882614ba0565b8084526148fc816020860160208601614c4d565b61490581614c80565b602085010191505092915050565b600061491e82614b95565b808452614932816020860160208601614c4d565b61493b81614c80565b602085010191505092915050565b61495281614bfe565b82525050565b600060208201905061496d6000830184614771565b92915050565b6000602082019050818103600083015261498d8184614780565b905092915050565b600060208201905081810360008301526149af81846147db565b905092915050565b600060208201905081810360008301526149d18184614849565b905092915050565b60006020820190506149ee60008301846148a4565b92915050565b60006020820190508181036000830152614a0e8184614913565b905092915050565b60006020820190508181036000830152614a3081846148dd565b905092915050565b60006080820190508181036000830152614a5281876148dd565b9050614a616020830186614949565b614a6e6040830185614949565b8181036060830152614a808184614780565b905095945050505050565b6000602082019050614aa06000830184614949565b92915050565b6000608082019050614abb6000830188614949565b8181036020830152614ace8186886148b3565b9050614add6040830185614949565b614aea6060830184614949565b9695505050505050565b6000604051905081810181811067ffffffffffffffff82111715614b1757600080fd5b8060405250919050565b600067ffffffffffffffff821115614b3857600080fd5b601f19601f8301169050602081019050919050565b6000602082019050919050565b6000602082019050919050565b6000602082019050919050565b600081519050919050565b600081519050919050565b600081519050919050565b600081519050919050565b600081519050919050565b6000602082019050919050565b6000602082019050919050565b6000602082019050919050565b600073ffffffffffffffffffffffffffffffffffffffff82169050919050565b60008115159050919050565b6000819050919050565b600073ffffffffffffffffffffffffffffffffffffffff82169050919050565b60008115159050919050565b6000819050919050565b82818337600083830152505050565b60005b83811015614c6b578082015181840152602081019050614c50565b83811115614c7a576000848401525b50505050565b6000601f19601f83011690509190505600a265627a7a72305820f7e2df1aafb24f1681a572324a351b0581fe871ac7ea6fe8cd52f1375097c24c6c6578706572696d656e74616cf50037",
  "source": "pragma solidity ^0.4.24;\npragma experimental ABIEncoderV2;\n\nimport './ERC721.sol';\nimport './License.sol';\nimport \"./helpers/SafeMath.sol\";\nimport \"./Allowance.sol\";\nimport \"./ERC721BasicToken.sol\";\n\ncontract BAMTokenContract is LicenseContract, ERC721BasicTokenContract {\n    using SafeMath for uint256;\n    address internal tokenSaleAddress;\n    \n    modifier onlyOwnerOrTokenSaleContract () {\n        require(msg.sender == owner || msg.sender == tokenSaleAddress);\n        _;\n    }\n    \n    modifier onlySaleContract () {\n        require(msg.sender == tokenSaleAddress);\n        _;\n    }\n    \n    constructor(string _name, string _symbol) ERC721BasicTokenContract(_name, _symbol) public {\n        \n    }\n    \n    function setTokenSaleAddress (address _tokenSaleAddress) public onlyOwner {\n        require(_tokenSaleAddress != address(0));\n        tokenSaleAddress = _tokenSaleAddress;\n    }\n    \n    function getTokenSaleAddress () public view returns (address) {\n        return tokenSaleAddress;\n    }\n    \n    function hasBAMAccess (address _whitelistedAddress, string _companyId) public view returns (bool) {\n        string[] memory companies = getCompanyIdByAddress(_whitelistedAddress);\n        for (uint256 i = 0; i < companies.length; i++) {\n            if (_compareStrings(companies[i], _companyId)){\n                return true;\n            }\n        }\n        return false;\n    }\n\n    function mint (address _to, string _companyId, address[] _whitelistedAddresses) external onlyOwnerOrTokenSaleContract returns (uint256 _tokenId){\n        require(_to != address(0));\n        require(_whitelistedAddresses.length < allowedWhitelistedAddresses);\n        require(!companyExists[_companyId]);\n\n        License memory _license = _createLicense(_companyId, _whitelistedAddresses);\n        \n        _tokenId = licenses.push(_license) - 1;\n        _mint(_to, _tokenId);\n        \n        for (uint256 i = 0; i < _whitelistedAddresses.length; i++) {\n            _addCompanyMember(_tokenId, _whitelistedAddresses[i]);\n        }\n\n        companyToLicenseId[_companyId] = _tokenId;\n        companyExists[_companyId] = true;\n        emit LicenseIssued(_to, _tokenId, _companyId, _license.issuedTime, _license.expiryTime);\n        return _tokenId;\n    }\n    \n    function renew (uint256 _licenseId) external onlyOwnerOrTokenSaleContract returns (bool) {\n        return _renewLicense(_licenseId);\n    }\n    \n    function findAddress(address[] haystack, address needle) pure internal returns(uint256){\n        for (uint256 i = 0; i < haystack.length; i++){\n            if (needle == haystack[i]) {\n                return i;\n            }\n        }\n        return haystack.length;\n    }    \n    \n    function addLicenseWhitelistedAddress(uint256 _licenseId, address _whitelistedAddress) external onlySaleContract returns (address[]){\n        require(_isValidLicense(_licenseId));\n        require(_isAllowedToAddAddress(_licenseId));\n        require(_whitelistedAddress != address(0));\n        License storage license = licenses[_licenseId];\n        \n        license.whitelistedAddresses.push(_whitelistedAddress);\n        _addCompanyMember(_licenseId, _whitelistedAddress);\n        return license.whitelistedAddresses;\n    }\n    \n    function addLicenseWhitelistedAddressBulk(uint256 _licenseId, address[] _whitelistedAddresses) external onlySaleContract returns (address[]){\n        require(_isValidLicense(_licenseId));\n        require(_whitelistedAddresses.length > 0);\n        require(_isAllowedToAddAddress(_licenseId));\n        require(_isAllowedToAddBulkAddresses(_licenseId, _whitelistedAddresses.length));\n        \n        License storage license = licenses[_licenseId];\n        \n        for(uint256 i = 0; i < _whitelistedAddresses.length; i++) {\n            if (_whitelistedAddresses[i] != address(0)) {\n                license.whitelistedAddresses.push(_whitelistedAddresses[i]);\n                _addCompanyMember(_licenseId, _whitelistedAddresses[i]);\n            }\n        }\n        \n        return license.whitelistedAddresses;\n    }\n    \n    function removeLicenseWhitelistedAddress(uint256 _licenseId, address _whitelistedAddress) external onlySaleContract returns (address[]){\n        require(_isValidLicense(_licenseId));\n        require(_whitelistedAddress != address(0));\n        License storage license = licenses[_licenseId];\n        \n        uint lastIndex = license.whitelistedAddresses.length - 1;\n        \n        uint256 addressIndex = findAddress(license.whitelistedAddresses, _whitelistedAddress);\n        if (addressIndex < license.whitelistedAddresses.length){\n            license.whitelistedAddresses[addressIndex] = license.whitelistedAddresses[lastIndex];\n            delete license.whitelistedAddresses[lastIndex];\n            license.whitelistedAddresses.length = license.whitelistedAddresses.length - 1;\n            _removeCompanyMember(_licenseId, _whitelistedAddress);\n        }\n        \n        return license.whitelistedAddresses;\n    }\n\n    function removeLicenseWhitelistedAddressBulk(uint256 _licenseId, address[] _whitelistedAddresses) external onlySaleContract returns (address[]){\n        require(_isValidLicense(_licenseId));\n        require(_whitelistedAddresses.length > 0);\n        License storage license = licenses[_licenseId];\n        \n        require(_whitelistedAddresses.length <= license.whitelistedAddresses.length);\n\n        uint lastIndex = license.whitelistedAddresses.length - 1;\n        for(uint8 i = 0; i < _whitelistedAddresses.length; i++) {\n            uint256 addressIndex = findAddress(license.whitelistedAddresses, _whitelistedAddresses[i]);\n            if (addressIndex < license.whitelistedAddresses.length) {\n                license.whitelistedAddresses[addressIndex] = license.whitelistedAddresses[lastIndex];\n                delete license.whitelistedAddresses[lastIndex];\n                license.whitelistedAddresses.length = license.whitelistedAddresses.length - 1;\n                lastIndex--;\n                _removeCompanyMember(_licenseId, _whitelistedAddresses[i]);\n            }\n        }\n        \n        return license.whitelistedAddresses;\n    }\n    \n    function _clearApprovalAndTransfer(address _from, address _to, uint256 _tokenId) internal {\n        require(_isValidLicense(_tokenId));\n        super._clearApprovalAndTransfer(_from, _to,_tokenId);\n    }\n}",
  "sourcePath": "/home/ubuntu/contracts/contracts/BAMToken.sol",
  "compiler": {
    "name": "solc",
    "version": "0.4.26+commit.4563c3fc.Emscripten.clang"
  },
  "schemaVersion": "2.0.3",
  "updatedAt": "2020-09-18T11:00:37.679Z"
}