{
  "contractName": "BillContract",
  "abi": [
    {
      "constant": true,
      "inputs": [
        {
          "name": "",
          "type": "uint256"
        }
      ],
      "name": "bills",
      "outputs": [
        {
          "name": "carrier_address",
          "type": "address"
        },
        {
          "name": "companyId",
          "type": "string"
        },
        {
          "name": "quoteId",
          "type": "string"
        }
      ],
      "payable": false,
      "stateMutability": "view",
      "type": "function"
    },
    {
      "constant": false,
      "inputs": [],
      "name": "acceptOwnership",
      "outputs": [],
      "payable": false,
      "stateMutability": "nonpayable",
      "type": "function"
    },
    {
      "constant": true,
      "inputs": [],
      "name": "owner",
      "outputs": [
        {
          "name": "",
          "type": "address"
        }
      ],
      "payable": false,
      "stateMutability": "view",
      "type": "function"
    },
    {
      "constant": true,
      "inputs": [],
      "name": "newOwner",
      "outputs": [
        {
          "name": "",
          "type": "address"
        }
      ],
      "payable": false,
      "stateMutability": "view",
      "type": "function"
    },
    {
      "constant": false,
      "inputs": [
        {
          "name": "_newOwner",
          "type": "address"
        }
      ],
      "name": "transferOwnership",
      "outputs": [],
      "payable": false,
      "stateMutability": "nonpayable",
      "type": "function"
    },
    {
      "anonymous": false,
      "inputs": [
        {
          "indexed": true,
          "name": "carrier_address",
          "type": "address"
        },
        {
          "indexed": false,
          "name": "tokenId",
          "type": "uint256"
        },
        {
          "indexed": false,
          "name": "quoteId",
          "type": "string"
        }
      ],
      "name": "BillCreated",
      "type": "event"
    },
    {
      "anonymous": false,
      "inputs": [
        {
          "indexed": true,
          "name": "_from",
          "type": "address"
        },
        {
          "indexed": true,
          "name": "_to",
          "type": "address"
        }
      ],
      "name": "OwnershipTransferred",
      "type": "event"
    },
    {
      "constant": true,
      "inputs": [
        {
          "name": "_billId",
          "type": "uint256"
        }
      ],
      "name": "getBillQuoteId",
      "outputs": [
        {
          "name": "quoteId",
          "type": "string"
        }
      ],
      "payable": false,
      "stateMutability": "view",
      "type": "function"
    },
    {
      "constant": true,
      "inputs": [
        {
          "name": "_billId",
          "type": "uint256"
        }
      ],
      "name": "getBillCompanyId",
      "outputs": [
        {
          "name": "companyId",
          "type": "string"
        }
      ],
      "payable": false,
      "stateMutability": "view",
      "type": "function"
    },
    {
      "constant": true,
      "inputs": [
        {
          "name": "_billId",
          "type": "uint256"
        }
      ],
      "name": "getBillCarrierAddress",
      "outputs": [
        {
          "name": "carrier_address",
          "type": "address"
        }
      ],
      "payable": false,
      "stateMutability": "view",
      "type": "function"
    },
    {
      "constant": true,
      "inputs": [
        {
          "name": "_billId",
          "type": "uint256"
        }
      ],
      "name": "getBillItems",
      "outputs": [
        {
          "components": [
            {
              "name": "id",
              "type": "uint256"
            },
            {
              "name": "quantity",
              "type": "uint256"
            },
            {
              "name": "price",
              "type": "uint256"
            },
            {
              "name": "weight",
              "type": "uint256"
            },
            {
              "name": "detail",
              "type": "string"
            }
          ],
          "name": "",
          "type": "tuple[]"
        }
      ],
      "payable": false,
      "stateMutability": "view",
      "type": "function"
    },
    {
      "constant": true,
      "inputs": [
        {
          "name": "_billId",
          "type": "uint256"
        }
      ],
      "name": "getBillInfo",
      "outputs": [
        {
          "name": "quoteId",
          "type": "string"
        },
        {
          "name": "carrier_address",
          "type": "address"
        },
        {
          "components": [
            {
              "name": "id",
              "type": "uint256"
            },
            {
              "name": "quantity",
              "type": "uint256"
            },
            {
              "name": "price",
              "type": "uint256"
            },
            {
              "name": "weight",
              "type": "uint256"
            },
            {
              "name": "detail",
              "type": "string"
            }
          ],
          "name": "items",
          "type": "tuple[]"
        }
      ],
      "payable": false,
      "stateMutability": "view",
      "type": "function"
    }
  ],
  "bytecode": "0x6080604052336000806101000a81548173ffffffffffffffffffffffffffffffffffffffff021916908373ffffffffffffffffffffffffffffffffffffffff16021790555061100d806100536000396000f3006080604052600436106100a4576000357c0100000000000000000000000000000000000000000000000000000000900463ffffffff16806302039b47146100a957806328bdcde8146100e65780632ff7dbc31461012557806339e5a3141461016257806352f61b051461019f57806379ba5097146101de5780638da5cb5b146101f5578063d4ee1d9014610220578063df5ef88d1461024b578063f2fde38b14610288575b600080fd5b3480156100b557600080fd5b506100d060048036036100cb9190810190610c80565b6102b1565b6040516100dd9190610e99565b60405180910390f35b3480156100f257600080fd5b5061010d60048036036101089190810190610c80565b610373565b60405161011c93929190610e32565b60405180910390f35b34801561013157600080fd5b5061014c60048036036101479190810190610c80565b6104fc565b6040516101599190610e99565b60405180910390f35b34801561016e57600080fd5b5061018960048036036101849190810190610c80565b6105be565b6040516101969190610e17565b60405180910390f35b3480156101ab57600080fd5b506101c660048036036101c19190810190610c80565b610608565b6040516101d593929190610ebb565b60405180910390f35b3480156101ea57600080fd5b506101f361085c565b005b34801561020157600080fd5b5061020a6109fb565b6040516102179190610e17565b60405180910390f35b34801561022c57600080fd5b50610235610a20565b6040516102429190610e17565b60405180910390f35b34801561025757600080fd5b50610272600480360361026d9190810190610c80565b610a46565b60405161027f9190610e77565b60405180910390f35b34801561029457600080fd5b506102af60048036036102aa9190810190610c57565b610b90565b005b60606002828154811015156102c257fe5b90600052602060002090600402016002018054600181600116156101000203166002900480601f0160208091040260200160405190810160405280929190818152602001828054600181600116156101000203166002900480156103675780601f1061033c57610100808354040283529160200191610367565b820191906000526020600020905b81548152906001019060200180831161034a57829003601f168201915b50505050509050919050565b60028181548110151561038257fe5b90600052602060002090600402016000915090508060010160009054906101000a900473ffffffffffffffffffffffffffffffffffffffff1690806002018054600181600116156101000203166002900480601f0160208091040260200160405190810160405280929190818152602001828054600181600116156101000203166002900480156104545780601f1061042957610100808354040283529160200191610454565b820191906000526020600020905b81548152906001019060200180831161043757829003601f168201915b505050505090806003018054600181600116156101000203166002900480601f0160208091040260200160405190810160405280929190818152602001828054600181600116156101000203166002900480156104f25780601f106104c7576101008083540402835291602001916104f2565b820191906000526020600020905b8154815290600101906020018083116104d557829003601f168201915b5050505050905083565b606060028281548110151561050d57fe5b90600052602060002090600402016003018054600181600116156101000203166002900480601f0160208091040260200160405190810160405280929190818152602001828054600181600116156101000203166002900480156105b25780601f10610587576101008083540402835291602001916105b2565b820191906000526020600020905b81548152906001019060200180831161059557829003601f168201915b50505050509050919050565b60006002828154811015156105cf57fe5b906000526020600020906004020160010160009054906101000a900473ffffffffffffffffffffffffffffffffffffffff169050919050565b60606000606060028481548110151561061d57fe5b906000526020600020906004020160030160028581548110151561063d57fe5b906000526020600020906004020160010160009054906101000a900473ffffffffffffffffffffffffffffffffffffffff1660028681548110151561067e57fe5b9060005260206000209060040201600001828054600181600116156101000203166002900480601f0160208091040260200160405190810160405280929190818152602001828054600181600116156101000203166002900480156107245780601f106106f957610100808354040283529160200191610724565b820191906000526020600020905b81548152906001019060200180831161070757829003601f168201915b5050505050925080805480602002602001604051908101604052809291908181526020016000905b82821015610849578382906000526020600020906005020160a0604051908101604052908160008201548152602001600182015481526020016002820154815260200160038201548152602001600482018054600181600116156101000203166002900480601f0160208091040260200160405190810160405280929190818152602001828054600181600116156101000203166002900480156108315780601f1061080657610100808354040283529160200191610831565b820191906000526020600020905b81548152906001019060200180831161081457829003601f168201915b5050505050815250508152602001906001019061074c565b5050505090509250925092509193909250565b600160009054906101000a900473ffffffffffffffffffffffffffffffffffffffff1673ffffffffffffffffffffffffffffffffffffffff163373ffffffffffffffffffffffffffffffffffffffff161415156108b857600080fd5b600160009054906101000a900473ffffffffffffffffffffffffffffffffffffffff1673ffffffffffffffffffffffffffffffffffffffff166000809054906101000a900473ffffffffffffffffffffffffffffffffffffffff1673ffffffffffffffffffffffffffffffffffffffff167f8be0079c531659141344cd1fd0a4f28419497f9722a3daafe3b4186f6b6457e060405160405180910390a3600160009054906101000a900473ffffffffffffffffffffffffffffffffffffffff166000806101000a81548173ffffffffffffffffffffffffffffffffffffffff021916908373ffffffffffffffffffffffffffffffffffffffff1602179055506000600160006101000a81548173ffffffffffffffffffffffffffffffffffffffff021916908373ffffffffffffffffffffffffffffffffffffffff160217905550565b6000809054906101000a900473ffffffffffffffffffffffffffffffffffffffff1681565b600160009054906101000a900473ffffffffffffffffffffffffffffffffffffffff1681565b6060600282815481101515610a5757fe5b9060005260206000209060040201600001805480602002602001604051908101604052809291908181526020016000905b82821015610b85578382906000526020600020906005020160a0604051908101604052908160008201548152602001600182015481526020016002820154815260200160038201548152602001600482018054600181600116156101000203166002900480601f016020809104026020016040519081016040528092919081815260200182805460018160011615610100020316600290048015610b6d5780601f10610b4257610100808354040283529160200191610b6d565b820191906000526020600020905b815481529060010190602001808311610b5057829003601f168201915b50505050508152505081526020019060010190610a88565b505050509050919050565b6000809054906101000a900473ffffffffffffffffffffffffffffffffffffffff1673ffffffffffffffffffffffffffffffffffffffff163373ffffffffffffffffffffffffffffffffffffffff16141515610beb57600080fd5b80600160006101000a81548173ffffffffffffffffffffffffffffffffffffffff021916908373ffffffffffffffffffffffffffffffffffffffff16021790555050565b6000610c3b8235610f65565b905092915050565b6000610c4f8235610f85565b905092915050565b600060208284031215610c6957600080fd5b6000610c7784828501610c2f565b91505092915050565b600060208284031215610c9257600080fd5b6000610ca084828501610c43565b91505092915050565b610cb281610f3b565b82525050565b6000610cc382610f0d565b80845260208401935083602082028501610cdc85610f00565b60005b84811015610d15578383038852610cf7838351610d92565b9250610d0282610f2e565b9150602088019750600181019050610cdf565b508196508694505050505092915050565b6000610d3182610f23565b808452610d45816020860160208601610f8f565b610d4e81610fc2565b602085010191505092915050565b6000610d6782610f18565b808452610d7b816020860160208601610f8f565b610d8481610fc2565b602085010191505092915050565b600060a083016000830151610daa6000860182610e08565b506020830151610dbd6020860182610e08565b506040830151610dd06040860182610e08565b506060830151610de36060860182610e08565b5060808301518482036080860152610dfb8282610d5c565b9150508091505092915050565b610e1181610f5b565b82525050565b6000602082019050610e2c6000830184610ca9565b92915050565b6000606082019050610e476000830186610ca9565b8181036020830152610e598185610d5c565b90508181036040830152610e6d8184610d5c565b9050949350505050565b60006020820190508181036000830152610e918184610cb8565b905092915050565b60006020820190508181036000830152610eb38184610d26565b905092915050565b60006060820190508181036000830152610ed58186610d26565b9050610ee46020830185610ca9565b8181036040830152610ef68184610cb8565b9050949350505050565b6000602082019050919050565b600081519050919050565b600081519050919050565b600081519050919050565b6000602082019050919050565b600073ffffffffffffffffffffffffffffffffffffffff82169050919050565b6000819050919050565b600073ffffffffffffffffffffffffffffffffffffffff82169050919050565b6000819050919050565b60005b83811015610fad578082015181840152602081019050610f92565b83811115610fbc576000848401525b50505050565b6000601f19601f83011690509190505600a265627a7a72305820f2bc1c763c2332446c5552875aa5f76773d89bfea427b05d7e84404f19648c9a6c6578706572696d656e74616cf50037",
  "source": "pragma solidity ^0.4.24;\npragma experimental ABIEncoderV2;\n\nimport \"./helpers/SafeMath.sol\";\nimport \"./Ownable.sol\";\n\ncontract BillContract is Ownable{\n    using SafeMath for uint256;\n    \n    struct Item {\n        uint id;\n        uint quantity;\n        uint price;\n        uint weight;\n        string detail;\n    }\n    \n    struct Bill {\n        Item[] items;\n        address carrier_address;\n        string companyId;\n        string quoteId;\n    }\n    \n    Bill[] public bills;\n    \n    function getBillQuoteId(uint256 _billId) public view returns(string quoteId) {\n        return bills[_billId].quoteId;\n    }\n    \n    function getBillCompanyId(uint256 _billId) public view returns(string companyId) {\n        return bills[_billId].companyId;\n    }\n    \n    function getBillCarrierAddress(uint256 _billId) public view returns(address carrier_address) {\n        return bills[_billId].carrier_address;\n    }\n    \n    function getBillItems(uint256 _billId) public view returns(Item[]) {\n        return bills[_billId].items;    \n    }\n    \n    function getBillInfo(uint256 _billId) public view returns(string quoteId, address carrier_address, Item[] items) {\n        return (\n            bills[_billId].quoteId,\n            bills[_billId].carrier_address,\n            bills[_billId].items\n        );\n    }\n    \n    event BillCreated (\n        address indexed carrier_address,\n        uint256 tokenId,\n        string quoteId\n    );\n}",
  "sourcePath": "/home/ubuntu/contracts/contracts/Bill.sol",
  "compiler": {
    "name": "solc",
    "version": "0.4.26+commit.4563c3fc.Emscripten.clang"
  },
  "schemaVersion": "2.0.3",
  "updatedAt": "2020-09-18T10:48:53.138Z"
}