{
  "contractName": "ERC721BasicTokenContract",
  "abi": [
    {
      "constant": false,
      "inputs": [
        {
          "name": "_to",
          "type": "address"
        }
      ],
      "name": "approveAll",
      "outputs": [],
      "payable": false,
      "stateMutability": "nonpayable",
      "type": "function"
    },
    {
      "constant": false,
      "inputs": [
        {
          "name": "_to",
          "type": "address"
        },
        {
          "name": "_tokenId",
          "type": "uint256"
        }
      ],
      "name": "approve",
      "outputs": [],
      "payable": false,
      "stateMutability": "nonpayable",
      "type": "function"
    },
    {
      "constant": false,
      "inputs": [
        {
          "name": "_to",
          "type": "address"
        }
      ],
      "name": "disapproveAll",
      "outputs": [],
      "payable": false,
      "stateMutability": "nonpayable",
      "type": "function"
    },
    {
      "constant": true,
      "inputs": [
        {
          "name": "_tokenId",
          "type": "uint256"
        }
      ],
      "name": "ownerOf",
      "outputs": [
        {
          "name": "",
          "type": "address"
        }
      ],
      "payable": false,
      "stateMutability": "view",
      "type": "function"
    },
    {
      "constant": false,
      "inputs": [
        {
          "name": "_to",
          "type": "address"
        },
        {
          "name": "_approved",
          "type": "bool"
        }
      ],
      "name": "setApprovalForAll",
      "outputs": [],
      "payable": false,
      "stateMutability": "nonpayable",
      "type": "function"
    },
    {
      "constant": true,
      "inputs": [
        {
          "name": "_owner",
          "type": "address"
        },
        {
          "name": "_operator",
          "type": "address"
        }
      ],
      "name": "isApprovedForAll",
      "outputs": [
        {
          "name": "",
          "type": "bool"
        }
      ],
      "payable": false,
      "stateMutability": "view",
      "type": "function"
    },
    {
      "constant": true,
      "inputs": [
        {
          "name": "_tokenId",
          "type": "uint256"
        }
      ],
      "name": "getApprovedAddress",
      "outputs": [
        {
          "name": "",
          "type": "address"
        }
      ],
      "payable": false,
      "stateMutability": "view",
      "type": "function"
    },
    {
      "inputs": [
        {
          "name": "_name",
          "type": "string"
        },
        {
          "name": "_symbol",
          "type": "string"
        }
      ],
      "payable": false,
      "stateMutability": "nonpayable",
      "type": "constructor"
    },
    {
      "anonymous": false,
      "inputs": [
        {
          "indexed": true,
          "name": "_from",
          "type": "address"
        },
        {
          "indexed": true,
          "name": "_to",
          "type": "address"
        },
        {
          "indexed": false,
          "name": "_tokenId",
          "type": "uint256"
        }
      ],
      "name": "Transfer",
      "type": "event"
    },
    {
      "anonymous": false,
      "inputs": [
        {
          "indexed": true,
          "name": "_owner",
          "type": "address"
        },
        {
          "indexed": true,
          "name": "_approved",
          "type": "address"
        },
        {
          "indexed": false,
          "name": "_tokenId",
          "type": "uint256"
        }
      ],
      "name": "Approval",
      "type": "event"
    },
    {
      "anonymous": false,
      "inputs": [
        {
          "indexed": true,
          "name": "_owner",
          "type": "address"
        },
        {
          "indexed": true,
          "name": "_operator",
          "type": "address"
        },
        {
          "indexed": false,
          "name": "_approved",
          "type": "bool"
        }
      ],
      "name": "ApprovalForAll",
      "type": "event"
    },
    {
      "constant": true,
      "inputs": [],
      "name": "name",
      "outputs": [
        {
          "name": "",
          "type": "string"
        }
      ],
      "payable": false,
      "stateMutability": "view",
      "type": "function"
    },
    {
      "constant": true,
      "inputs": [],
      "name": "symbol",
      "outputs": [
        {
          "name": "",
          "type": "string"
        }
      ],
      "payable": false,
      "stateMutability": "view",
      "type": "function"
    },
    {
      "constant": true,
      "inputs": [],
      "name": "totalSupply",
      "outputs": [
        {
          "name": "",
          "type": "uint256"
        }
      ],
      "payable": false,
      "stateMutability": "view",
      "type": "function"
    },
    {
      "constant": true,
      "inputs": [
        {
          "name": "_index",
          "type": "uint256"
        }
      ],
      "name": "tokenByIndex",
      "outputs": [
        {
          "name": "",
          "type": "uint256"
        }
      ],
      "payable": false,
      "stateMutability": "view",
      "type": "function"
    },
    {
      "constant": true,
      "inputs": [
        {
          "name": "_owner",
          "type": "address"
        }
      ],
      "name": "balanceOf",
      "outputs": [
        {
          "name": "",
          "type": "uint256"
        }
      ],
      "payable": false,
      "stateMutability": "view",
      "type": "function"
    },
    {
      "constant": true,
      "inputs": [
        {
          "name": "_owner",
          "type": "address"
        }
      ],
      "name": "tokensOf",
      "outputs": [
        {
          "name": "",
          "type": "uint256[]"
        }
      ],
      "payable": false,
      "stateMutability": "view",
      "type": "function"
    },
    {
      "constant": true,
      "inputs": [
        {
          "name": "_owner",
          "type": "address"
        },
        {
          "name": "_index",
          "type": "uint256"
        }
      ],
      "name": "tokenOfOwnerByIndex",
      "outputs": [
        {
          "name": "",
          "type": "uint256"
        }
      ],
      "payable": false,
      "stateMutability": "view",
      "type": "function"
    },
    {
      "constant": false,
      "inputs": [
        {
          "name": "_to",
          "type": "address"
        },
        {
          "name": "_tokenId",
          "type": "uint256"
        }
      ],
      "name": "transfer",
      "outputs": [],
      "payable": false,
      "stateMutability": "nonpayable",
      "type": "function"
    },
    {
      "constant": false,
      "inputs": [
        {
          "name": "_tokenId",
          "type": "uint256"
        }
      ],
      "name": "takeOwnership",
      "outputs": [],
      "payable": false,
      "stateMutability": "nonpayable",
      "type": "function"
    },
    {
      "constant": false,
      "inputs": [
        {
          "name": "_from",
          "type": "address"
        },
        {
          "name": "_to",
          "type": "address"
        },
        {
          "name": "_tokenId",
          "type": "uint256"
        }
      ],
      "name": "transferFrom",
      "outputs": [],
      "payable": false,
      "stateMutability": "nonpayable",
      "type": "function"
    },
    {
      "constant": true,
      "inputs": [],
      "name": "getTokenSaleAddress",
      "outputs": [
        {
          "name": "",
          "type": "address"
        }
      ],
      "payable": false,
      "stateMutability": "view",
      "type": "function"
    }
  ],
  "bytecode": "0x60806040523480156200001157600080fd5b5060405162001a1238038062001a1283398101806040528101908080518201929190602001805182019291905050508160069080519060200190620000589291906200007a565b508060079080519060200190620000719291906200007a565b50505062000129565b828054600181600116156101000203166002900490600052602060002090601f016020900481019282601f10620000bd57805160ff1916838001178555620000ee565b82800160010185558215620000ee579182015b82811115620000ed578251825591602001919060010190620000d0565b5b509050620000fd919062000101565b5090565b6200012691905b808211156200012257600081600090555060010162000108565b5090565b90565b6118d980620001396000396000f3006080604052600436106100fc576000357c0100000000000000000000000000000000000000000000000000000000900463ffffffff1680630621472c1461010157806306fdde0314610144578063095ea7b3146101d457806318160ddd1461022157806323b872dd1461024c5780632f745c59146102b95780634f6ccce71461031a57806351dabd451461035b5780635a3f26721461039e5780636352211e1461043657806370a08231146104a357806379fb97e8146104fa57806395d89b4114610551578063a22cb465146105e1578063a9059cbb14610630578063b2e6ceeb1461067d578063e985e9c5146106aa578063eca4742a14610725575b600080fd5b34801561010d57600080fd5b50610142600480360381019080803573ffffffffffffffffffffffffffffffffffffffff169060200190929190505050610792565b005b34801561015057600080fd5b5061015961090b565b6040518080602001828103825283818151815260200191508051906020019080838360005b8381101561019957808201518184015260208101905061017e565b50505050905090810190601f1680156101c65780820380516001836020036101000a031916815260200191505b509250505060405180910390f35b3480156101e057600080fd5b5061021f600480360381019080803573ffffffffffffffffffffffffffffffffffffffff169060200190929190803590602001909291905050506109ad565b005b34801561022d57600080fd5b50610236610b40565b6040518082815260200191505060405180910390f35b34801561025857600080fd5b506102b7600480360381019080803573ffffffffffffffffffffffffffffffffffffffff169060200190929190803573ffffffffffffffffffffffffffffffffffffffff16906020019092919080359060200190929190505050610b4d565b005b3480156102c557600080fd5b50610304600480360381019080803573ffffffffffffffffffffffffffffffffffffffff16906020019092919080359060200190929190505050610bbb565b6040518082815260200191505060405180910390f35b34801561032657600080fd5b5061034560048036038101908080359060200190929190505050610c32565b6040518082815260200191505060405180910390f35b34801561036757600080fd5b5061039c600480360381019080803573ffffffffffffffffffffffffffffffffffffffff169060200190929190505050610c51565b005b3480156103aa57600080fd5b506103df600480360381019080803573ffffffffffffffffffffffffffffffffffffffff169060200190929190505050610d85565b6040518080602001828103825283818151815260200191508051906020019060200280838360005b83811015610422578082015181840152602081019050610407565b505050509050019250505060405180910390f35b34801561044257600080fd5b5061046160048036038101908080359060200190929190505050610e58565b604051808273ffffffffffffffffffffffffffffffffffffffff1673ffffffffffffffffffffffffffffffffffffffff16815260200191505060405180910390f35b3480156104af57600080fd5b506104e4600480360381019080803573ffffffffffffffffffffffffffffffffffffffff169060200190929190505050610ed5565b6040518082815260200191505060405180910390f35b34801561050657600080fd5b5061050f610f5c565b604051808273ffffffffffffffffffffffffffffffffffffffff1673ffffffffffffffffffffffffffffffffffffffff16815260200191505060405180910390f35b34801561055d57600080fd5b50610566610f86565b6040518080602001828103825283818151815260200191508051906020019080838360005b838110156105a657808201518184015260208101905061058b565b50505050905090810190601f1680156105d35780820380516001836020036101000a031916815260200191505b509250505060405180910390f35b3480156105ed57600080fd5b5061062e600480360381019080803573ffffffffffffffffffffffffffffffffffffffff169060200190929190803515159060200190929190505050611028565b005b34801561063c57600080fd5b5061067b600480360381019080803573ffffffffffffffffffffffffffffffffffffffff1690602001909291908035906020019092919050505061104a565b005b34801561068957600080fd5b506106a86004803603810190808035906020019092919050505061109d565b005b3480156106b657600080fd5b5061070b600480360381019080803573ffffffffffffffffffffffffffffffffffffffff169060200190929190803573ffffffffffffffffffffffffffffffffffffffff1690602001909291905050506110c7565b604051808215151515815260200191505060405180910390f35b34801561073157600080fd5b506107506004803603810190808035906020019092919050505061115b565b604051808273ffffffffffffffffffffffffffffffffffffffff1673ffffffffffffffffffffffffffffffffffffffff16815260200191505060405180910390f35b3373ffffffffffffffffffffffffffffffffffffffff168173ffffffffffffffffffffffffffffffffffffffff16141515156107cd57600080fd5b600073ffffffffffffffffffffffffffffffffffffffff168173ffffffffffffffffffffffffffffffffffffffff161415151561080957600080fd5b6001600260003373ffffffffffffffffffffffffffffffffffffffff1673ffffffffffffffffffffffffffffffffffffffff16815260200190815260200160002060008373ffffffffffffffffffffffffffffffffffffffff1673ffffffffffffffffffffffffffffffffffffffff16815260200190815260200160002060006101000a81548160ff0219169083151502179055508073ffffffffffffffffffffffffffffffffffffffff163373ffffffffffffffffffffffffffffffffffffffff167f17307eab39ab6107e8899845ad3d59bd9653f200f220920489ca2b5937696c316001604051808215151515815260200191505060405180910390a350565b606060068054600181600116156101000203166002900480601f0160208091040260200160405190810160405280929190818152602001828054600181600116156101000203166002900480156109a35780601f10610978576101008083540402835291602001916109a3565b820191906000526020600020905b81548152906001019060200180831161098657829003601f168201915b5050505050905090565b6000813373ffffffffffffffffffffffffffffffffffffffff166109d082610e58565b73ffffffffffffffffffffffffffffffffffffffff161415156109f257600080fd5b6109fb83610e58565b91508173ffffffffffffffffffffffffffffffffffffffff168473ffffffffffffffffffffffffffffffffffffffff1614151515610a3857600080fd5b6000610a438461115b565b73ffffffffffffffffffffffffffffffffffffffff16141580610a7d575060008473ffffffffffffffffffffffffffffffffffffffff1614155b15610b3a57836001600085815260200190815260200160002060006101000a81548173ffffffffffffffffffffffffffffffffffffffff021916908373ffffffffffffffffffffffffffffffffffffffff1602179055508373ffffffffffffffffffffffffffffffffffffffff168273ffffffffffffffffffffffffffffffffffffffff167f8c5be1e5ebec7d5bd14f71427d1e84f3dd0314c0f7b2291e5b200ac8c7c3b925856040518082815260200191505060405180910390a35b50505050565b6000600580549050905090565b610b5681611198565b1515610b6157600080fd5b8273ffffffffffffffffffffffffffffffffffffffff16610b8182610e58565b73ffffffffffffffffffffffffffffffffffffffff16141515610ba357600080fd5b610bb6610baf82610e58565b8383611202565b505050565b6000610bc683610ed5565b82101515610bd357600080fd5b600360008473ffffffffffffffffffffffffffffffffffffffff1673ffffffffffffffffffffffffffffffffffffffff16815260200190815260200160002082815481101515610c1f57fe5b9060005260206000200154905092915050565b6000610c3c610b40565b82101515610c4957600080fd5b819050919050565b3373ffffffffffffffffffffffffffffffffffffffff168173ffffffffffffffffffffffffffffffffffffffff1614151515610c8c57600080fd5b600260003373ffffffffffffffffffffffffffffffffffffffff1673ffffffffffffffffffffffffffffffffffffffff16815260200190815260200160002060008273ffffffffffffffffffffffffffffffffffffffff1673ffffffffffffffffffffffffffffffffffffffff16815260200190815260200160002060006101000a81549060ff02191690558073ffffffffffffffffffffffffffffffffffffffff163373ffffffffffffffffffffffffffffffffffffffff167f17307eab39ab6107e8899845ad3d59bd9653f200f220920489ca2b5937696c316000604051808215151515815260200191505060405180910390a350565b6060600073ffffffffffffffffffffffffffffffffffffffff168273ffffffffffffffffffffffffffffffffffffffff1614151515610dc357600080fd5b600360008373ffffffffffffffffffffffffffffffffffffffff1673ffffffffffffffffffffffffffffffffffffffff168152602001908152602001600020805480602002602001604051908101604052809291908181526020018280548015610e4c57602002820191906000526020600020905b815481526020019060010190808311610e38575b50505050509050919050565b60008060008084815260200190815260200160002060009054906101000a900473ffffffffffffffffffffffffffffffffffffffff169050600073ffffffffffffffffffffffffffffffffffffffff168173ffffffffffffffffffffffffffffffffffffffff1614151515610ecc57600080fd5b80915050919050565b60008073ffffffffffffffffffffffffffffffffffffffff168273ffffffffffffffffffffffffffffffffffffffff1614151515610f1257600080fd5b600360008373ffffffffffffffffffffffffffffffffffffffff1673ffffffffffffffffffffffffffffffffffffffff168152602001908152602001600020805490509050919050565b6000600860009054906101000a900473ffffffffffffffffffffffffffffffffffffffff16905090565b606060078054600181600116156101000203166002900480601f01602080910402602001604051908101604052809291908181526020018280546001816001161561010002031660029004801561101e5780601f10610ff35761010080835404028352916020019161101e565b820191906000526020600020905b81548152906001019060200180831161100157829003601f168201915b5050505050905090565b801561103c5761103782610792565b611046565b61104582610c51565b5b5050565b803373ffffffffffffffffffffffffffffffffffffffff1661106b82610e58565b73ffffffffffffffffffffffffffffffffffffffff1614151561108d57600080fd5b611098338484611202565b505050565b6110a681611198565b15156110b157600080fd5b6110c46110bd82610e58565b3383611202565b50565b6000600260008473ffffffffffffffffffffffffffffffffffffffff1673ffffffffffffffffffffffffffffffffffffffff16815260200190815260200160002060008373ffffffffffffffffffffffffffffffffffffffff1673ffffffffffffffffffffffffffffffffffffffff16815260200190815260200160002060009054906101000a900460ff16905092915050565b60006001600083815260200190815260200160002060009054906101000a900473ffffffffffffffffffffffffffffffffffffffff169050919050565b60003373ffffffffffffffffffffffffffffffffffffffff166111ba83610e58565b73ffffffffffffffffffffffffffffffffffffffff1614806111e257506111e1338361134b565b5b806111fb57506111fa6111f483610e58565b336110c7565b5b9050919050565b600073ffffffffffffffffffffffffffffffffffffffff168273ffffffffffffffffffffffffffffffffffffffff161415151561123e57600080fd5b61124781610e58565b73ffffffffffffffffffffffffffffffffffffffff168273ffffffffffffffffffffffffffffffffffffffff161415151561128157600080fd5b8273ffffffffffffffffffffffffffffffffffffffff166112a182610e58565b73ffffffffffffffffffffffffffffffffffffffff161415156112c357600080fd5b6112cd838261138c565b6112d78382611475565b6112e182826116c7565b8173ffffffffffffffffffffffffffffffffffffffff168373ffffffffffffffffffffffffffffffffffffffff167fddf252ad1be2c89b69c2b068fc378daa952ba7f163c4a11628f55a4df523b3ef836040518082815260200191505060405180910390a3505050565b60008273ffffffffffffffffffffffffffffffffffffffff1661136d8361115b565b73ffffffffffffffffffffffffffffffffffffffff1614905092915050565b8173ffffffffffffffffffffffffffffffffffffffff166113ac82610e58565b73ffffffffffffffffffffffffffffffffffffffff161415156113ce57600080fd5b60006001600083815260200190815260200160002060006101000a81548173ffffffffffffffffffffffffffffffffffffffff021916908373ffffffffffffffffffffffffffffffffffffffff16021790555060008273ffffffffffffffffffffffffffffffffffffffff167f8c5be1e5ebec7d5bd14f71427d1e84f3dd0314c0f7b2291e5b200ac8c7c3b925836040518082815260200191505060405180910390a35050565b6000806000600460008581526020019081526020016000205492506114ac600161149e87610ed5565b61184390919063ffffffff16565b9150600360008673ffffffffffffffffffffffffffffffffffffffff1673ffffffffffffffffffffffffffffffffffffffff168152602001908152602001600020828154811015156114fa57fe5b90600052602060002001549050600080600086815260200190815260200160002060006101000a81548173ffffffffffffffffffffffffffffffffffffffff021916908373ffffffffffffffffffffffffffffffffffffffff16021790555080600360008773ffffffffffffffffffffffffffffffffffffffff1673ffffffffffffffffffffffffffffffffffffffff168152602001908152602001600020848154811015156115a657fe5b90600052602060002001819055506000600360008773ffffffffffffffffffffffffffffffffffffffff1673ffffffffffffffffffffffffffffffffffffffff1681526020019081526020016000208381548110151561160257fe5b9060005260206000200181905550600360008673ffffffffffffffffffffffffffffffffffffffff1673ffffffffffffffffffffffffffffffffffffffff168152602001908152602001600020805480919060019003611662919061185c565b506000600460008681526020019081526020016000208190555082600460008381526020019081526020016000208190555060058490806001815401808255809150509060018203906000526020600020016000909192909190915055505050505050565b60008073ffffffffffffffffffffffffffffffffffffffff1660008084815260200190815260200160002060009054906101000a900473ffffffffffffffffffffffffffffffffffffffff1673ffffffffffffffffffffffffffffffffffffffff1614151561173557600080fd5b8260008084815260200190815260200160002060006101000a81548173ffffffffffffffffffffffffffffffffffffffff021916908373ffffffffffffffffffffffffffffffffffffffff16021790555061178f83610ed5565b9050600360008473ffffffffffffffffffffffffffffffffffffffff1673ffffffffffffffffffffffffffffffffffffffff1681526020019081526020016000208290806001815401808255809150509060018203906000526020600020016000909192909190915055508060046000848152602001908152602001600020819055506005829080600181540180825580915050906001820390600052602060002001600090919290919091505550505050565b600082821115151561185157fe5b818303905092915050565b815481835581811115611883578183600052602060002091820191016118829190611888565b5b505050565b6118aa91905b808211156118a657600081600090555060010161188e565b5090565b905600a165627a7a7230582069b0517ea55086076acbf0503cb6f4778eb64c3765ae8e3dcbd5ac827145f0f50029",
  "source": "pragma solidity ^0.4.24;\n\nimport './ERC721.sol';\nimport \"./helpers/SafeMath.sol\";\nimport \"./Allowance.sol\";\n\ncontract ERC721BasicTokenContract is AllowanceAndOwnershipContract {\n    using SafeMath for uint256;\n    \n    mapping (address => uint256[]) internal ownedTokens; // (ownerAddress => [tokenId, .....])\n    mapping(uint256 => uint256) internal ownedTokensIndex;\n    uint256[] internal allTokens;\n\n    string internal name_;\n    string internal symbol_;\n    address internal tokenSaleAddress;\n    \n    constructor(string _name, string _symbol) public {\n        name_ = _name;\n        symbol_ = _symbol;\n    }\n    \n    function name() external view returns (string) {\n        return name_;\n    }\n    \n    function symbol() external view returns (string) {\n        return symbol_;\n    }\n    \n    function totalSupply() public view returns (uint256) {\n        return allTokens.length;\n    }\n    \n    function tokenByIndex(uint256 _index) external view returns (uint256) {\n        require(_index < totalSupply());\n        return _index;\n    }\n    \n    function balanceOf(address _owner) public view returns (uint256) {\n        require(_owner != address(0));\n        return ownedTokens[_owner].length;\n    }\n    \n    function tokensOf(address _owner) public view returns (uint256[]) {\n        require( _owner != address(0));\n        return ownedTokens[_owner];\n    }\n    \n    function tokenOfOwnerByIndex(address _owner, uint256 _index) external view returns (uint256) {\n        require(_index < balanceOf(_owner));\n        return ownedTokens[_owner][_index];\n    } \n    \n    function transfer(address _to, uint256 _tokenId) \n        external\n        \n        onlyOwnerOf(_tokenId)\n    {\n        _clearApprovalAndTransfer(msg.sender, _to, _tokenId);   \n    }\n    \n    function takeOwnership(uint256 _tokenId)\n    external\n    {\n        require(isSenderApprovedFor(_tokenId));\n        _clearApprovalAndTransfer(ownerOf(_tokenId), msg.sender, _tokenId);\n    }\n    \n    function transferFrom(\n    address _from,\n    address _to,\n    uint256 _tokenId\n     )\n    public\n    {\n        require(isSenderApprovedFor(_tokenId));\n        require(ownerOf(_tokenId) == _from);\n        _clearApprovalAndTransfer(ownerOf(_tokenId), _to, _tokenId);\n    }\n    \n    function getTokenSaleAddress () public view returns (address) {\n        return tokenSaleAddress;\n    }\n    \n    function _mint(address _to, uint256 _tokenId) internal {\n        require(_to != address(0));\n\n        _addToken(_to, _tokenId);\n        emit Transfer(0x0, _to, _tokenId);\n    }\n    \n    function _clearApprovalAndTransfer(address _from, address _to, uint256 _tokenId) internal {\n        require(_to != address(0));\n        require(_to != ownerOf(_tokenId));\n        require(ownerOf(_tokenId) == _from);\n\n        _clearApproval(_from, _tokenId);\n        _removeToken(_from, _tokenId);\n        _addToken(_to, _tokenId);\n        emit Transfer(_from, _to, _tokenId);\n    }\n    \n    function _clearApproval(address _owner, uint256 _tokenId) internal {\n        require(ownerOf(_tokenId) ==_owner);\n        tokenApprovals[_tokenId] = 0;\n        emit Approval(_owner, 0, _tokenId);\n    }\n    \n    function _addToken(address _to, uint256 _tokenId) internal {\n        require(tokenOwner[_tokenId] == address(0));\n        tokenOwner[_tokenId] = _to;\n        uint256 length = balanceOf(_to);\n        ownedTokens[_to].push(_tokenId);\n        ownedTokensIndex[_tokenId] = length;\n        allTokens.push(_tokenId);\n    }\n    \n    function _removeToken(address _from, uint256 _tokenId) internal {\n        uint256 tokenIndex = ownedTokensIndex[_tokenId];\n        uint256 lastTokenIndex = balanceOf(_from).sub(1);\n        uint256 lastToken = ownedTokens[_from][lastTokenIndex];\n        \n        tokenOwner[_tokenId] = 0;\n        ownedTokens[_from][tokenIndex] = lastToken;\n        ownedTokens[_from][lastTokenIndex] = 0;\n        \n        ownedTokens[_from].length--;\n        ownedTokensIndex[_tokenId] = 0;\n        ownedTokensIndex[lastToken] = tokenIndex;\n        allTokens.push(_tokenId);\n    }\n}",
  "sourcePath": "/home/ubuntu/contracts/contracts/ERC721BasicToken.sol",
  "compiler": {
    "name": "solc",
    "version": "0.4.26+commit.4563c3fc.Emscripten.clang"
  },
  "schemaVersion": "2.0.3",
  "updatedAt": "2020-09-18T10:48:53.260Z"
}