{
  "contractName": "InvoiceTapContract",
  "abi": [
    {
      "constant": false,
      "inputs": [
        {
          "name": "_to",
          "type": "address"
        }
      ],
      "name": "approveAll",
      "outputs": [],
      "payable": false,
      "stateMutability": "nonpayable",
      "type": "function"
    },
    {
      "constant": true,
      "inputs": [],
      "name": "name",
      "outputs": [
        {
          "name": "",
          "type": "string"
        }
      ],
      "payable": false,
      "stateMutability": "view",
      "type": "function"
    },
    {
      "constant": false,
      "inputs": [
        {
          "name": "_to",
          "type": "address"
        },
        {
          "name": "_tokenId",
          "type": "uint256"
        }
      ],
      "name": "approve",
      "outputs": [],
      "payable": false,
      "stateMutability": "nonpayable",
      "type": "function"
    },
    {
      "constant": true,
      "inputs": [],
      "name": "totalSupply",
      "outputs": [
        {
          "name": "",
          "type": "uint256"
        }
      ],
      "payable": false,
      "stateMutability": "view",
      "type": "function"
    },
    {
      "constant": false,
      "inputs": [
        {
          "name": "_from",
          "type": "address"
        },
        {
          "name": "_to",
          "type": "address"
        },
        {
          "name": "_tokenId",
          "type": "uint256"
        }
      ],
      "name": "transferFrom",
      "outputs": [],
      "payable": false,
      "stateMutability": "nonpayable",
      "type": "function"
    },
    {
      "constant": true,
      "inputs": [
        {
          "name": "_owner",
          "type": "address"
        },
        {
          "name": "_index",
          "type": "uint256"
        }
      ],
      "name": "tokenOfOwnerByIndex",
      "outputs": [
        {
          "name": "",
          "type": "uint256"
        }
      ],
      "payable": false,
      "stateMutability": "view",
      "type": "function"
    },
    {
      "constant": true,
      "inputs": [
        {
          "name": "",
          "type": "uint256"
        }
      ],
      "name": "bids",
      "outputs": [
        {
          "name": "bolID",
          "type": "uint256"
        },
        {
          "name": "bidder",
          "type": "address"
        },
        {
          "name": "amount",
          "type": "uint256"
        },
        {
          "name": "createdAt",
          "type": "uint256"
        }
      ],
      "payable": false,
      "stateMutability": "view",
      "type": "function"
    },
    {
      "constant": true,
      "inputs": [
        {
          "name": "_index",
          "type": "uint256"
        }
      ],
      "name": "tokenByIndex",
      "outputs": [
        {
          "name": "",
          "type": "uint256"
        }
      ],
      "payable": false,
      "stateMutability": "view",
      "type": "function"
    },
    {
      "constant": false,
      "inputs": [
        {
          "name": "_to",
          "type": "address"
        }
      ],
      "name": "disapproveAll",
      "outputs": [],
      "payable": false,
      "stateMutability": "nonpayable",
      "type": "function"
    },
    {
      "constant": true,
      "inputs": [
        {
          "name": "_owner",
          "type": "address"
        }
      ],
      "name": "tokensOf",
      "outputs": [
        {
          "name": "",
          "type": "uint256[]"
        }
      ],
      "payable": false,
      "stateMutability": "view",
      "type": "function"
    },
    {
      "constant": true,
      "inputs": [
        {
          "name": "_tokenId",
          "type": "uint256"
        }
      ],
      "name": "ownerOf",
      "outputs": [
        {
          "name": "",
          "type": "address"
        }
      ],
      "payable": false,
      "stateMutability": "view",
      "type": "function"
    },
    {
      "constant": true,
      "inputs": [
        {
          "name": "",
          "type": "uint256"
        }
      ],
      "name": "submittedInvoices",
      "outputs": [
        {
          "name": "",
          "type": "uint256"
        }
      ],
      "payable": false,
      "stateMutability": "view",
      "type": "function"
    },
    {
      "constant": true,
      "inputs": [
        {
          "name": "_owner",
          "type": "address"
        }
      ],
      "name": "balanceOf",
      "outputs": [
        {
          "name": "",
          "type": "uint256"
        }
      ],
      "payable": false,
      "stateMutability": "view",
      "type": "function"
    },
    {
      "constant": false,
      "inputs": [],
      "name": "acceptOwnership",
      "outputs": [],
      "payable": false,
      "stateMutability": "nonpayable",
      "type": "function"
    },
    {
      "constant": true,
      "inputs": [],
      "name": "getTokenSaleAddress",
      "outputs": [
        {
          "name": "",
          "type": "address"
        }
      ],
      "payable": false,
      "stateMutability": "view",
      "type": "function"
    },
    {
      "constant": true,
      "inputs": [],
      "name": "owner",
      "outputs": [
        {
          "name": "",
          "type": "address"
        }
      ],
      "payable": false,
      "stateMutability": "view",
      "type": "function"
    },
    {
      "constant": true,
      "inputs": [],
      "name": "symbol",
      "outputs": [
        {
          "name": "",
          "type": "string"
        }
      ],
      "payable": false,
      "stateMutability": "view",
      "type": "function"
    },
    {
      "constant": false,
      "inputs": [
        {
          "name": "_to",
          "type": "address"
        },
        {
          "name": "_approved",
          "type": "bool"
        }
      ],
      "name": "setApprovalForAll",
      "outputs": [],
      "payable": false,
      "stateMutability": "nonpayable",
      "type": "function"
    },
    {
      "constant": false,
      "inputs": [
        {
          "name": "_to",
          "type": "address"
        },
        {
          "name": "_tokenId",
          "type": "uint256"
        }
      ],
      "name": "transfer",
      "outputs": [],
      "payable": false,
      "stateMutability": "nonpayable",
      "type": "function"
    },
    {
      "constant": false,
      "inputs": [
        {
          "name": "_tokenId",
          "type": "uint256"
        }
      ],
      "name": "takeOwnership",
      "outputs": [],
      "payable": false,
      "stateMutability": "nonpayable",
      "type": "function"
    },
    {
      "constant": true,
      "inputs": [],
      "name": "newOwner",
      "outputs": [
        {
          "name": "",
          "type": "address"
        }
      ],
      "payable": false,
      "stateMutability": "view",
      "type": "function"
    },
    {
      "constant": true,
      "inputs": [
        {
          "name": "_owner",
          "type": "address"
        },
        {
          "name": "_operator",
          "type": "address"
        }
      ],
      "name": "isApprovedForAll",
      "outputs": [
        {
          "name": "",
          "type": "bool"
        }
      ],
      "payable": false,
      "stateMutability": "view",
      "type": "function"
    },
    {
      "constant": true,
      "inputs": [
        {
          "name": "_tokenId",
          "type": "uint256"
        }
      ],
      "name": "getApprovedAddress",
      "outputs": [
        {
          "name": "",
          "type": "address"
        }
      ],
      "payable": false,
      "stateMutability": "view",
      "type": "function"
    },
    {
      "constant": false,
      "inputs": [
        {
          "name": "_newOwner",
          "type": "address"
        }
      ],
      "name": "transferOwnership",
      "outputs": [],
      "payable": false,
      "stateMutability": "nonpayable",
      "type": "function"
    },
    {
      "inputs": [
        {
          "name": "_name",
          "type": "string"
        },
        {
          "name": "_symbol",
          "type": "string"
        }
      ],
      "payable": false,
      "stateMutability": "nonpayable",
      "type": "constructor"
    },
    {
      "anonymous": false,
      "inputs": [
        {
          "indexed": false,
          "name": "bolId",
          "type": "uint256"
        },
        {
          "indexed": false,
          "name": "basePrice",
          "type": "uint256"
        },
        {
          "indexed": false,
          "name": "discount",
          "type": "uint256"
        }
      ],
      "name": "InvoiceAdded",
      "type": "event"
    },
    {
      "anonymous": false,
      "inputs": [
        {
          "indexed": true,
          "name": "_bolID",
          "type": "uint256"
        },
        {
          "indexed": true,
          "name": "bidder",
          "type": "address"
        },
        {
          "indexed": false,
          "name": "amount",
          "type": "uint256"
        },
        {
          "indexed": false,
          "name": "created",
          "type": "uint256"
        }
      ],
      "name": "BidAdded",
      "type": "event"
    },
    {
      "anonymous": false,
      "inputs": [
        {
          "indexed": true,
          "name": "_from",
          "type": "address"
        },
        {
          "indexed": true,
          "name": "_to",
          "type": "address"
        },
        {
          "indexed": false,
          "name": "_tokenId",
          "type": "uint256"
        }
      ],
      "name": "Transfer",
      "type": "event"
    },
    {
      "anonymous": false,
      "inputs": [
        {
          "indexed": true,
          "name": "_owner",
          "type": "address"
        },
        {
          "indexed": true,
          "name": "_approved",
          "type": "address"
        },
        {
          "indexed": false,
          "name": "_tokenId",
          "type": "uint256"
        }
      ],
      "name": "Approval",
      "type": "event"
    },
    {
      "anonymous": false,
      "inputs": [
        {
          "indexed": true,
          "name": "_owner",
          "type": "address"
        },
        {
          "indexed": true,
          "name": "_operator",
          "type": "address"
        },
        {
          "indexed": false,
          "name": "_approved",
          "type": "bool"
        }
      ],
      "name": "ApprovalForAll",
      "type": "event"
    },
    {
      "anonymous": false,
      "inputs": [
        {
          "indexed": true,
          "name": "_from",
          "type": "address"
        },
        {
          "indexed": true,
          "name": "_to",
          "type": "address"
        }
      ],
      "name": "OwnershipTransferred",
      "type": "event"
    },
    {
      "constant": false,
      "inputs": [
        {
          "name": "_bolID",
          "type": "uint256"
        },
        {
          "name": "_basePrice",
          "type": "uint256"
        },
        {
          "name": "_discount",
          "type": "uint256"
        }
      ],
      "name": "_createInvoice",
      "outputs": [
        {
          "name": "tokenId",
          "type": "uint256"
        }
      ],
      "payable": false,
      "stateMutability": "nonpayable",
      "type": "function"
    },
    {
      "constant": false,
      "inputs": [
        {
          "name": "_bolID",
          "type": "uint256"
        },
        {
          "name": "_discount",
          "type": "uint256"
        }
      ],
      "name": "_updateInvoice",
      "outputs": [
        {
          "name": "tokenId",
          "type": "uint256"
        }
      ],
      "payable": false,
      "stateMutability": "nonpayable",
      "type": "function"
    },
    {
      "constant": false,
      "inputs": [
        {
          "name": "_bolID",
          "type": "uint256"
        },
        {
          "name": "_basePrice",
          "type": "uint256"
        },
        {
          "name": "_discount",
          "type": "uint256"
        }
      ],
      "name": "createInvoice",
      "outputs": [
        {
          "name": "bolID",
          "type": "uint256"
        }
      ],
      "payable": false,
      "stateMutability": "nonpayable",
      "type": "function"
    },
    {
      "constant": false,
      "inputs": [
        {
          "name": "_bolID",
          "type": "uint256"
        },
        {
          "name": "amount",
          "type": "uint256"
        }
      ],
      "name": "bid",
      "outputs": [
        {
          "name": "bidId",
          "type": "uint256"
        }
      ],
      "payable": false,
      "stateMutability": "nonpayable",
      "type": "function"
    },
    {
      "constant": true,
      "inputs": [
        {
          "name": "_bolID",
          "type": "uint256"
        }
      ],
      "name": "viewInvoice",
      "outputs": [
        {
          "components": [
            {
              "name": "bolID",
              "type": "uint256"
            },
            {
              "name": "basePrice",
              "type": "uint256"
            },
            {
              "name": "discount",
              "type": "uint256"
            },
            {
              "name": "status",
              "type": "string"
            },
            {
              "name": "createdAt",
              "type": "uint256"
            }
          ],
          "name": "",
          "type": "tuple"
        }
      ],
      "payable": false,
      "stateMutability": "view",
      "type": "function"
    },
    {
      "constant": true,
      "inputs": [
        {
          "name": "_bidder",
          "type": "address"
        },
        {
          "name": "_bolID",
          "type": "uint256"
        }
      ],
      "name": "hasUserAlreadyBid",
      "outputs": [
        {
          "name": "",
          "type": "bool"
        }
      ],
      "payable": false,
      "stateMutability": "view",
      "type": "function"
    },
    {
      "constant": true,
      "inputs": [
        {
          "name": "_bolID",
          "type": "uint256"
        }
      ],
      "name": "getBidsOnInvoice",
      "outputs": [
        {
          "name": "",
          "type": "uint256[]"
        }
      ],
      "payable": false,
      "stateMutability": "view",
      "type": "function"
    },
    {
      "constant": true,
      "inputs": [
        {
          "name": "_bidder",
          "type": "address"
        }
      ],
      "name": "getBidsOfUser",
      "outputs": [
        {
          "name": "",
          "type": "uint256[]"
        }
      ],
      "payable": false,
      "stateMutability": "view",
      "type": "function"
    },
    {
      "constant": true,
      "inputs": [],
      "name": "totalBids",
      "outputs": [
        {
          "name": "",
          "type": "uint256"
        }
      ],
      "payable": false,
      "stateMutability": "view",
      "type": "function"
    },
    {
      "constant": true,
      "inputs": [],
      "name": "totalBills",
      "outputs": [
        {
          "name": "",
          "type": "uint256"
        }
      ],
      "payable": false,
      "stateMutability": "view",
      "type": "function"
    },
    {
      "constant": true,
      "inputs": [
        {
          "name": "bidId",
          "type": "uint256"
        }
      ],
      "name": "showBid",
      "outputs": [
        {
          "name": "billId",
          "type": "uint256"
        },
        {
          "name": "bidder",
          "type": "address"
        },
        {
          "name": "amount",
          "type": "uint256"
        },
        {
          "name": "createdAt",
          "type": "uint256"
        }
      ],
      "payable": false,
      "stateMutability": "view",
      "type": "function"
    },
    {
      "constant": true,
      "inputs": [
        {
          "name": "_bidder",
          "type": "address"
        },
        {
          "name": "_bolID",
          "type": "uint256"
        }
      ],
      "name": "showBidOnInvoice",
      "outputs": [
        {
          "name": "billId",
          "type": "uint256"
        },
        {
          "name": "bidder",
          "type": "address"
        },
        {
          "name": "amount",
          "type": "uint256"
        },
        {
          "name": "createdAt",
          "type": "uint256"
        }
      ],
      "payable": false,
      "stateMutability": "view",
      "type": "function"
    },
    {
      "constant": true,
      "inputs": [],
      "name": "getSubmittedInvoices",
      "outputs": [
        {
          "name": "",
          "type": "uint256[]"
        }
      ],
      "payable": false,
      "stateMutability": "view",
      "type": "function"
    },
    {
      "constant": true,
      "inputs": [
        {
          "name": "_bolID",
          "type": "uint256"
        }
      ],
      "name": "getSubmittedInvoice",
      "outputs": [
        {
          "name": "bollID",
          "type": "uint256"
        },
        {
          "name": "basePrice",
          "type": "uint256"
        },
        {
          "name": "discount",
          "type": "uint256"
        },
        {
          "name": "isApplied",
          "type": "bool"
        }
      ],
      "payable": false,
      "stateMutability": "view",
      "type": "function"
    },
    {
      "constant": true,
      "inputs": [
        {
          "name": "bolID",
          "type": "uint256"
        }
      ],
      "name": "isBOLSubmitted",
      "outputs": [
        {
          "name": "",
          "type": "bool"
        }
      ],
      "payable": false,
      "stateMutability": "view",
      "type": "function"
    },
    {
      "constant": false,
      "inputs": [
        {
          "name": "_bolID",
          "type": "uint256"
        }
      ],
      "name": "removeBid",
      "outputs": [
        {
          "name": "",
          "type": "bool"
        }
      ],
      "payable": false,
      "stateMutability": "nonpayable",
      "type": "function"
    }
  ],
  "bytecode": "0x60806040523480156200001157600080fd5b5060405162003659380380620036598339810180604052620000379190810190620001c2565b8181336000806101000a81548173ffffffffffffffffffffffffffffffffffffffff021916908373ffffffffffffffffffffffffffffffffffffffff160217905550816008908051906020019062000091929190620000b5565b508060099080519060200190620000aa929190620000b5565b5050505050620002c6565b828054600181600116156101000203166002900490600052602060002090601f016020900481019282601f10620000f857805160ff191683800117855562000129565b8280016001018555821562000129579182015b82811115620001285782518255916020019190600101906200010b565b5b5090506200013891906200013c565b5090565b6200016191905b808211156200015d57600081600090555060010162000143565b5090565b90565b600082601f83011215156200017857600080fd5b81516200018f620001898262000263565b62000235565b91508082526020830160208301858383011115620001ac57600080fd5b620001b983828462000290565b50505092915050565b60008060408385031215620001d657600080fd5b600083015167ffffffffffffffff811115620001f157600080fd5b620001ff8582860162000164565b925050602083015167ffffffffffffffff8111156200021d57600080fd5b6200022b8582860162000164565b9150509250929050565b6000604051905081810181811067ffffffffffffffff821117156200025957600080fd5b8060405250919050565b600067ffffffffffffffff8211156200027b57600080fd5b601f19601f8301169050602081019050919050565b60005b83811015620002b057808201518184015260208101905062000293565b83811115620002c0576000848401525b50505050565b61338380620002d66000396000f3006080604052600436106101ee576000357c0100000000000000000000000000000000000000000000000000000000900463ffffffff1680630621472c146101f357806306fdde031461021c578063095ea7b31461024757806318160ddd1461027057806323b872dd1461029b5780632a550e1b146102c45780632b50ef0e146102ef5780632f745c591461032f578063381b54af1461036c5780633900d662146103975780634423c5f1146103d45780634f6ccce71461041457806351dabd4514610451578063598647f81461047a5780635a3f2672146104b75780635e522cf2146104f45780636352211e146105315780636c74b4ec1461056e57806370a08231146105ab57806379ba5097146105e857806379fb97e8146105ff5780638b0341361461062a5780638da5cb5b1461065557806395d89b4114610680578063a22cb465146106ab578063a9059cbb146106d4578063ac8585f8146106fd578063b2e6ceeb1461073a578063b320f45914610763578063c11b25fd146107a0578063d4ee1d90146107e0578063df2dac7b1461080b578063e2dc718414610848578063e985e9c514610885578063eca4742a146108c2578063f056f3b3146108ff578063f16117b81461093c578063f2fde38b1461097c578063f324009d146109a5578063f9aa607f146109e2575b600080fd5b3480156101ff57600080fd5b5061021a60048036036102159190810190612d73565b610a1f565b005b34801561022857600080fd5b50610231610b94565b60405161023e9190613115565b60405180910390f35b34801561025357600080fd5b5061026e60048036036102699190810190612e63565b610c36565b005b34801561027c57600080fd5b50610285610dc9565b6040516102929190613159565b60405180910390f35b3480156102a757600080fd5b506102c260048036036102bd9190810190612dd8565b610dd6565b005b3480156102d057600080fd5b506102d9610e44565b6040516102e691906130d8565b60405180910390f35b3480156102fb57600080fd5b5061031660048036036103119190810190612e9f565b610e9c565b6040516103269493929190613174565b60405180910390f35b34801561033b57600080fd5b5061035660048036036103519190810190612e63565b610f55565b6040516103639190613159565b60405180910390f35b34801561037857600080fd5b50610381610fcc565b60405161038e9190613159565b60405180910390f35b3480156103a357600080fd5b506103be60048036036103b99190810190612e63565b610fd9565b6040516103cb91906130fa565b60405180910390f35b3480156103e057600080fd5b506103fb60048036036103f69190810190612e9f565b611041565b60405161040b9493929190613174565b60405180910390f35b34801561042057600080fd5b5061043b60048036036104369190810190612e9f565b6110a0565b6040516104489190613159565b60405180910390f35b34801561045d57600080fd5b5061047860048036036104739190810190612d73565b6110bf565b005b34801561048657600080fd5b506104a1600480360361049c9190810190612ec8565b6111ef565b6040516104ae9190613159565b60405180910390f35b3480156104c357600080fd5b506104de60048036036104d99190810190612d73565b6112cb565b6040516104eb91906130d8565b60405180910390f35b34801561050057600080fd5b5061051b60048036036105169190810190612f04565b61139e565b6040516105289190613159565b60405180910390f35b34801561053d57600080fd5b5061055860048036036105539190810190612e9f565b6114cf565b60405161056591906130bd565b60405180910390f35b34801561057a57600080fd5b5061059560048036036105909190810190612e9f565b61154d565b6040516105a29190613159565b60405180910390f35b3480156105b757600080fd5b506105d260048036036105cd9190810190612d73565b611570565b6040516105df9190613159565b60405180910390f35b3480156105f457600080fd5b506105fd6115f7565b005b34801561060b57600080fd5b50610614611796565b60405161062191906130bd565b60405180910390f35b34801561063657600080fd5b5061063f6117c0565b60405161064c9190613159565b60405180910390f35b34801561066157600080fd5b5061066a6117cd565b60405161067791906130bd565b60405180910390f35b34801561068c57600080fd5b506106956117f2565b6040516106a29190613115565b60405180910390f35b3480156106b757600080fd5b506106d260048036036106cd9190810190612e27565b611894565b005b3480156106e057600080fd5b506106fb60048036036106f69190810190612e63565b6118b6565b005b34801561070957600080fd5b50610724600480360361071f9190810190612e9f565b611909565b60405161073191906130fa565b60405180910390f35b34801561074657600080fd5b50610761600480360361075c9190810190612e9f565b611931565b005b34801561076f57600080fd5b5061078a60048036036107859190810190612e9f565b61195b565b60405161079791906130fa565b60405180910390f35b3480156107ac57600080fd5b506107c760048036036107c29190810190612e9f565b611ad9565b6040516107d79493929190613219565b60405180910390f35b3480156107ec57600080fd5b506107f5611b32565b60405161080291906130bd565b60405180910390f35b34801561081757600080fd5b50610832600480360361082d9190810190612d73565b611b58565b60405161083f91906130d8565b60405180910390f35b34801561085457600080fd5b5061086f600480360361086a9190810190612f04565b611bef565b60405161087c9190613159565b60405180910390f35b34801561089157600080fd5b506108ac60048036036108a79190810190612d9c565b611c3b565b6040516108b991906130fa565b60405180910390f35b3480156108ce57600080fd5b506108e960048036036108e49190810190612e9f565b611ccf565b6040516108f691906130bd565b60405180910390f35b34801561090b57600080fd5b5061092660048036036109219190810190612ec8565b611d0c565b6040516109339190613159565b60405180910390f35b34801561094857600080fd5b50610963600480360361095e9190810190612e63565b611d8c565b6040516109739493929190613174565b60405180910390f35b34801561098857600080fd5b506109a3600480360361099e9190810190612d73565b611f23565b005b3480156109b157600080fd5b506109cc60048036036109c79190810190612e9f565b611fc2565b6040516109d991906130d8565b60405180910390f35b3480156109ee57600080fd5b50610a096004803603610a049190810190612e9f565b61202d565b604051610a169190613137565b60405180910390f35b3373ffffffffffffffffffffffffffffffffffffffff168173ffffffffffffffffffffffffffffffffffffffff1614151515610a5a57600080fd5b600073ffffffffffffffffffffffffffffffffffffffff168173ffffffffffffffffffffffffffffffffffffffff1614151515610a9657600080fd5b6001600460003373ffffffffffffffffffffffffffffffffffffffff1673ffffffffffffffffffffffffffffffffffffffff16815260200190815260200160002060008373ffffffffffffffffffffffffffffffffffffffff1673ffffffffffffffffffffffffffffffffffffffff16815260200190815260200160002060006101000a81548160ff0219169083151502179055508073ffffffffffffffffffffffffffffffffffffffff163373ffffffffffffffffffffffffffffffffffffffff167f17307eab39ab6107e8899845ad3d59bd9653f200f220920489ca2b5937696c316001604051610b8991906130fa565b60405180910390a350565b606060088054600181600116156101000203166002900480601f016020809104026020016040519081016040528092919081815260200182805460018160011615610100020316600290048015610c2c5780601f10610c0157610100808354040283529160200191610c2c565b820191906000526020600020905b815481529060010190602001808311610c0f57829003601f168201915b5050505050905090565b6000813373ffffffffffffffffffffffffffffffffffffffff16610c59826114cf565b73ffffffffffffffffffffffffffffffffffffffff16141515610c7b57600080fd5b610c84836114cf565b91508173ffffffffffffffffffffffffffffffffffffffff168473ffffffffffffffffffffffffffffffffffffffff1614151515610cc157600080fd5b6000610ccc84611ccf565b73ffffffffffffffffffffffffffffffffffffffff16141580610d06575060008473ffffffffffffffffffffffffffffffffffffffff1614155b15610dc357836003600085815260200190815260200160002060006101000a81548173ffffffffffffffffffffffffffffffffffffffff021916908373ffffffffffffffffffffffffffffffffffffffff1602179055508373ffffffffffffffffffffffffffffffffffffffff168273ffffffffffffffffffffffffffffffffffffffff167f8c5be1e5ebec7d5bd14f71427d1e84f3dd0314c0f7b2291e5b200ac8c7c3b92585604051610dba9190613159565b60405180910390a35b50505050565b6000600780549050905090565b610ddf81612125565b1515610dea57600080fd5b8273ffffffffffffffffffffffffffffffffffffffff16610e0a826114cf565b73ffffffffffffffffffffffffffffffffffffffff16141515610e2c57600080fd5b610e3f610e38826114cf565b838361218f565b505050565b6060600d805480602002602001604051908101604052809291908181526020018280548015610e9257602002820191906000526020600020905b815481526020019060010190808311610e7e575b5050505050905090565b600080600080600c85815481101515610eb157fe5b906000526020600020906004020160000154600c86815481101515610ed257fe5b906000526020600020906004020160010160009054906101000a900473ffffffffffffffffffffffffffffffffffffffff16600c87815481101515610f1357fe5b906000526020600020906004020160020154600c88815481101515610f3457fe5b90600052602060002090600402016003015493509350935093509193509193565b6000610f6083611570565b82101515610f6d57600080fd5b600560008473ffffffffffffffffffffffffffffffffffffffff1673ffffffffffffffffffffffffffffffffffffffff16815260200190815260200160002082815481101515610fb957fe5b9060005260206000200154905092915050565b6000600d80549050905090565b6000601060008473ffffffffffffffffffffffffffffffffffffffff1673ffffffffffffffffffffffffffffffffffffffff168152602001908152602001600020600083815260200190815260200160002060009054906101000a900460ff16905092915050565b600c8181548110151561105057fe5b90600052602060002090600402016000915090508060000154908060010160009054906101000a900473ffffffffffffffffffffffffffffffffffffffff16908060020154908060030154905084565b60006110aa610dc9565b821015156110b757600080fd5b819050919050565b3373ffffffffffffffffffffffffffffffffffffffff168173ffffffffffffffffffffffffffffffffffffffff16141515156110fa57600080fd5b600460003373ffffffffffffffffffffffffffffffffffffffff1673ffffffffffffffffffffffffffffffffffffffff16815260200190815260200160002060008273ffffffffffffffffffffffffffffffffffffffff1673ffffffffffffffffffffffffffffffffffffffff16815260200190815260200160002060006101000a81549060ff02191690558073ffffffffffffffffffffffffffffffffffffffff163373ffffffffffffffffffffffffffffffffffffffff167f17307eab39ab6107e8899845ad3d59bd9653f200f220920489ca2b5937696c3160006040516111e491906130fa565b60405180910390a350565b6000601060003373ffffffffffffffffffffffffffffffffffffffff1673ffffffffffffffffffffffffffffffffffffffff168152602001908152602001600020600084815260200190815260200160002060009054906101000a900460ff16156112b857601160003373ffffffffffffffffffffffffffffffffffffffff1673ffffffffffffffffffffffffffffffffffffffff16815260200190815260200160002060008481526020019081526020016000205490506112b181836122d8565b90506112c5565b6112c2838361239c565b90505b92915050565b6060600073ffffffffffffffffffffffffffffffffffffffff168273ffffffffffffffffffffffffffffffffffffffff161415151561130957600080fd5b600560008373ffffffffffffffffffffffffffffffffffffffff1673ffffffffffffffffffffffffffffffffffffffff16815260200190815260200160002080548060200260200160405190810160405280929190818152602001828054801561139257602002820191906000526020600020905b81548152602001906001019080831161137e575b50505050509050919050565b60006113a8612bf7565b6113b185611909565b1515156113bd57600080fd5b60a0604051908101604052808681526020018581526020018481526020016020604051908101604052806000815250815260200142815250905080600b60008781526020019081526020016000206000820151816000015560208201518160010155604082015181600201556060820151816003019080519060200190611445929190612c27565b506080820151816004015590505061145d3386612649565b600d8590806001815401808255809150509060018203906000526020600020016000909192909190915055507f8b762da3e0ff86633cc7c402c25f87352f9cd76367cf33a858d7e845099f79298585856040516114bc939291906131e2565b60405180910390a1849150509392505050565b6000806002600084815260200190815260200160002060009054906101000a900473ffffffffffffffffffffffffffffffffffffffff169050600073ffffffffffffffffffffffffffffffffffffffff168173ffffffffffffffffffffffffffffffffffffffff161415151561154457600080fd5b80915050919050565b600d8181548110151561155c57fe5b906000526020600020016000915090505481565b60008073ffffffffffffffffffffffffffffffffffffffff168273ffffffffffffffffffffffffffffffffffffffff16141515156115ad57600080fd5b600560008373ffffffffffffffffffffffffffffffffffffffff1673ffffffffffffffffffffffffffffffffffffffff168152602001908152602001600020805490509050919050565b600160009054906101000a900473ffffffffffffffffffffffffffffffffffffffff1673ffffffffffffffffffffffffffffffffffffffff163373ffffffffffffffffffffffffffffffffffffffff1614151561165357600080fd5b600160009054906101000a900473ffffffffffffffffffffffffffffffffffffffff1673ffffffffffffffffffffffffffffffffffffffff166000809054906101000a900473ffffffffffffffffffffffffffffffffffffffff1673ffffffffffffffffffffffffffffffffffffffff167f8be0079c531659141344cd1fd0a4f28419497f9722a3daafe3b4186f6b6457e060405160405180910390a3600160009054906101000a900473ffffffffffffffffffffffffffffffffffffffff166000806101000a81548173ffffffffffffffffffffffffffffffffffffffff021916908373ffffffffffffffffffffffffffffffffffffffff1602179055506000600160006101000a81548173ffffffffffffffffffffffffffffffffffffffff021916908373ffffffffffffffffffffffffffffffffffffffff160217905550565b6000600a60009054906101000a900473ffffffffffffffffffffffffffffffffffffffff16905090565b6000600c80549050905090565b6000809054906101000a900473ffffffffffffffffffffffffffffffffffffffff1681565b606060098054600181600116156101000203166002900480601f01602080910402602001604051908101604052809291908181526020018280546001816001161561010002031660029004801561188a5780601f1061185f5761010080835404028352916020019161188a565b820191906000526020600020905b81548152906001019060200180831161186d57829003601f168201915b5050505050905090565b80156118a8576118a382610a1f565b6118b2565b6118b1826110bf565b5b5050565b803373ffffffffffffffffffffffffffffffffffffffff166118d7826114cf565b73ffffffffffffffffffffffffffffffffffffffff161415156118f957600080fd5b61190433848461218f565b505050565b600080600b600084815260200190815260200160002090506000816004015411915050919050565b61193a81612125565b151561194557600080fd5b611958611951826114cf565b338361218f565b50565b600080601160003373ffffffffffffffffffffffffffffffffffffffff1673ffffffffffffffffffffffffffffffffffffffff1681526020019081526020016000206000848152602001908152602001600020549050600c818154811015156119c057fe5b90600052602060002090600402016000808201600090556001820160006101000a81549073ffffffffffffffffffffffffffffffffffffffff02191690556002820160009055600382016000905550506000601160003373ffffffffffffffffffffffffffffffffffffffff1673ffffffffffffffffffffffffffffffffffffffff1681526020019081526020016000206000858152602001908152602001600020819055506000601060003373ffffffffffffffffffffffffffffffffffffffff1673ffffffffffffffffffffffffffffffffffffffff168152602001908152602001600020600085815260200190815260200160002060006101000a81548160ff0219169083151502179055506001915050919050565b6000806000806000600b60008781526020019081526020016000209050600081600401541115611b2957806000015481600101548260020154611b1c338a610fd9565b9450945094509450611b2a565b5b509193509193565b600160009054906101000a900473ffffffffffffffffffffffffffffffffffffffff1681565b6060600e60008373ffffffffffffffffffffffffffffffffffffffff1673ffffffffffffffffffffffffffffffffffffffff168152602001908152602001600020805480602002602001604051908101604052809291908181526020018280548015611be357602002820191906000526020600020905b815481526020019060010190808311611bcf575b50505050509050919050565b600080600b60008681526020019081526020016000209050600081600401541115611c2557611c1e8584611d0c565b9150611c33565b611c3085858561139e565b91505b509392505050565b6000600460008473ffffffffffffffffffffffffffffffffffffffff1673ffffffffffffffffffffffffffffffffffffffff16815260200190815260200160002060008373ffffffffffffffffffffffffffffffffffffffff1673ffffffffffffffffffffffffffffffffffffffff16815260200190815260200160002060009054906101000a900460ff16905092915050565b60006003600083815260200190815260200160002060009054906101000a900473ffffffffffffffffffffffffffffffffffffffff169050919050565b600080600b60008581526020019081526020016000209050600081600401541115611d3b578281600201819055505b7f8b762da3e0ff86633cc7c402c25f87352f9cd76367cf33a858d7e845099f7929816000015482600101548360020154604051611d7a939291906131e2565b60405180910390a18391505092915050565b600080600080600080611d9d612ca7565b601060008a73ffffffffffffffffffffffffffffffffffffffff1673ffffffffffffffffffffffffffffffffffffffff168152602001908152602001600020600089815260200190815260200160002060009054906101000a900460ff1692508215611f1657601160008a73ffffffffffffffffffffffffffffffffffffffff1673ffffffffffffffffffffffffffffffffffffffff1681526020019081526020016000206000898152602001908152602001600020549150600c82815481101515611e6557fe5b906000526020600020906004020160806040519081016040529081600082015481526020016001820160009054906101000a900473ffffffffffffffffffffffffffffffffffffffff1673ffffffffffffffffffffffffffffffffffffffff1673ffffffffffffffffffffffffffffffffffffffff16815260200160028201548152602001600382015481525050905080600001518160200151826040015183606001519650965096509650611f17565b5b50505092959194509250565b6000809054906101000a900473ffffffffffffffffffffffffffffffffffffffff1673ffffffffffffffffffffffffffffffffffffffff163373ffffffffffffffffffffffffffffffffffffffff16141515611f7e57600080fd5b80600160006101000a81548173ffffffffffffffffffffffffffffffffffffffff021916908373ffffffffffffffffffffffffffffffffffffffff16021790555050565b6060600f600083815260200190815260200160002080548060200260200160405190810160405280929190818152602001828054801561202157602002820191906000526020600020905b81548152602001906001019080831161200d575b50505050509050919050565b612035612bf7565b600b600083815260200190815260200160002060a06040519081016040529081600082015481526020016001820154815260200160028201548152602001600382018054600181600116156101000203166002900480601f01602080910402602001604051908101604052809291908181526020018280546001816001161561010002031660029004801561210b5780601f106120e05761010080835404028352916020019161210b565b820191906000526020600020905b8154815290600101906020018083116120ee57829003601f168201915b505050505081526020016004820154815250509050919050565b60003373ffffffffffffffffffffffffffffffffffffffff16612147836114cf565b73ffffffffffffffffffffffffffffffffffffffff16148061216f575061216e33836126e3565b5b806121885750612187612181836114cf565b33611c3b565b5b9050919050565b600073ffffffffffffffffffffffffffffffffffffffff168273ffffffffffffffffffffffffffffffffffffffff16141515156121cb57600080fd5b6121d4816114cf565b73ffffffffffffffffffffffffffffffffffffffff168273ffffffffffffffffffffffffffffffffffffffff161415151561220e57600080fd5b8273ffffffffffffffffffffffffffffffffffffffff1661222e826114cf565b73ffffffffffffffffffffffffffffffffffffffff1614151561225057600080fd5b61225a8382612724565b612264838261280d565b61226e8282612a60565b8173ffffffffffffffffffffffffffffffffffffffff168373ffffffffffffffffffffffffffffffffffffffff167fddf252ad1be2c89b69c2b068fc378daa952ba7f163c4a11628f55a4df523b3ef836040516122cb9190613159565b60405180910390a3505050565b600080600c848154811015156122ea57fe5b90600052602060002090600402019050600081600301541115612311578281600201819055505b8060010160009054906101000a900473ffffffffffffffffffffffffffffffffffffffff1673ffffffffffffffffffffffffffffffffffffffff1681600001547fff690e88453bcff3e33229808f20b4096b151c8b45fa0c24a3ecc1879543a5e68360020154846003015460405161238a9291906131b9565b60405180910390a38391505092915050565b60006123a6612ca7565b6080604051908101604052808581526020013373ffffffffffffffffffffffffffffffffffffffff1681526020018481526020014281525090506001600c82908060018154018082558091505090600182039060005260206000209060040201600090919290919091506000820151816000015560208201518160010160006101000a81548173ffffffffffffffffffffffffffffffffffffffff021916908373ffffffffffffffffffffffffffffffffffffffff16021790555060408201518160020155606082015181600301555050039150600e60003373ffffffffffffffffffffffffffffffffffffffff1673ffffffffffffffffffffffffffffffffffffffff168152602001908152602001600020829080600181540180825580915050906001820390600052602060002001600090919290919091505550600f600085815260200190815260200160002082908060018154018082558091505090600182039060005260206000200160009091929091909150555081601160003373ffffffffffffffffffffffffffffffffffffffff1673ffffffffffffffffffffffffffffffffffffffff1681526020019081526020016000206000868152602001908152602001600020819055506001601060003373ffffffffffffffffffffffffffffffffffffffff1673ffffffffffffffffffffffffffffffffffffffff168152602001908152602001600020600086815260200190815260200160002060006101000a81548160ff021916908315150217905550806020015173ffffffffffffffffffffffffffffffffffffffff1681600001517fff690e88453bcff3e33229808f20b4096b151c8b45fa0c24a3ecc1879543a5e6836040015184606001516040516126379291906131b9565b60405180910390a38191505092915050565b600073ffffffffffffffffffffffffffffffffffffffff168273ffffffffffffffffffffffffffffffffffffffff161415151561268557600080fd5b61268f8282612a60565b8173ffffffffffffffffffffffffffffffffffffffff1660007fddf252ad1be2c89b69c2b068fc378daa952ba7f163c4a11628f55a4df523b3ef836040516126d79190613159565b60405180910390a35050565b60008273ffffffffffffffffffffffffffffffffffffffff1661270583611ccf565b73ffffffffffffffffffffffffffffffffffffffff1614905092915050565b8173ffffffffffffffffffffffffffffffffffffffff16612744826114cf565b73ffffffffffffffffffffffffffffffffffffffff1614151561276657600080fd5b60006003600083815260200190815260200160002060006101000a81548173ffffffffffffffffffffffffffffffffffffffff021916908373ffffffffffffffffffffffffffffffffffffffff16021790555060008273ffffffffffffffffffffffffffffffffffffffff167f8c5be1e5ebec7d5bd14f71427d1e84f3dd0314c0f7b2291e5b200ac8c7c3b925836040516128019190613159565b60405180910390a35050565b600080600060066000858152602001908152602001600020549250612844600161283687611570565b612bde90919063ffffffff16565b9150600560008673ffffffffffffffffffffffffffffffffffffffff1673ffffffffffffffffffffffffffffffffffffffff1681526020019081526020016000208281548110151561289257fe5b9060005260206000200154905060006002600086815260200190815260200160002060006101000a81548173ffffffffffffffffffffffffffffffffffffffff021916908373ffffffffffffffffffffffffffffffffffffffff16021790555080600560008773ffffffffffffffffffffffffffffffffffffffff1673ffffffffffffffffffffffffffffffffffffffff1681526020019081526020016000208481548110151561293f57fe5b90600052602060002001819055506000600560008773ffffffffffffffffffffffffffffffffffffffff1673ffffffffffffffffffffffffffffffffffffffff1681526020019081526020016000208381548110151561299b57fe5b9060005260206000200181905550600560008673ffffffffffffffffffffffffffffffffffffffff1673ffffffffffffffffffffffffffffffffffffffff1681526020019081526020016000208054809190600190036129fb9190612ce6565b506000600660008681526020019081526020016000208190555082600660008381526020019081526020016000208190555060078490806001815401808255809150509060018203906000526020600020016000909192909190915055505050505050565b60008073ffffffffffffffffffffffffffffffffffffffff166002600084815260200190815260200160002060009054906101000a900473ffffffffffffffffffffffffffffffffffffffff1673ffffffffffffffffffffffffffffffffffffffff16141515612acf57600080fd5b826002600084815260200190815260200160002060006101000a81548173ffffffffffffffffffffffffffffffffffffffff021916908373ffffffffffffffffffffffffffffffffffffffff160217905550612b2a83611570565b9050600560008473ffffffffffffffffffffffffffffffffffffffff1673ffffffffffffffffffffffffffffffffffffffff1681526020019081526020016000208290806001815401808255809150509060018203906000526020600020016000909192909190915055508060066000848152602001908152602001600020819055506007829080600181540180825580915050906001820390600052602060002001600090919290919091505550505050565b6000828211151515612bec57fe5b818303905092915050565b60a06040519081016040528060008152602001600081526020016000815260200160608152602001600081525090565b828054600181600116156101000203166002900490600052602060002090601f016020900481019282601f10612c6857805160ff1916838001178555612c96565b82800160010185558215612c96579182015b82811115612c95578251825591602001919060010190612c7a565b5b509050612ca39190612d12565b5090565b60806040519081016040528060008152602001600073ffffffffffffffffffffffffffffffffffffffff16815260200160008152602001600081525090565b815481835581811115612d0d57818360005260206000209182019101612d0c9190612d12565b5b505050565b612d3491905b80821115612d30576000816000905550600101612d18565b5090565b90565b6000612d4382356132cf565b905092915050565b6000612d5782356132ef565b905092915050565b6000612d6b82356132fb565b905092915050565b600060208284031215612d8557600080fd5b6000612d9384828501612d37565b91505092915050565b60008060408385031215612daf57600080fd5b6000612dbd85828601612d37565b9250506020612dce85828601612d37565b9150509250929050565b600080600060608486031215612ded57600080fd5b6000612dfb86828701612d37565b9350506020612e0c86828701612d37565b9250506040612e1d86828701612d5f565b9150509250925092565b60008060408385031215612e3a57600080fd5b6000612e4885828601612d37565b9250506020612e5985828601612d4b565b9150509250929050565b60008060408385031215612e7657600080fd5b6000612e8485828601612d37565b9250506020612e9585828601612d5f565b9150509250929050565b600060208284031215612eb157600080fd5b6000612ebf84828501612d5f565b91505092915050565b60008060408385031215612edb57600080fd5b6000612ee985828601612d5f565b9250506020612efa85828601612d5f565b9150509250929050565b600080600060608486031215612f1957600080fd5b6000612f2786828701612d5f565b9350506020612f3886828701612d5f565b9250506040612f4986828701612d5f565b9150509250925092565b612f5c81613299565b82525050565b6000612f6d8261326b565b808452602084019350612f7f8361325e565b60005b82811015612fb157612f958683516130ae565b612f9e8261328c565b9150602086019550600181019050612f82565b50849250505092915050565b612fc6816132b9565b82525050565b6000612fd782613281565b808452612feb816020860160208601613305565b612ff481613338565b602085010191505092915050565b600061300d82613276565b808452613021816020860160208601613305565b61302a81613338565b602085010191505092915050565b600060a08301600083015161305060008601826130ae565b50602083015161306360208601826130ae565b50604083015161307660408601826130ae565b506060830151848203606086015261308e8282613002565b91505060808301516130a360808601826130ae565b508091505092915050565b6130b7816132c5565b82525050565b60006020820190506130d26000830184612f53565b92915050565b600060208201905081810360008301526130f28184612f62565b905092915050565b600060208201905061310f6000830184612fbd565b92915050565b6000602082019050818103600083015261312f8184612fcc565b905092915050565b600060208201905081810360008301526131518184613038565b905092915050565b600060208201905061316e60008301846130ae565b92915050565b600060808201905061318960008301876130ae565b6131966020830186612f53565b6131a360408301856130ae565b6131b060608301846130ae565b95945050505050565b60006040820190506131ce60008301856130ae565b6131db60208301846130ae565b9392505050565b60006060820190506131f760008301866130ae565b61320460208301856130ae565b61321160408301846130ae565b949350505050565b600060808201905061322e60008301876130ae565b61323b60208301866130ae565b61324860408301856130ae565b6132556060830184612fbd565b95945050505050565b6000602082019050919050565b600081519050919050565b600081519050919050565b600081519050919050565b6000602082019050919050565b600073ffffffffffffffffffffffffffffffffffffffff82169050919050565b60008115159050919050565b6000819050919050565b600073ffffffffffffffffffffffffffffffffffffffff82169050919050565b60008115159050919050565b6000819050919050565b60005b83811015613323578082015181840152602081019050613308565b83811115613332576000848401525b50505050565b6000601f19601f83011690509190505600a265627a7a72305820193200bb72a9ed0b2ead1dee034af3a3e09633d916c0900acaef70cb1ffd00786c6578706572696d656e74616cf50037",
  "source": "pragma solidity ^0.4.24;\npragma experimental ABIEncoderV2;\n\nimport './helpers/SafeMath.sol';\nimport \"./ERC721BasicToken.sol\";\nimport \"./Ownable.sol\";\n\ncontract InvoiceTapContract is Ownable, ERC721BasicTokenContract {\n    using SafeMath for uint256;\n    \n    struct Invoice {\n        uint256 bolID;\n        uint256 basePrice;\n        uint256 discount;\n        string status;\n        uint256 createdAt;\n    }\n    \n    struct Bid {\n        uint256 bolID;\n        address bidder;\n        uint256 amount;\n        uint256 createdAt;\n    }\n    \n    event InvoiceAdded (\n        uint256 bolId,\n        uint256 basePrice,\n        uint256 discount\n    );\n    event BidAdded(\n        uint256 indexed _bolID,\n        address indexed bidder,\n        uint256 amount,\n        uint256 created\n    );\n    \n    mapping (uint256 => Invoice) invoices;\n    Bid[]  public bids;\n    uint256[] public submittedInvoices;\n    mapping(address => uint256[]) bidsOfUser;\n    mapping(uint256 => uint256[]) bidsOfInvoice;\n    mapping(address => mapping(uint256 => bool)) hasUserBidOnInvoice;\n    mapping(address => mapping(uint256 => uint256)) userBidOnInvoice;\n    \n    constructor(string _name, string _symbol) ERC721BasicTokenContract(_name, _symbol) public {\n            \n    }\n    \n    /** internal **/\n\n    function _bidExists(uint256 bidId) internal view returns (bool) {\n        if (bids.length == 0) {\n            return false;\n        }\n        return bids[bidId].createdAt > 0;\n    }\n    \n    function _isSenderisOwner(uint256 bidId) internal view returns (bool) {\n        if (bids.length == 0) {\n            return false;\n        }\n        return bids[bidId].bidder == msg.sender;\n    }\n    \n    function _updateBid(uint256 bidId, uint256 amount) internal returns(uint256) {\n        Bid storage _bid = bids[bidId];\n        if (_bid.createdAt > 0) {\n            _bid.amount = amount;\n        }\n        emit BidAdded(_bid.bolID, _bid.bidder, _bid.amount, _bid.createdAt);\n        return bidId;\n    }\n    \n    function _createBid(uint256 _bolID, uint256 amount) internal returns(uint256 bidId) {\n        Bid memory _bid = Bid({\n            bolID: _bolID,\n            bidder: msg.sender,\n            amount: amount,\n            createdAt: now\n        }); \n        \n        bidId = bids.push(_bid) - 1;\n        bidsOfUser[msg.sender].push(bidId);\n        bidsOfInvoice[_bolID].push(bidId);\n        userBidOnInvoice[msg.sender][_bolID] = bidId;\n        hasUserBidOnInvoice[msg.sender][_bolID] = true;\n        emit BidAdded(_bid.bolID, _bid.bidder, _bid.amount, _bid.createdAt);\n        return bidId;\n    }\n    \n    function _createInvoice(uint256 _bolID, uint256 _basePrice, uint256 _discount) public returns (uint256 tokenId) {\n        require(!isBOLSubmitted(_bolID));\n        Invoice memory _invoice = Invoice({\n            bolID: _bolID,\n            basePrice: _basePrice,\n            discount: _discount,\n            status: '',\n            createdAt: now\n        });\n        invoices[_bolID] = _invoice;\n        _mint(msg.sender, _bolID);\n        submittedInvoices.push(_bolID);\n        emit InvoiceAdded(_bolID, _basePrice, _discount);\n        return _bolID;\n    }\n    \n    function _updateInvoice(uint256 _bolID, uint256 _discount) public returns (uint256 tokenId) {\n        Invoice storage _invoice = invoices[_bolID];\n        if(_invoice.createdAt > 0) {\n            _invoice.discount = _discount;\n        }\n        emit InvoiceAdded(_invoice.bolID, _invoice.basePrice, _invoice.discount);\n        return _bolID;\n    }\n    \n     /** anyone can call these functions**/\n     \n    function createInvoice(uint256 _bolID, uint256 _basePrice, uint256 _discount) public returns (uint256 bolID) {\n        Invoice storage _invoice = invoices[_bolID];\n        if (_invoice.createdAt > 0) {\n            return _updateInvoice(_bolID, _discount);\n        }\n        return _createInvoice(_bolID, _basePrice, _discount);\n    }    \n    \n\n    function bid(uint256 _bolID, uint256 amount) public returns (uint256 bidId) {\n        //require(bills[billId].createdAt > 0);\n        \n        if (hasUserBidOnInvoice[msg.sender][_bolID]) {\n            bidId = userBidOnInvoice[msg.sender][_bolID];\n            return _updateBid(bidId, amount);\n        }\n\n        return _createBid(_bolID, amount);\n    }\n    \n    function viewInvoice(uint256 _bolID) public view returns(Invoice) {\n        return invoices[_bolID];\n    }\n    \n    function hasUserAlreadyBid(address _bidder, uint256 _bolID) public view returns (bool){\n        return hasUserBidOnInvoice[_bidder][_bolID];\n    }\n    \n    function getBidsOnInvoice(uint256 _bolID) public view returns(uint256[]){\n        return bidsOfInvoice[_bolID];\n    }\n    \n    function getBidsOfUser(address _bidder) public view returns(uint256[]){\n        return bidsOfUser[_bidder];\n    }\n    \n    function totalBids() public view returns(uint256) {\n        return bids.length;\n    }\n    \n    function totalBills() public view returns(uint256) {\n        return submittedInvoices.length;\n    }\n    \n    function showBid(uint256 bidId) public view returns(uint256 billId, address bidder, uint256 amount, uint256 createdAt) {\n        return (bids[bidId].bolID, bids[bidId].bidder, bids[bidId].amount, bids[bidId].createdAt);\n    }\n    \n    function showBidOnInvoice(address _bidder, uint256 _bolID) public view returns(uint256 billId, address bidder, uint256 amount, uint256 createdAt) {\n        bool hasBid = hasUserBidOnInvoice[_bidder][_bolID];\n        if (hasBid) {\n            uint256 bidId = userBidOnInvoice[_bidder][_bolID];\n            Bid memory _bid = bids[bidId];\n            return (_bid.bolID, _bid.bidder, _bid.amount, _bid.createdAt);\n        }\n    }\n    \n    function getSubmittedInvoices() public view returns (uint256[]) {\n        return submittedInvoices;\n    }\n    \n    function getSubmittedInvoice(uint256 _bolID) public view returns(uint256 bollID, uint256 basePrice, uint256 discount, bool isApplied) {\n        Invoice storage _invoice = invoices[_bolID];\n        if (_invoice.createdAt > 0) {\n            return (_invoice.bolID, _invoice.basePrice, _invoice.discount, hasUserAlreadyBid(msg.sender, _bolID));\n        }\n    }\n    \n    function isBOLSubmitted(uint256 bolID) public view returns(bool) {\n        Invoice storage _invoice = invoices[bolID];\n        return _invoice.createdAt > 0;\n    }\n    \n    function removeBid(uint256 _bolID) public returns(bool) {\n        uint256 _bidID = userBidOnInvoice[msg.sender][_bolID];\n        delete bids[_bidID];\n        userBidOnInvoice[msg.sender][_bolID] = 0;\n        hasUserBidOnInvoice[msg.sender][_bolID] = false;\n        return true;\n    }\n    \n}\n\n\n\n\n\n\n\n\n\n\n",
  "sourcePath": "/home/ubuntu/contracts/contracts/InvoiceTap.sol",
  "compiler": {
    "name": "solc",
    "version": "0.4.26+commit.4563c3fc.Emscripten.clang"
  },
  "schemaVersion": "2.0.3",
  "updatedAt": "2020-09-18T10:22:48.942Z"
}