{
  "contractName": "DKIM",
  "abi": [
    {
      "constant": true,
      "inputs": [
        {
          "name": "raw",
          "type": "string"
        }
      ],
      "name": "verify",
      "outputs": [
        {
          "name": "success",
          "type": "uint256"
        },
        {
          "name": "domain",
          "type": "string"
        }
      ],
      "payable": false,
      "stateMutability": "view",
      "type": "function"
    }
  ],
  "bytecode": "0x608060405234801561001057600080fd5b506155bc806100206000396000f300608060405260043610610041576000357c0100000000000000000000000000000000000000000000000000000000900463ffffffff168063bb9c6c3e14610046575b600080fd5b34801561005257600080fd5b506100ad600480360381019080803590602001908201803590602001908080601f016020809104026020016040519081016040528093929190818152602001838380828437820191505050505050919291929050505061012f565b6040518083815260200180602001828103825283818151815260200191508051906020019080838360005b838110156100f35780820151818401526020810190506100d8565b50505050905090810190601f1680156101205780820380516001836020036101000a031916815260200191505b50935050505060405180910390f35b6000606061013b615160565b610143615190565b61014b6151aa565b6000610155615190565b600061015f615190565b6101676151cb565b6101786101738c6102d1565b6102ff565b809850819950829a50505050600086600001511415156101ad5760006101a18760200151610801565b819150995099506102c4565b6000945060408051908101604052806000815260200160008152509350600092505b87602001518310156102b5578760800151838151811015156101ed57fe5b90602001906020020151915061020a61020583610863565b61088f565b80975081925050506000866000015114151561023657600085141561023157856020015193505b6102a8565b610240878261146e565b95506000866000015114151561026657600085141561026157856020015193505b6102a8565b6102718882846115e2565b95506000866000015114151561029757600085141561029257856020015193505b6102a7565b8480600101955050806000015193505b5b82806001019350506101cf565b846102bf85610801565b995099505b5050505050505050915091565b6102d9615190565b600060208301905060408051908101604052808451815260200182815250915050919050565b610307615160565b61030f615190565b6103176151aa565b61031f615190565b610327615190565b61032f615190565b610337615190565b61033f615190565b610347615160565b61034f615190565b610357615190565b61035f615190565b61039d6040805190810160405280600281526020017f0d0a0000000000000000000000000000000000000000000000000000000000008152506102d1565b98506103dd6040805190810160405280600181526020017f3a000000000000000000000000000000000000000000000000000000000000008152506102d1565b975061041d6040805190810160405280600181526020017f20000000000000000000000000000000000000000000000000000000000000008152506102d1565b965061045d6040805190810160405280600181526020017f09000000000000000000000000000000000000000000000000000000000000008152506102d1565b955061049d6040805190810160405280600e81526020017f646b696d2d7369676e61747572650000000000000000000000000000000000008152506102d1565b945060a060405190810160405280600081526020016000815260200160506040519080825280602002602001820160405280156104f457816020015b6104e161525c565b8152602001906001900390816104d95790505b508152602001605060405190808252806020026020018201604052801561053557816020015b61052261525c565b81526020019060019003908161051a5790505b508152602001600360405190808252806020026020018201604052801561057657816020015b61056361525c565b81526020019060019003908161055b5790505b50815250935060408051908101604052806000815260200160008152509250604080519081016040528060008152602001600081525091505b6105b88d6117c1565b1515610792576105d1898e6117d190919063ffffffff16565b90506105e687826117eb90919063ffffffff16565b8061060057506105ff86826117eb90919063ffffffff16565b5b15610624578060000151896000015101826000018181510191508181525050610717565b610637858461184390919063ffffffff16565b1561067557818460800151856020015181518110151561065357fe5b90602001906020020181905250836020018051809190600101815250506106de565b61067e836117c1565b15156106dd57828460400151856000015181518110151561069b57fe5b9060200190602002018190525081846060015185600001518151811015156106bf57fe5b90602001906020020181905250836000018051809190600101815250505b5b61071161070c6107076107028b6106f486610863565b6117d190919063ffffffff16565b610801565b611859565b6102d1565b92508091505b61072a898e6117eb90919063ffffffff16565b1561078d5760028d600001818151039150818152505060028d6020018181510191508181525050838d60408051908101604052806000815260200160408051908101604052806000815260200160008152508152508090509b509b509b506107f1565b6105af565b838d6040805190810160405280600181526020016107e46040805190810160405280601881526020017f6e6f2068656164657220626f756e6461727920666f756e6400000000000000008152506102d1565b8152508090509b509b509b505b5050505050505050509193909250565b606080600083600001516040519080825280601f01601f19166020018201604052801561083d5781602001602082028038833980820191505090505b5091506020820190506108598185602001518660000151611ab5565b8192505050919050565b61086b615190565b60408051908101604052808360000151815260200183602001518152509050919050565b6108976151cb565b61089f6151aa565b6108a7615190565b6108af615190565b6108b7615190565b6108bf615190565b60006108ff6040805190810160405280600181526020017f3b000000000000000000000000000000000000000000000000000000000000008152506102d1565b945061093f6040805190810160405280600181526020017f3d000000000000000000000000000000000000000000000000000000000000008152506102d1565b9350604080519081016040528060008152602001604080519081016040528060008152602001600081525081525095506109bf6109b06040805190810160405280600181526020017f3a000000000000000000000000000000000000000000000000000000000000008152506102d1565b896117d190919063ffffffff16565b505b6109ca886117c1565b1515611302576109e385896117d190919063ffffffff16565b9250610a006109fb85856117d190919063ffffffff16565b611b00565b9150610a0b83611b00565b9250610a5d610a4e6040805190810160405280600181526020017f76000000000000000000000000000000000000000000000000000000000000008152506102d1565b8361184390919063ffffffff16565b8015610ab65750610ab4610aa56040805190810160405280600181526020017f31000000000000000000000000000000000000000000000000000000000000008152506102d1565b8461184390919063ffffffff16565b155b15610b1557604080519081016040528060018152602001610b0b6040805190810160405280601e81526020017f696e636f6d70617469626c65207369676e61747572652076657273696f6e00008152506102d1565b8152509550611464565b610b65610b566040805190810160405280600181526020017f64000000000000000000000000000000000000000000000000000000000000008152506102d1565b8361184390919063ffffffff16565b15610b78578287600001819052506112fd565b610bc8610bb96040805190810160405280600181526020017f69000000000000000000000000000000000000000000000000000000000000008152506102d1565b8361184390919063ffffffff16565b15610bdb578287602001819052506112fc565b610c2b610c1c6040805190810160405280600181526020017f73000000000000000000000000000000000000000000000000000000000000008152506102d1565b8361184390919063ffffffff16565b15610c3e578287604001819052506112fb565b610c8e610c7f6040805190810160405280600181526020017f63000000000000000000000000000000000000000000000000000000000000008152506102d1565b8361184390919063ffffffff16565b15610df257610c9c836117c1565b15610d3257610cdf6040805190810160405280600681526020017f73696d706c6500000000000000000000000000000000000000000000000000008152506102d1565b8760a00181905250610d256040805190810160405280600681526020017f73696d706c6500000000000000000000000000000000000000000000000000008152506102d1565b8760c00181905250610ded565b610d82610d736040805190810160405280600181526020017f2f000000000000000000000000000000000000000000000000000000000000008152506102d1565b846117d190919063ffffffff16565b8760a00181905250828760c00181905250610da08760c001516117c1565b15610dec57610de36040805190810160405280600681526020017f73696d706c6500000000000000000000000000000000000000000000000000008152506102d1565b8760c001819052505b5b6112fa565b610e42610e336040805190810160405280600181526020017f61000000000000000000000000000000000000000000000000000000000000008152506102d1565b8361184390919063ffffffff16565b156110e057610e97610e886040805190810160405280600181526020017f2d000000000000000000000000000000000000000000000000000000000000008152506102d1565b846117d190919063ffffffff16565b876101000181905250828760e00181905250610eb68760e001516117c1565b15610f1557604080519081016040528060018152602001610f0b6040805190810160405280601881526020017f6d616c666f726d656420616c676f726974686d206e616d6500000000000000008152506102d1565b8152509550611464565b610f69610f566040805190810160405280600681526020017f73686132353600000000000000000000000000000000000000000000000000008152506102d1565b8860e0015161184390919063ffffffff16565b158015610fc75750610fc5610fb26040805190810160405280600481526020017f73686131000000000000000000000000000000000000000000000000000000008152506102d1565b8860e0015161184390919063ffffffff16565b155b156110265760408051908101604052806001815260200161101c6040805190810160405280601a81526020017f756e737570706f72746564206861736820616c676f726974686d0000000000008152506102d1565b8152509550611464565b61107b6110676040805190810160405280600381526020017f72736100000000000000000000000000000000000000000000000000000000008152506102d1565b88610100015161184390919063ffffffff16565b15156110db576040805190810160405280600181526020016110d16040805190810160405280601981526020017f756e737570706f72746564206b657920616c676f726974686d000000000000008152506102d1565b8152509550611464565b6112f9565b6111306111216040805190810160405280600281526020017f62680000000000000000000000000000000000000000000000000000000000008152506102d1565b8361184390919063ffffffff16565b15611143578287608001819052506112f8565b6111936111846040805190810160405280600181526020017f68000000000000000000000000000000000000000000000000000000000000008152506102d1565b8361184390919063ffffffff16565b15611217576111a183611cf3565b81915088610120018193508290525050801515611212576040805190810160405280600181526020016112086040805190810160405280601581526020017f46726f6d206669656c64206e6f74207369676e656400000000000000000000008152506102d1565b8152509550611464565b6112f7565b6112676112586040805190810160405280600181526020017f62000000000000000000000000000000000000000000000000000000000000008152506102d1565b8361184390919063ffffffff16565b1561128457611277836001611ede565b87606001819052506112f6565b6112d46112c56040805190810160405280600181526020017f6c000000000000000000000000000000000000000000000000000000000000008152506102d1565b8361184390919063ffffffff16565b156112f5576112ea6112e584610801565b612065565b876101400181815250505b5b5b5b5b5b5b5b5b6109c1565b6113108761010001516117c1565b80611324575061132387606001516117c1565b5b80611338575061133787608001516117c1565b5b8061134c575061134b87600001516117c1565b5b80611360575061135f87604001516117c1565b5b806113715750600087610120015151145b156113d0576040805190810160405280600181526020016113c66040805190810160405280601481526020017f726571756972656420746167206d697373696e670000000000000000000000008152506102d1565b8152509550611464565b6113dd87602001516117c1565b156113e757611463565b6114028760000151886020015161213790919063ffffffff16565b1515611462576040805190810160405280600181526020016114586040805190810160405280600f81526020017f646f6d61696e206d69736d6174636800000000000000000000000000000000008152506102d1565b8152509550611464565b5b5b5050505050915091565b6114766151aa565b606060008084610140015111801561149657508361014001518560000151115b156114ab578361014001518560000181815250505b6114b9858560c0015161219b565b9150600090506115136115006040805190810160405280600681526020017f73686132353600000000000000000000000000000000000000000000000000008152506102d1565b8560e0015161184390919063ffffffff16565b156115355761152e826115298660800151610801565b6122c9565b905061154e565b61154b826115468660800151610801565b612396565b90505b806115ab576040805190810160405280600181526020016115a36040805190810160405280601881526020017f626f6479206861736820646964206e6f742076657269667900000000000000008152506102d1565b8152506115d8565b60408051908101604052806000815260200160408051908101604052806000815260200160008152508152505b9250505092915050565b6115ea6151aa565b60608060006060611603876000015188604001516123e0565b809450819550505060008451148061161c575060008351145b1561167b576040805190810160405280600281526020016116716040805190810160405280600f81526020017f646e73207175657279206572726f7200000000000000000000000000000000008152506102d1565b81525094506117b6565b60009150611694888861012001518960a0015189612a30565b90506116ea6116d76040805190810160405280600681526020017f73686132353600000000000000000000000000000000000000000000000000008152506102d1565b8860e0015161184390919063ffffffff16565b1561170e576117078484836117028b60600151610801565b612ee9565b9150611729565b6117268484836117218b60600151610801565b612fd7565b91505b816117865760408051908101604052806001815260200161177e6040805190810160405280601881526020017f7369676e617475726520646964206e6f742076657269667900000000000000008152506102d1565b8152506117b3565b60408051908101604052806000815260200160408051908101604052806000815260200160008152508152505b94505b505050509392505050565b6000808260000151149050919050565b6117d9615190565b6117e4838383613042565b5092915050565b600080826000015184600001511015611807576000915061183c565b826020015184602001511415611820576001915061183c565b8251602085015160208501518281208383201493505050508091505b5092915050565b60008061185084846130e0565b14905092915050565b6060806000839150600090505b8151811015611aab5760417f01000000000000000000000000000000000000000000000000000000000000000282828151811015156118a157fe5b9060200101517f010000000000000000000000000000000000000000000000000000000000000090047f0100000000000000000000000000000000000000000000000000000000000000027effffffffffffffffffffffffffffffffffffffffffffffffffffffffffffff1916101580156119b95750605a7f010000000000000000000000000000000000000000000000000000000000000002828281518110151561194957fe5b9060200101517f010000000000000000000000000000000000000000000000000000000000000090047f0100000000000000000000000000000000000000000000000000000000000000027effffffffffffffffffffffffffffffffffffffffffffffffffffffffffffff191611155b15611a9e57602082828151811015156119ce57fe5b9060200101517f010000000000000000000000000000000000000000000000000000000000000090047f0100000000000000000000000000000000000000000000000000000000000000027f01000000000000000000000000000000000000000000000000000000000000009004017f0100000000000000000000000000000000000000000000000000000000000000028282815181101515611a6d57fe5b9060200101907effffffffffffffffffffffffffffffffffffffffffffffffffffffffffffff1916908160001a9053505b8080600101915050611866565b8192505050919050565b60005b602082101515611add5782518452602084019350602083019250602082039150611ab8565b6001826020036101000a0390508019835116818551168181178652505050505050565b611b08615190565b611b10615190565b611b18615190565b611b20615190565b611b5e6040805190810160405280600181526020017f20000000000000000000000000000000000000000000000000000000000000008152506102d1565b9250611b9e6040805190810160405280600181526020017f09000000000000000000000000000000000000000000000000000000000000008152506102d1565b9150611bde6040805190810160405280600281526020017f0d0a0000000000000000000000000000000000000000000000000000000000008152506102d1565b9050611bf381866117eb90919063ffffffff16565b15611c1b57600285600001818151039150818152505060028560200181815101915081815250505b5b611c2f83866117eb90919063ffffffff16565b80611c495750611c4882866117eb90919063ffffffff16565b5b15611c755760018560000181815103915081815250506001856020018181510191508181525050611c1c565b611c88818661213790919063ffffffff16565b15611c9f5760028560000181815103915081815250505b5b611cb3838661213790919063ffffffff16565b80611ccd5750611ccc828661213790919063ffffffff16565b5b15611ce8576001856000018181510391508181525050611ca0565b849350505050919050565b60606000611cff615190565b611d07615190565b6060600080611d14615190565b6000611d546040805190810160405280600181526020017f3a000000000000000000000000000000000000000000000000000000000000008152506102d1565b9650611d946040805190810160405280600481526020017f66726f6d000000000000000000000000000000000000000000000000000000008152506102d1565b95506001611dab888c6131c790919063ffffffff16565b01604051908082528060200260200182016040528015611de557816020015b611dd261525c565b815260200190600190039081611dca5790505b50945060009350600092505b8451831015611ecc57611e2d611e28611e23611e1e611e198b8f6117d190919063ffffffff16565b611b00565b610801565b611859565b6102d1565b9150600090505b82811015611e7d57611e66828683815181101515611e4e57fe5b9060200190602002015161184390919063ffffffff16565b15611e7057611e7d565b8080600101915050611e34565b82811415611ea257818584815181101515611e9457fe5b906020019060200201819052505b611eb5868361184390919063ffffffff16565b15611ebf57600193505b8280600101935050611df1565b84849850985050505050505050915091565b611ee6615190565b611eee615190565b600060606000611f326040805190810160405280600281526020017f0d0a0000000000000000000000000000000000000000000000000000000000008152506102d1565b9350611f4784886131c790919063ffffffff16565b92506000831415611f5a5786945061205b565b60018301604051908082528060200260200182016040528015611f9757816020015b611f8461525c565b815260200190600190039081611f7c5790505b509150600090505b815181101561202557611fbb84886117d190919063ffffffff16565b8282815181101515611fc957fe5b90602001906020020181905250851561201857611ffc8282815181101515611fed57fe5b90602001906020020151611b00565b828281518110151561200a57fe5b906020019060200201819052505b8080600101915050611f9f565b6120586120538361204560206040519081016040528060008152506102d1565b61323e90919063ffffffff16565b6102d1565b94505b5050505092915050565b6000606060008084925060009350600091505b825182101561212f57828281518110151561208f57fe5b9060200101517f010000000000000000000000000000000000000000000000000000000000000090047f0100000000000000000000000000000000000000000000000000000000000000027f01000000000000000000000000000000000000000000000000000000000000009004905060308110158015612111575060398111155b156121225760308103600a85020193505b8180600101925050612078565b505050919050565b60008060008360000151856000015110156121555760009250612193565b83600001518560000151866020015101039150836020015182141561217d5760019250612193565b8351602085015181812082852014925050508092505b505092915050565b60606121ed6121de6040805190810160405280600781526020017f72656c61786564000000000000000000000000000000000000000000000000008152506102d1565b8361184390919063ffffffff16565b15612209576121fb8361339f565b9250612206836135be565b92505b612212836137af565b92506122646122556040805190810160405280600681526020017f73696d706c6500000000000000000000000000000000000000000000000000008152506102d1565b8361184390919063ffffffff16565b80156122755750612274836117c1565b5b156122b7576040805190810160405280600281526020017f0d0a00000000000000000000000000000000000000000000000000000000000081525090506122c3565b6122c083610801565b90505b92915050565b6000806002846040518082805190602001908083835b60208310151561230457805182526020820191506020810190506020830392506122df565b6001836020036101000a0380198251168184511680821785525050505050509050019150506020604051808303816000865af1158015612348573d6000803e3d6000fd5b5050506040513d602081101561235d57600080fd5b81019080805190602001909291905050509050806000191661238861238185613837565b6000614276565b600019161491505092915050565b6000806123a28461429a565b9050806bffffffffffffffffffffffff19166123c76123c085613837565b60006147bb565b6bffffffffffffffffffffffff19161491505092915050565b606080612433846124256040805190810160405280601081526020017f667573656d616368696e65732e636f6d000000000000000000000000000000008152506102d1565b61184390919063ffffffff16565b801561248b575061248a8361247c6040805190810160405280600681526020017f676f6f676c6500000000000000000000000000000000000000000000000000008152506102d1565b61184390919063ffffffff16565b5b156125785760a060405190810160405280608081526020017f9157daff5eb845df246f5e315144ff112ac4f7caa555ad9185620b0a2e5ffb7b81526020017f14492417c804f23e9d1ce90b5a6ee5719465a85e1ad8ff9b558353d4eb14ae3081526020017f22f2ef2b25fae5e78fc37c0db1431524fefa6da783b62950694939e623caab7881526020017f73a110cff9bb848f43e58afcfcb14de54af4f1fd3939e2472c6b9514f174e95581525091506040805190810160405280600381526020017f01000100000000000000000000000000000000000000000000000000000000008152509050612a29565b6125c8846125ba6040805190810160405280600981526020017f676d61696c2e636f6d00000000000000000000000000000000000000000000008152506102d1565b61184390919063ffffffff16565b8015612620575061261f836126116040805190810160405280600881526020017f32303136313032350000000000000000000000000000000000000000000000008152506102d1565b61184390919063ffffffff16565b5b1561268157610120604051908101604052806101008152602001615491610100913991506040805190810160405280600381526020017f01000100000000000000000000000000000000000000000000000000000000008152509050612a29565b6126d1846126c36040805190810160405280600e81526020017f70726f746f6e6d61696c2e636f6d0000000000000000000000000000000000008152506102d1565b61184390919063ffffffff16565b801561272957506127288361271a6040805190810160405280600781526020017f64656661756c74000000000000000000000000000000000000000000000000008152506102d1565b61184390919063ffffffff16565b5b156128165760a060405190810160405280608081526020017fca678aeacca0caadf24728d7d3821d41ff736da07ad1f13e185d3b8796da452681526020017f585cf867230c4a5fdadbf31e747b47b11b84e762c32e122e0097a8421141eeec81526020017fc0e4fcbeae733d9ebf239d28f22b31cf9d10964bcda085b27a2350aa50cf40b481526020017f1ecb441749f2f39d063f6c7c6f280a808b7dc2087c12fce3eeb96707abc0c2a981525091506040805190810160405280600381526020017f01000100000000000000000000000000000000000000000000000000000000008152509050612a29565b612866846128586040805190810160405280600981526020017f7961686f6f2e636f6d00000000000000000000000000000000000000000000008152506102d1565b61184390919063ffffffff16565b80156128be57506128bd836128af6040805190810160405280600581526020017f73323034380000000000000000000000000000000000000000000000000000008152506102d1565b61184390919063ffffffff16565b5b1561291f57610120604051908101604052806101008152602001615291610100913991506040805190810160405280600381526020017f01000100000000000000000000000000000000000000000000000000000000008152509050612a29565b61296f846129616040805190810160405280600b81526020017f6f75746c6f6f6b2e636f6d0000000000000000000000000000000000000000008152506102d1565b61184390919063ffffffff16565b80156129c757506129c6836129b86040805190810160405280600981526020017f73656c6563746f723100000000000000000000000000000000000000000000008152506102d1565b61184390919063ffffffff16565b5b15612a2857610120604051908101604052806101008152602001615391610100913991506040805190810160405280600381526020017f01000100000000000000000000000000000000000000000000000000000000008152509050612a29565b5b9250929050565b6060612a3a615190565b612a42615190565b6060600080612a4f615190565b6060612a59615190565b612a976040805190810160405280600281526020017f0d0a0000000000000000000000000000000000000000000000000000000000008152506102d1565b9750612ad76040805190810160405280600181526020017f3a000000000000000000000000000000000000000000000000000000000000008152506102d1565b965060018c5101604051908082528060200260200182016040528015612b1757816020015b612b0461525c565b815260200190600190039081612afc5790505b509550612b6a612b5b6040805190810160405280600681526020017f73696d706c6500000000000000000000000000000000000000000000000000008152506102d1565b8c61184390919063ffffffff16565b9450600093505b8b51841015612d0b57612b9a8c85815181101515612b8b57fe5b906020019060200201516117c1565b15612ba457612cfe565b612bc58d8d86815181101515612bb657fe5b90602001906020020151614801565b9250612bd0836117c1565b15612bda57612cfe565b8415612c0157828685815181101515612bef57fe5b90602001906020020181905250612cfe565b612c1487846117d190919063ffffffff16565b50612c20836000611ede565b9250612c2b836135be565b9250612c3683611b00565b92506002604051908082528060200260200182016040528015612c7357816020015b612c6061525c565b815260200190600190039081612c585790505b5091508b84815181101515612c8457fe5b90602001906020020151826000815181101515612c9d57fe5b9060200190602002018190525082826001815181101515612cba57fe5b90602001906020020181905250612ce2612cdd838961323e90919063ffffffff16565b6102d1565b8685815181101515612cf057fe5b906020019060200201819052505b8380600101945050612b71565b8415612d365789866001885103815181101515612d2457fe5b90602001906020020181905250612ecd565b612d49878b6117d190919063ffffffff16565b50612d9a612d8b6040805190810160405280600281526020017f623d0000000000000000000000000000000000000000000000000000000000008152506102d1565b8b6117d190919063ffffffff16565b9050612da58a6117c1565b15612db257809950612e32565b6002816000018181510191508181525050612e13612e046040805190810160405280600181526020017f3b000000000000000000000000000000000000000000000000000000000000008152506102d1565b8b6117d190919063ffffffff16565b50612e2f612e2a8b836148a790919063ffffffff16565b6102d1565b99505b612e3d8a6000611ede565b9950612e488a6135be565b9950612e538a611b00565b9950612ead612ea88b612e9a6040805190810160405280600f81526020017f646b696d2d7369676e61747572653a00000000000000000000000000000000008152506102d1565b6148a790919063ffffffff16565b6102d1565b866001885103815181101515612ebf57fe5b906020019060200201819052505b612ed78887614929565b98505050505050505050949350505050565b6000806060612f01612efa85613837565b8789614adf565b8092508193505050818015612fcb5750612f1f816020835103614276565b600019166002866040518082805190602001908083835b602083101515612f5b5780518252602082019150602081019050602083039250612f36565b6001836020036101000a0380198251168184511680821785525050505050509050019150506020604051808303816000865af1158015612f9f573d6000803e3d6000fd5b5050506040513d6020811015612fb457600080fd5b810190808051906020019092919050505060001916145b92505050949350505050565b6000806060612fef612fe885613837565b8789614adf565b8092508193505050818015613036575061300d8160148351036147bb565b6bffffffffffffffffffffffff19166130258661429a565b6bffffffffffffffffffffffff1916145b92505050949350505050565b61304a615190565b60006130688560000151866020015186600001518760200151614be5565b905084602001518360200181815250508460200151810383600001818152505084600001518560200151018114156130aa5760008560000181815250506130d5565b8360000151836000015101856000018181510391508181525050836000015181018560200181815250505b829150509392505050565b60008060008060008060008060008a6000015197508a600001518a60000151101561310d57896000015197505b8a60200151965089602001519550600094505b878510156131ab5786519350855192508284141515613194577fffffffffffffffffffffffffffffffffffffffffffffffffffffffffffffffff9150602088101561317857600185896020030160080260020a031991505b818316828516039050600081141515613193578098506131b9565b5b602087019650602086019550602085019450613120565b89600001518b600001510398505b505050505050505092915050565b60008082600001516131eb8560000151866020015186600001518760200151614be5565b0190505b836000015184602001510181111515613237578180600101925050826000015161322f856020015183038660000151038386600001518760200151614be5565b0190506131ef565b5092915050565b60606000806060600080865114156132685760206040519081016040528060008152509450613395565b60018651038760000151029350600092505b85518310156132b057858381518110151561329157fe5b906020019060200201516000015184019350828060010193505061327a565b836040519080825280601f01601f1916602001820160405280156132e35781602001602082028038833980820191505090505b509150602082019050600092505b85518310156133915761333b81878581518110151561330c57fe5b9060200190602002015160200151888681518110151561332857fe5b9060200190602002015160000151611ab5565b858381518110151561334957fe5b90602001906020020151600001518101905060018651038310156133845761337a8188602001518960000151611ab5565b8660000151810190505b82806001019350506132f1565b8194505b5050505092915050565b6133a7615190565b6133af615190565b6133b7615190565b60006060600061340d6133fe6040805190810160405280600381526020017f200d0a00000000000000000000000000000000000000000000000000000000008152506102d1565b88614ccb90919063ffffffff16565b151561341b578695506135b4565b6134596040805190810160405280600181526020017f20000000000000000000000000000000000000000000000000000000000000008152506102d1565b94506134996040805190810160405280600281526020017f0d0a0000000000000000000000000000000000000000000000000000000000008152506102d1565b93506134ae84886131c790919063ffffffff16565b9250600183016040519080825280602002602001820160405280156134ed57816020015b6134da61525c565b8152602001906001900390816134d25790505b509150600090505b81518110156135965761351184886117d190919063ffffffff16565b828281518110151561351f57fe5b906020019060200201819052505b61355785838381518110151561353f57fe5b9060200190602002015161213790919063ffffffff16565b15613589576001828281518110151561356c57fe5b90602001906020020151600001818151039150818152505061352d565b80806001019150506134f5565b6135b16135ac838661323e90919063ffffffff16565b6102d1565b95505b5050505050919050565b6135c6615190565b60006135d0615190565b6000606060006136266136176040805190810160405280600181526020017f09000000000000000000000000000000000000000000000000000000000000008152506102d1565b88614ccb90919063ffffffff16565b94506136786136696040805190810160405280600281526020017f20200000000000000000000000000000000000000000000000000000000000008152506102d1565b88614ccb90919063ffffffff16565b158015613683575084155b15613690578695506137a5565b84156136b2576136af6136aa6136a589610801565b614cf8565b6102d1565b96505b6136f06040805190810160405280600181526020017f20000000000000000000000000000000000000000000000000000000000000008152506102d1565b935061370584886131c790919063ffffffff16565b92506001830160405190808252806020026020018201604052801561374457816020015b61373161525c565b8152602001906001900390816137295790505b509150600090505b81518110156137905761376884886117d190919063ffffffff16565b828281518110151561377657fe5b90602001906020020181905250808060010191505061374c565b6137a261379d8584614929565b6102d1565b95505b5050505050919050565b6137b7615190565b6137bf615190565b6137fd6040805190810160405280600481526020017f0d0a0d0a000000000000000000000000000000000000000000000000000000008152506102d1565b90505b613813818461213790919063ffffffff16565b1561382e576002836000018181510391508181525050613800565b82915050919050565b6060806060600080606060008060008060008060008d9b506101006040519080825280602002602001820160405280156138805781602001602082028038833980820191505090505b509a50600099505b60408a60ff1610156139a057898b606060405190810160405280604081526020017f4142434445464748494a4b4c4d4e4f505152535455565758595a61626364656681526020017f6768696a6b6c6d6e6f707172737475767778797a303132333435363738392b2f8152508c60ff1681518110151561390357fe5b9060200101517f010000000000000000000000000000000000000000000000000000000000000090047f0100000000000000000000000000000000000000000000000000000000000000027f0100000000000000000000000000000000000000000000000000000000000000900481518110151561397d57fe5b9060200190602002019060ff16908160ff168152505089806001019a5050613888565b600060048d518115156139af57fe5b061415156139cf5760206040519081016040528060008152509c50614265565b600360048d518115156139de57fe5b040298507f3d000000000000000000000000000000000000000000000000000000000000008c60018e5103815181101515613a1557fe5b9060200101517f010000000000000000000000000000000000000000000000000000000000000090047f0100000000000000000000000000000000000000000000000000000000000000027effffffffffffffffffffffffffffffffffffffffffffffffffffffffffffff19161415613a92578880600190039950505b7f3d000000000000000000000000000000000000000000000000000000000000008c60028e5103815181101515613ac557fe5b9060200101517f010000000000000000000000000000000000000000000000000000000000000090047f0100000000000000000000000000000000000000000000000000000000000000027effffffffffffffffffffffffffffffffffffffffffffffffffffffffffffff19161415613b42578880600190039950505b886040519080825280601f01601f191660200182016040528015613b755781602001602082028038833980820191505090505b50975060009650600095505b8b51861015614261577f3d000000000000000000000000000000000000000000000000000000000000008c87815181101515613bb957fe5b9060200101517f010000000000000000000000000000000000000000000000000000000000000090047f0100000000000000000000000000000000000000000000000000000000000000027effffffffffffffffffffffffffffffffffffffffffffffffffffffffffffff191614613ccc578a8c87806001019850815181101515613c4057fe5b9060200101517f010000000000000000000000000000000000000000000000000000000000000090047f0100000000000000000000000000000000000000000000000000000000000000027f01000000000000000000000000000000000000000000000000000000000000009004815181101515613cba57fe5b9060200190602002015160ff16613cd7565b858060010196506000165b94507f3d000000000000000000000000000000000000000000000000000000000000008c87815181101515613d0857fe5b9060200101517f010000000000000000000000000000000000000000000000000000000000000090047f0100000000000000000000000000000000000000000000000000000000000000027effffffffffffffffffffffffffffffffffffffffffffffffffffffffffffff191614613e1b578a8c87806001019850815181101515613d8f57fe5b9060200101517f010000000000000000000000000000000000000000000000000000000000000090047f0100000000000000000000000000000000000000000000000000000000000000027f01000000000000000000000000000000000000000000000000000000000000009004815181101515613e0957fe5b9060200190602002015160ff16613e26565b858060010196506000165b93507f3d000000000000000000000000000000000000000000000000000000000000008c87815181101515613e5757fe5b9060200101517f010000000000000000000000000000000000000000000000000000000000000090047f0100000000000000000000000000000000000000000000000000000000000000027effffffffffffffffffffffffffffffffffffffffffffffffffffffffffffff191614613f6a578a8c87806001019850815181101515613ede57fe5b9060200101517f010000000000000000000000000000000000000000000000000000000000000090047f0100000000000000000000000000000000000000000000000000000000000000027f01000000000000000000000000000000000000000000000000000000000000009004815181101515613f5857fe5b9060200190602002015160ff16613f75565b858060010196506000165b92507f3d000000000000000000000000000000000000000000000000000000000000008c87815181101515613fa657fe5b9060200101517f010000000000000000000000000000000000000000000000000000000000000090047f0100000000000000000000000000000000000000000000000000000000000000027effffffffffffffffffffffffffffffffffffffffffffffffffffffffffffff1916146140b9578a8c8780600101985081518110151561402d57fe5b9060200101517f010000000000000000000000000000000000000000000000000000000000000090047f0100000000000000000000000000000000000000000000000000000000000000027f010000000000000000000000000000000000000000000000000000000000000090048151811015156140a757fe5b9060200190602002015160ff166140c4565b858060010196506000165b91506000829060020a026006849060020a02600c869060020a026012889060020a020101019050888710156141665760ff6010829060020a9004167f010000000000000000000000000000000000000000000000000000000000000002888880600101995081518110151561413557fe5b9060200101907effffffffffffffffffffffffffffffffffffffffffffffffffffffffffffff1916908160001a9053505b888710156141e15760ff6008829060020a9004167f01000000000000000000000000000000000000000000000000000000000000000288888060010199508151811015156141b057fe5b9060200101907effffffffffffffffffffffffffffffffffffffffffffffffffffffffffffff1916908160001a9053505b8887101561425c5760ff6000829060020a9004167f010000000000000000000000000000000000000000000000000000000000000002888880600101995081518110151561422b57fe5b9060200101907effffffffffffffffffffffffffffffffffffffffffffffffffffffffffffff1916908160001a9053505b613b81565b879c505b505050505050505050505050919050565b60008251602083011115151561428b57600080fd5b81602084010151905092915050565b60006040518251602084019350604067ffffffffffffffc0600183011601600982820310600181146142cb576142d2565b6040820191505b50776745230100efcdab890098badcfe001032547600c3d2e1f061432d565b6000809050838310156143265782820151905082840393506020841015614325576001846020036101000a03198082169150505b5b9392505050565b60005b8281101561473b576143438482896142f1565b85526143538460208301896142f1565b60208601526040818503106001811461436b57614374565b60808286038701535b506040830381146001811461438857614398565b6008850260208701511760208701525b5060405b60808110156144245760408103860151603882038701511860208203870151600c830388015118187c010000000100000001000000010000000100000001000000010000000163800000008204167ffffffffefffffffefffffffefffffffefffffffefffffffefffffffefffffffe6002830216179050808288015250600c8101905061439c565b5060805b6101408110156144b157608081038601516070820387015118604082038701516018830388015118187c030000000300000003000000030000000300000003000000030000000363400000008204167ffffffffcfffffffcfffffffcfffffffcfffffffcfffffffcfffffffcfffffffc6004830216179050808288015250601881019050614428565b508160008060005b605081101561470d5760148104600081146144eb5760018114614535576002811461457257600381146145d55761460e565b6501000000000085046a01000000000000000000008604189350836f01000000000000000000000000000000860416935083650100000000008604189350635a827999925061460e565b6a010000000000000000000085046f01000000000000000000000000000000860418935083650100000000008604189350636ed9eba1925061460e565b6a010000000000000000000085046f01000000000000000000000000000000860417935083650100000000008604169350836a010000000000000000000086046f01000000000000000000000000000000870416179350638f1bbcdc925061460e565b6a010000000000000000000085046f0100000000000000000000000000000086041893508365010000000000860418935063ca62c1d692505b50601f770800000000000000000000000000000000000000000000008504168063ffffffe073080000000000000000000000000000000000000087041617905080840190508063ffffffff86160190508083019050807c0100000000000000000000000000000000000000000000000000000000600484028c0151040190507401000000000000000000000000000000000000000081026501000000000086041794506a0100000000000000000000633fffffff6a040000000000000000000087041663c00000006604000000000000880416170277ffffffff00ffffffff000000000000ffffffff00ffffffff8616179450506001810190506144b9565b5077ffffffff00ffffffff00ffffffff00ffffffff00ffffffff838601169450505050604081019050614330565b506c0100000000000000000000000063ffffffff821667ffffffff000000006101008404166bffffffff0000000000000000620100008504166fffffffff000000000000000000000000630100000086041673ffffffff000000000000000000000000000000006401000000008704161717171702945050505050919050565b6000825160148301111515156147d057600080fd5b7fffffffffffffffffffffffffffffffffffffffff0000000000000000000000008260208501015116905092915050565b614809615190565b60008090505b8360000151811015614886576148498385604001518381518110151561483157fe5b9060200190602002015161184390919063ffffffff16565b156148795761487284606001518281518110151561486357fe5b90602001906020020151610863565b91506148a0565b808060010191505061480f565b604080519081016040528060008152602001600081525091505b5092915050565b606080600083600001518560000151016040519080825280601f01601f1916602001820160405280156148e95781602001602082028038833980820191505090505b5091506020820190506149058186602001518760000151611ab5565b61491e8560000151820185602001518660000151611ab5565b819250505092915050565b60606000806060600080865114156149535760206040519081016040528060008152509450614ad5565b60009350600092505b85518310156149bd576000868481518110151561497557fe5b906020019060200201516000015111156149b057858381518110151561499757fe5b9060200190602002015160000151876000015101840193505b828060010193505061495c565b866000015184039350836040519080825280601f01601f1916602001820160405280156149f95781602001602082028038833980820191505090505b509150602082019050600092505b8551831015614ad15760008684815181101515614a2057fe5b90602001906020020151600001511415614a3957614ac4565b614a7a818785815181101515614a4b57fe5b90602001906020020151602001518886815181101515614a6757fe5b9060200190602002015160000151614e2d565b8583815181101515614a8857fe5b9060200190602002015160000151810190506001865103831015614ac357614ab98188602001518960000151614e2d565b8660000151810190505b5b8280600101935050614a07565b8194505b5050505092915050565b600060606000614aed615276565b84518651885160600101019150614b0d8282614e7890919063ffffffff16565b50614b25875160010282614ed290919063ffffffff16565b50614b3d865160010282614ed290919063ffffffff16565b50614b55855160010282614ed290919063ffffffff16565b50614b698782614ef490919063ffffffff16565b50614b7d8682614ef490919063ffffffff16565b50614b918582614ef490919063ffffffff16565b5084516040519080825280601f01601f191660200182016040528015614bc65781602001602082028038833980820191505090505b50925084516020840183602084510160055afa93505050935093915050565b60008060008060008060008060008b97508c8b111515614cb55760208b111515614c6f5760018b60200360080260020a03196001029550858a511694508a8d8d010393508588511692505b84600019168360001916141515614c67578388101515614c54578c8c019850614cbb565b8780600101985050858851169250614c30565b879850614cbb565b8a8a209150600096505b8a8d0387111515614cb4578a88209050806000191682600019161415614ca157879850614cbb565b6001880197508680600101975050614c79565b5b8c8c0198505b5050505050505050949350505050565b60008260200151614cee8460000151856020015185600001518660200151614f16565b1415905092915050565b6060806000839150600090505b8151811015614e235760097f0100000000000000000000000000000000000000000000000000000000000000028282815181101515614d4057fe5b9060200101517f010000000000000000000000000000000000000000000000000000000000000090047f0100000000000000000000000000000000000000000000000000000000000000027effffffffffffffffffffffffffffffffffffffffffffffffffffffffffffff19161415614e165760207f0100000000000000000000000000000000000000000000000000000000000000028282815181101515614de557fe5b9060200101907effffffffffffffffffffffffffffffffffffffffffffffffffffffffffffff1916908160001a9053505b8080600101915050614d05565b8192505050919050565b60005b602082101515614e555782518452602084019350602083019250602082039150614e30565b6001826020036101000a0390508019835116818551168181178652505050505050565b614e80615276565b6000602083811515614e8e57fe5b06141515614eab57602082811515614ea257fe5b06602003820191505b81836020018181525050604051808452600081528281016020016040525082905092915050565b614eda615276565b614eec83846000015151846020614fee565b905092915050565b614efc615276565b614f0e83846000015151848551615063565b905092915050565b60008060008060008060008a89111515614fdc57602089111515614f9b5760018960200360080260020a03196001029450848851169350888b8b010395508486511692505b83600019168360001916141515614f91578986111515614f7d57899650614fe0565b858060019003965050848651169250614f5b565b8886019650614fe0565b8888209150888b038a0195505b8986101515614fdb578886209050806000191682600019161415614fd0578886019650614fe0565b600186039550614fa8565b5b8996505b505050505050949350505050565b614ff6615276565b6000856020015185840111156150165761501586600287860102615120565b5b6001836101000a0390508260200360080284600019169060020a9004935085518386820101858319825116178152815185880111156150555784870182525b505085915050949350505050565b61506b615276565b60008060008551851115151561508057600080fd5b876020015185880111156150ab576150aa8860026150a48b602001518b8a01615144565b02615120565b5b8751805188602083010194508089880111156150c75788870182525b60208801935050505b6020851015156150f557815183526020830192506020820191506020850394506150d0565b6001856020036101000a03905080198251168184511681811785525050879350505050949350505050565b6060826000015190506151338383614e78565b5061513e8382614ef4565b50505050565b6000818311156151565782905061515a565b8190505b92915050565b60a06040519081016040528060008152602001600081526020016060815260200160608152602001606081525090565b604080519081016040528060008152602001600081525090565b606060405190810160405280600081526020016151c561525c565b81525090565b610280604051908101604052806151e061525c565b81526020016151ed61525c565b81526020016151fa61525c565b815260200161520761525c565b815260200161521461525c565b815260200161522161525c565b815260200161522e61525c565b815260200161523b61525c565b815260200161524861525c565b815260200160608152602001600081525090565b604080519081016040528060008152602001600081525090565b6040805190810160405280606081526020016000815250905600ba85ae7e06d6c39f0c7335066ccbf5efa45ac5d64638c9109a7f0e389fc71a843a75a95231688b6a3f0831c1c2d5cb9b271da0ce200f40754fb4561acb22c0e1ac89512364d74feea9f072894f2a88f084e09485ae9c5f961308295e1bb7e835b87c3bc0bce0b827f8600a11e97c54291b00a07ba817b33ebfa6cc67f5f51bebe258790197851f80943a3bc17572428aa19e4aa949091f9a436aa6e0b3e1773e9ca201441f07a104cce03528c3d15891a9ce03ed2a8ba40dc42e294c3d180ba5ee4488c84722ceaadb69428d2c6026cf47a592a467cc8b15a73ea3753d7f615e518ba614390e6c3796ea37367c4f1a109646d5472e9e28e8d49e84924e648087bd6ca4b6b20bf033bff941af31bbfb70f77f5e88296ecee9815c3ccbd95d3ba00032683cfa28c4365fdcec56f531f28ceee1b72ccc00af475554ac8cfa66e4a17da4e4bee5b11390af467d8064a9bbbc6b9d939ae7cfbfa4885dd9793f0c53e96b9f9329b5a875bb1264f44df33d11639c79f6377349c957944c8df661197663a2293b0e3fa03bbd0c5f4b26bd8e0e4df3575f34dbcfec79d67a330cb0ac8832b5e9b713a1201b84607ebb2437bdf10817d78a07bc6336533e7789ffd25bc305d3dad887db29e19b1a58b220e93df8dc9ce56edaec1911820c9f493e9c515998a6b73f94a7f0652b34fab020ab06285bfc18b7a59884041e148bfbebb8be5109be23c6064e1907ae147d2a96c8089c751ee5a1d872b5a7be11845056d28384cfb59978c4a91b4ffe90d3dec0616b3926038f27da4e4d254c8c1283bc9dcdabeac500fbf0e89b98d1059a7aa832893b08c9e51fcea476a69511be611250a91b6a1204a22561bb87b79f1985a687851184533d93dfab986fc2c02830c7b12df9cf0e3259e068b974e3f6cf99fa63744c8b5b23629a4efad425fa2b29b3622443373d4c389389ececc5692e0f15b54b9f49b999fd0754db41a4fc16b8236f68555f9546311326e56c1ea1fe858e3c66f3a1282d440e3b487579dd2c198c8b15a5bab82f1516f48c4013063319c4a06789f943c5fc4e7768c2c0d4ce871c3c51a177a165627a7a72305820564b5a7205563be0fa874951b8e653c166ef66d713d2b3413783ed65859022af0029",
  "source": "pragma solidity >=0.4.24;\n\nimport \"./utils/Strings.sol\";\nimport \"./Algorithm.sol\";\n\nlibrary Hardcode {\n    using strings for *;\n\n    function getRSAKey(strings.slice memory domain, strings.slice memory selector) internal pure returns (bytes memory modulus, bytes memory exponent) {\n        if (\"fusemachines.com\".toSlice().equals(domain) && \"google\".toSlice().equals(selector)) {\n            modulus = hex\"9157daff5eb845df246f5e315144ff112ac4f7caa555ad9185620b0a2e5ffb7b14492417c804f23e9d1ce90b5a6ee5719465a85e1ad8ff9b558353d4eb14ae3022f2ef2b25fae5e78fc37c0db1431524fefa6da783b62950694939e623caab7873a110cff9bb848f43e58afcfcb14de54af4f1fd3939e2472c6b9514f174e955\";\n            exponent = hex\"010001\";\n            return;\n        }\n        if (\"gmail.com\".toSlice().equals(domain) && \"20161025\".toSlice().equals(selector)) {\n            modulus = hex\"be23c6064e1907ae147d2a96c8089c751ee5a1d872b5a7be11845056d28384cfb59978c4a91b4ffe90d3dec0616b3926038f27da4e4d254c8c1283bc9dcdabeac500fbf0e89b98d1059a7aa832893b08c9e51fcea476a69511be611250a91b6a1204a22561bb87b79f1985a687851184533d93dfab986fc2c02830c7b12df9cf0e3259e068b974e3f6cf99fa63744c8b5b23629a4efad425fa2b29b3622443373d4c389389ececc5692e0f15b54b9f49b999fd0754db41a4fc16b8236f68555f9546311326e56c1ea1fe858e3c66f3a1282d440e3b487579dd2c198c8b15a5bab82f1516f48c4013063319c4a06789f943c5fc4e7768c2c0d4ce871c3c51a177\";\n            exponent = hex\"010001\";\n            return;\n        }\n        if (\"protonmail.com\".toSlice().equals(domain) && \"default\".toSlice().equals(selector)) {\n            modulus = hex\"ca678aeacca0caadf24728d7d3821d41ff736da07ad1f13e185d3b8796da4526585cf867230c4a5fdadbf31e747b47b11b84e762c32e122e0097a8421141eeecc0e4fcbeae733d9ebf239d28f22b31cf9d10964bcda085b27a2350aa50cf40b41ecb441749f2f39d063f6c7c6f280a808b7dc2087c12fce3eeb96707abc0c2a9\";\n            exponent = hex\"010001\";\n            return;\n        }\n        if (\"yahoo.com\".toSlice().equals(domain) && \"s2048\".toSlice().equals(selector)) {\n            modulus = hex\"ba85ae7e06d6c39f0c7335066ccbf5efa45ac5d64638c9109a7f0e389fc71a843a75a95231688b6a3f0831c1c2d5cb9b271da0ce200f40754fb4561acb22c0e1ac89512364d74feea9f072894f2a88f084e09485ae9c5f961308295e1bb7e835b87c3bc0bce0b827f8600a11e97c54291b00a07ba817b33ebfa6cc67f5f51bebe258790197851f80943a3bc17572428aa19e4aa949091f9a436aa6e0b3e1773e9ca201441f07a104cce03528c3d15891a9ce03ed2a8ba40dc42e294c3d180ba5ee4488c84722ceaadb69428d2c6026cf47a592a467cc8b15a73ea3753d7f615e518ba614390e6c3796ea37367c4f1a109646d5472e9e28e8d49e84924e648087\";\n            exponent = hex\"010001\";\n            return;\n        }\n        if (\"outlook.com\".toSlice().equals(domain) && \"selector1\".toSlice().equals(selector)) {\n            modulus = hex\"bd6ca4b6b20bf033bff941af31bbfb70f77f5e88296ecee9815c3ccbd95d3ba00032683cfa28c4365fdcec56f531f28ceee1b72ccc00af475554ac8cfa66e4a17da4e4bee5b11390af467d8064a9bbbc6b9d939ae7cfbfa4885dd9793f0c53e96b9f9329b5a875bb1264f44df33d11639c79f6377349c957944c8df661197663a2293b0e3fa03bbd0c5f4b26bd8e0e4df3575f34dbcfec79d67a330cb0ac8832b5e9b713a1201b84607ebb2437bdf10817d78a07bc6336533e7789ffd25bc305d3dad887db29e19b1a58b220e93df8dc9ce56edaec1911820c9f493e9c515998a6b73f94a7f0652b34fab020ab06285bfc18b7a59884041e148bfbebb8be5109\";\n            exponent = hex\"010001\";\n            return;\n        }\n    }\n}\n\ncontract DKIM {\n    using strings for *;\n\n    uint private constant STATE_SUCCESS = 0;\n    uint private constant STATE_PERMFAIL = 1;\n    uint private constant STATE_TEMPFAIL = 2;\n    \n    struct Status {\n        uint state;\n        strings.slice message;\n    }\n\n    struct Headers {\n        uint len;\n        uint signum;\n        strings.slice[] name;\n        strings.slice[] value;\n        strings.slice[] signatures;\n    }\n\n    struct SigTags {\n        strings.slice d;\n        strings.slice i;\n        strings.slice s;\n        strings.slice b;\n        strings.slice bh;\n        strings.slice cHeader;\n        strings.slice cBody;\n        strings.slice aHash;\n        strings.slice aKey;\n        strings.slice[] h;\n        uint l;\n    }\n\n    function verify(string memory raw) public view returns (uint success, string domain) {\n        Headers memory headers;\n        strings.slice memory body;\n        Status memory status;\n        (headers, body, status) = parse(raw.toSlice());\n        if (status.state != STATE_SUCCESS) return (0, status.message.toString());\n\n        uint successCount = 0;\n        strings.slice memory last = strings.slice(0, 0);\n        for (uint i = 0; i < headers.signum; i++) {\n            strings.slice memory dkimSig = headers.signatures[i];\n            \n            SigTags memory sigTags;\n            (sigTags, status) = parseSigTags(dkimSig.copy());\n            if (status.state != STATE_SUCCESS) {\n                if (successCount == 0) last = status.message;\n                continue;\n            }\n            \n            status = verifyBodyHash(body, sigTags);\n            if (status.state != STATE_SUCCESS) {\n                if (successCount == 0) last = status.message;\n                continue;\n            }\n\n            status = verifySignature(headers, sigTags, dkimSig);\n            if (status.state != STATE_SUCCESS) {\n                if (successCount == 0) last = status.message;\n            } else {\n                successCount++;\n                last = sigTags.d;\n            }\n        }\n        \n        return (successCount, last.toString());\n    }\n\n    function verifyBodyHash(strings.slice memory body, SigTags memory sigTags) internal pure returns (Status memory) {\n        if (sigTags.l > 0 && body._len > sigTags.l) body._len = sigTags.l;\n        string memory processedBody = processBody(body, sigTags.cBody);\n        bool check = false;\n        if (sigTags.aHash.equals(\"sha256\".toSlice())) {\n            check = Algorithm.checkSHA256(bytes(processedBody), sigTags.bh.toString());\n        } else {\n            check = Algorithm.checkSHA1(bytes(processedBody), sigTags.bh.toString());\n        }\n        return check ? Status(STATE_SUCCESS, strings.slice(0, 0)) : Status(STATE_PERMFAIL, \"body hash did not verify\".toSlice());\n    }\n\n    function verifySignature(Headers memory headers, SigTags memory sigTags, strings.slice memory signature) internal view returns (Status memory) {\n        bytes memory modulus;\n        bytes memory exponent;\n        (modulus, exponent) = Hardcode.getRSAKey(sigTags.d, sigTags.s);\n        if (modulus.length == 0 || exponent.length == 0) {\n            return Status(STATE_TEMPFAIL, \"dns query error\".toSlice());\n        }\n\n        bool check = false;\n        string memory processedHeader = processHeader(headers, sigTags.h, sigTags.cHeader, signature);\n        if (sigTags.aHash.equals(\"sha256\".toSlice())) {\n            check = Algorithm.verifyRSASHA256(modulus, exponent, bytes(processedHeader), sigTags.b.toString());\n        } else {\n            check = Algorithm.verifyRSASHA1(modulus, exponent, bytes(processedHeader), sigTags.b.toString());\n        }\n        return check ? Status(STATE_SUCCESS, strings.slice(0, 0)) : Status(STATE_PERMFAIL, \"signature did not verify\".toSlice());\n    }\n\n    function parse(strings.slice memory all) internal pure returns (Headers memory, strings.slice memory, Status memory) {\n        strings.slice memory crlf = \"\\r\\n\".toSlice();\n        strings.slice memory colon = \":\".toSlice();\n        strings.slice memory sp = \"\\x20\".toSlice();\n        strings.slice memory tab = \"\\x09\".toSlice();\n        strings.slice memory signame = \"dkim-signature\".toSlice();\n\n        Headers memory headers = Headers(0, 0, new strings.slice[](80), new strings.slice[](80), new strings.slice[](3));\n        strings.slice memory headerName = strings.slice(0, 0);\n        strings.slice memory headerValue = strings.slice(0, 0);\n        while (!all.empty()) {\n            strings.slice memory part = all.split(crlf);\n            if (part.startsWith(sp) || part.startsWith(tab)) {\n                headerValue._len += crlf._len + part._len;\n            } else {\n                if (headerName.equals(signame)) {\n                    headers.signatures[headers.signum] = headerValue;\n                    headers.signum++;\n                } else if (!headerName.empty()) {\n                    headers.name[headers.len] = headerName;\n                    headers.value[headers.len] = headerValue;\n                    headers.len++;\n                }\n                headerName = toLowercase(part.copy().split(colon).toString()).toSlice();\n                headerValue = part;\n            }\n\n            if (all.startsWith(crlf)) {\n                all._len -= 2;\n                all._ptr += 2;\n                return (headers, all, Status(STATE_SUCCESS, strings.slice(0, 0)));\n            }\n        }\n        return (headers, all, Status(STATE_PERMFAIL, \"no header boundary found\".toSlice()));\n    }\n\n    // @dev https://tools.ietf.org/html/rfc6376#section-3.5\n    function parseSigTags(strings.slice memory signature) internal pure returns (SigTags memory sigTags, Status memory status) {\n        strings.slice memory sc = \";\".toSlice();\n        strings.slice memory eq = \"=\".toSlice();\n        status = Status(STATE_SUCCESS, strings.slice(0, 0));\n\n        signature.split(\":\".toSlice());\n        while (!signature.empty()) {\n            strings.slice memory value = signature.split(sc);\n            strings.slice memory name = trim(value.split(eq));\n            value = trim(value);\n\n            if (name.equals(\"v\".toSlice()) && !value.equals(\"1\".toSlice())) {\n                status = Status(STATE_PERMFAIL, \"incompatible signature version\".toSlice());\n                return;\n            } else if (name.equals(\"d\".toSlice())) {\n                sigTags.d = value;\n            } else if (name.equals(\"i\".toSlice())) {\n                sigTags.i = value;\n            } else if (name.equals(\"s\".toSlice())) {\n                sigTags.s = value;\n            } else if (name.equals(\"c\".toSlice())) {\n                if (value.empty()) {\n                    sigTags.cHeader = \"simple\".toSlice();\n                    sigTags.cBody = \"simple\".toSlice();\n                } else {\n                    sigTags.cHeader = value.split(\"/\".toSlice());\n                    sigTags.cBody = value;\n                    if (sigTags.cBody.empty()) {\n                        sigTags.cBody = \"simple\".toSlice();\n                    }\n                }\n            } else if (name.equals(\"a\".toSlice())) {\n                sigTags.aKey = value.split(\"-\".toSlice());\n                sigTags.aHash = value;\n                if (sigTags.aHash.empty()) {\n                    status = Status(STATE_PERMFAIL, \"malformed algorithm name\".toSlice());\n                    return;\n                }\n                if (!sigTags.aHash.equals(\"sha256\".toSlice()) && !sigTags.aHash.equals(\"sha1\".toSlice())) {\n                    status = Status(STATE_PERMFAIL, \"unsupported hash algorithm\".toSlice());\n                    return;\n                }\n                if (!sigTags.aKey.equals(\"rsa\".toSlice())) {\n                    status = Status(STATE_PERMFAIL, \"unsupported key algorithm\".toSlice());\n                    return;\n                }\n            } else if (name.equals(\"bh\".toSlice())) {\n                sigTags.bh = value;\n            } else if (name.equals(\"h\".toSlice())) {\n                bool signedFrom;\n                (sigTags.h, signedFrom) = parseSigHTag(value);\n                if (!signedFrom) {\n                    status = Status(STATE_PERMFAIL, \"From field not signed\".toSlice());\n                    return;\n                }\n            } else if (name.equals(\"b\".toSlice())) {\n                sigTags.b = unfoldContinuationLines(value, true);\n            } else if (name.equals(\"l\".toSlice())) {\n                sigTags.l = stringToUint(value.toString());\n            }\n        }\n\n        // The tags listed as required in Section 3.5 are v, a, b, bh, d, h, s\n        if (sigTags.aKey.empty() || sigTags.b.empty() || sigTags.bh.empty() || sigTags.d.empty() || sigTags.s.empty() || sigTags.h.length == 0) {\n            status = Status(STATE_PERMFAIL, \"required tag missing\".toSlice());\n            return;\n        }\n        if (sigTags.i.empty()) {\n            // behave as though the value of i tag were \"@d\" \n        } else if (!sigTags.i.endsWith(sigTags.d)) {\n            status = Status(STATE_PERMFAIL, \"domain mismatch\".toSlice());\n            return;\n        }\n    }\n\n    function parseSigHTag(strings.slice memory value) internal pure returns (strings.slice[] memory, bool) {\n        strings.slice memory colon = \":\".toSlice();\n        strings.slice memory from = \"from\".toSlice();\n        strings.slice[] memory list = new strings.slice[](value.count(colon) + 1);\n        bool signedFrom = false;\n\n        for(uint i = 0; i < list.length; i++) {\n            strings.slice memory h = toLowercase(trim(value.split(colon)).toString()).toSlice();\n            uint j = 0;\n            for (; j < i; j++) if (list[j].equals(h)) break;\n            if (j == i) list[i] = h;\n            if (h.equals(from)) signedFrom = true;\n        }\n        return (list, signedFrom);\n    }\n\n    function processBody(strings.slice message, strings.slice method) internal pure returns (string) {\n        if (method.equals(\"relaxed\".toSlice())) {\n            message = removeSPAtEndOfLines(message);\n            message = removeWSPSequences(message);\n        }\n        message = ignoreEmptyLineAtEnd(message);\n        // https://tools.ietf.org/html/rfc6376#section-3.4.3\n        if (method.equals(\"simple\".toSlice()) && message.empty()) {\n            return \"\\r\\n\";\n        }\n        return message.toString();\n    }\n\n    function processHeader(Headers memory headers, strings.slice[] memory tags, strings.slice memory method, strings.slice memory signature) internal pure returns (string) {\n        strings.slice memory crlf = \"\\r\\n\".toSlice();\n        strings.slice memory colon = \":\".toSlice();\n        strings.slice[] memory processedHeader = new strings.slice[](tags.length + 1);\n        bool isSimple = method.equals(\"simple\".toSlice());\n\n        for (uint j = 0; j < tags.length; j++) {\n            if (tags[j].empty()) continue;\n            strings.slice memory value = getHeader(headers, tags[j]);\n            if (value.empty()) continue;\n\n            if (isSimple) {\n                processedHeader[j] = value;\n                continue;\n            }\n\n            value.split(colon);\n            value = unfoldContinuationLines(value, false);\n            value = removeWSPSequences(value);\n            value = trim(value);\n\n            // Convert all header field names to lowercase\n            strings.slice[] memory parts = new strings.slice[](2);\n            parts[0] = tags[j];\n            parts[1] = value;\n            processedHeader[j] = colon.join(parts).toSlice();\n        }\n\n        if (isSimple) {\n            processedHeader[processedHeader.length - 1] = signature;\n        } else {\n            signature.split(colon);\n            // Remove signature value for \"dkim-signature\" header\n            strings.slice memory beforeB = signature.split(\"b=\".toSlice());\n            if (signature.empty()) {\n                signature = beforeB;\n            } else {\n                beforeB._len += 2;\n                signature.split(\";\".toSlice());\n                signature = beforeB.concat(signature).toSlice();\n            }\n            signature = unfoldContinuationLines(signature, false);\n            signature = removeWSPSequences(signature);\n            signature = trim(signature);\n\n            processedHeader[processedHeader.length - 1] = \"dkim-signature:\".toSlice().concat(signature).toSlice();\n        }\n\n        return joinNoEmpty(crlf, processedHeader);\n    }\n\n    // utils\n    function getHeader(Headers memory headers, strings.slice memory headerName) internal pure returns (strings.slice memory) {\n        for (uint i = 0; i < headers.len; i++) {\n            if (headers.name[i].equals(headerName)) return headers.value[i].copy();\n        }\n        return strings.slice(0, 0);\n    }\n\n    function toLowercase(string str) internal pure returns (string) {\n\t\tbytes memory bStr = bytes(str);\n\t\tfor (uint i = 0; i < bStr.length; i++) {\n\t\t\tif ((bStr[i] >= 65) && (bStr[i] <= 90)) {\n\t\t\t\tbStr[i] = bytes1(int(bStr[i]) + 32);\n\t\t\t}\n\t\t}\n\t\treturn string(bStr);\n\t}\n\n    function tabToSp(string str) internal pure returns (string) {\n\t\tbytes memory bStr = bytes(str);\n\t\tfor (uint i = 0; i < bStr.length; i++) {\n\t\t\tif (bStr[i] == 0x09) bStr[i] = 0x20;\n\t\t}\n\t\treturn string(bStr);\n\t}\n\n    function trim(strings.slice memory self) internal pure returns (strings.slice) {\n        strings.slice memory sp = \"\\x20\".toSlice();\n        strings.slice memory tab = \"\\x09\".toSlice();\n        strings.slice memory crlf = \"\\r\\n\".toSlice();\n        if (self.startsWith(crlf)) {\n            self._len -= 2;\n            self._ptr += 2;\n        }\n        while (self.startsWith(sp) || self.startsWith(tab)) {\n            self._len -= 1;\n            self._ptr += 1;\n        }\n        if (self.endsWith(crlf)) {\n            self._len -= 2;\n        }\n        while (self.endsWith(sp) || self.endsWith(tab)) {\n            self._len -= 1;\n        }\n        return self;\n    }\n\n    function removeSPAtEndOfLines(strings.slice memory value) internal pure returns (strings.slice) {\n        if (!value.contains(\"\\x20\\r\\n\".toSlice())) return value;\n        strings.slice memory sp = \"\\x20\".toSlice();\n        strings.slice memory crlf = \"\\r\\n\".toSlice();\n        uint count = value.count(crlf);\n        strings.slice[] memory parts = new strings.slice[](count + 1);\n        for(uint j = 0; j < parts.length; j++) {\n            parts[j] = value.split(crlf);\n            while (parts[j].endsWith(sp)) {\n                parts[j]._len -= 1;\n            }\n        }\n        return crlf.join(parts).toSlice();\n    }\n\n    function removeWSPSequences(strings.slice memory value) internal pure returns (strings.slice) {\n        bool containsTab = value.contains(\"\\x09\".toSlice());\n        if (!value.contains(\"\\x20\\x20\".toSlice()) && !containsTab) return value;\n        if (containsTab) value = tabToSp(value.toString()).toSlice();\n        strings.slice memory sp = \"\\x20\".toSlice();\n        uint count = value.count(sp);\n        strings.slice[] memory parts = new strings.slice[](count + 1);\n        for(uint j = 0; j < parts.length; j++) {\n            parts[j] = value.split(sp);\n        }\n        return joinNoEmpty(sp, parts).toSlice();\n    }\n\n    function ignoreEmptyLineAtEnd(strings.slice memory value) internal pure returns (strings.slice) {\n        strings.slice memory emptyLines = \"\\r\\n\\r\\n\".toSlice();\n        while (value.endsWith(emptyLines)) {\n            value._len -= 2;\n        }\n        return value;\n    }\n\n    function unfoldContinuationLines(strings.slice memory value, bool isTrim) internal pure returns (strings.slice) {\n        strings.slice memory crlf = \"\\r\\n\".toSlice();\n        uint count = value.count(crlf);\n        if (count == 0) return value;\n        strings.slice[] memory parts = new strings.slice[](count + 1);\n        for(uint i = 0; i < parts.length; i++) {\n            parts[i] = value.split(crlf);\n            if (isTrim) parts[i] = trim(parts[i]);\n        }\n        return \"\".toSlice().join(parts).toSlice();\n    }\n\n    function stringToUint(string s) internal pure returns (uint result) {\n        bytes memory b = bytes(s);\n        uint i;\n        result = 0;\n        for (i = 0; i < b.length; i++) {\n            uint c = uint(b[i]);\n            if (c >= 48 && c <= 57) {\n                result = result * 10 + (c - 48);\n            }\n        }\n    }\n\n    function joinNoEmpty(strings.slice memory self, strings.slice[] memory parts) internal pure returns (string memory) {\n        if (parts.length == 0)\n            return \"\";\n\n        uint length = 0;\n        for(uint i = 0; i < parts.length; i++)\n            if (parts[i]._len > 0) {\n                length += self._len + parts[i]._len;\n            }\n        length -= self._len;\n\n        string memory ret = new string(length);\n        uint retptr;\n        assembly { retptr := add(ret, 32) }\n\n        for(i = 0; i < parts.length; i++) {\n            if (parts[i]._len == 0) continue;\n            memcpy(retptr, parts[i]._ptr, parts[i]._len);\n            retptr += parts[i]._len;\n            if (i < parts.length - 1) {\n                memcpy(retptr, self._ptr, self._len);\n                retptr += self._len;\n            }\n        }\n\n        return ret;\n    }\n\n    function memcpy(uint dest, uint src, uint len) private pure {\n        // Copy word-length chunks while possible\n        for(; len >= 32; len -= 32) {\n            assembly {\n                mstore(dest, mload(src))\n            }\n            dest += 32;\n            src += 32;\n        }\n\n        // Copy remaining bytes\n        uint mask = 256 ** (32 - len) - 1;\n        assembly {\n            let srcpart := and(mload(src), not(mask))\n            let destpart := and(mload(dest), mask)\n            mstore(dest, or(destpart, srcpart))\n        }\n    }\n}\n",
  "sourcePath": "/Users/sbacha/github/solidity-dkim/contracts/DKIM.sol",
  "compiler": {
    "name": "solc",
    "version": "0.4.24+commit.e67f0147.Emscripten.clang"
  },
  "schemaVersion": "3.2.2",
  "updatedAt": "2020-08-04T12:04:58.396Z",
  "devdoc": {
    "methods": {}
  },
  "userdoc": {
    "methods": {}
  }
}